S00B00005244502E7372656333
S113000033C000004EC000004CC000004AC00000D5
S11300100C94530946C000000C944C0C42C00000E0
S113002000C700003EC000003CC000003AC0000011
S113003038C0000036C0000034C0000032C00000E8
S113004030C000002EC000000C9475090C94F20B13
S113005028C0000026C0000024C0000022C0000008
S113006020C000001EC0000011241FBECFEFD8E046
S1130070DEBFCDBF14E0A0E0B1E0E4E1F9E402C0EA
S113008005900D92AC3CB107D9F727E0ACECB4E095
S113009001C01D92AD33B207E1F70E94F10C0C943C
S11300A08824AECF8091CF0494E05BE406C09150E5
S11300B089F08F5F843008F080E0282F30E0529F71
S11300C0F001539FF00D1124EC5AFA4F4081442360
S11300D071F305C08093CF0480E090E0089580938D
S11300E0CF044BE4429FC001439F900D11248C5ACE
S11300F09A4F08958091CE0494E05BE406C0915039
S113010089F08F5F843008F080E0282F30E0529F20
S1130110F001539FF00D1124EC5AFA4F4081411124
S1130120EECF05C08093CE0480E090E008958093E4
S1130130CE044BE4429FC001439F900D11248C5A7E
S11301409A4F08958091CD04282F30E092E4899F3E
S1130150F0011124E053FB4F41815281452BA9F05A
S11301608F5F823008F080E0282F30E092E4899F8E
S1130170F0011124E053FB4F41815281452B29F0BA
S11301808093CD0480E090E008958093CD0442E410
S1130190429FC001439F900D112480539B4F0895AB
S11301A08091CC04282F30E092E4899FF00111243F
S11301B0E053FB4F41815281452BA9F48F5F82307C
S11301C008F080E0282F30E092E4899FF0011124A8
S11301D0E053FB4F41815281452B29F48093CC0499
S11301E080E090E008958093CC0442E4429FC001F3
S11301F0439F900D112480539B4F08958091800656
S113020008959091800681E0911180E0911108C0D9
S113021091E090938006E1ECF0E09081906290830D
S1130220089580918006882339F0E1ECF0E0808124
S11302308F7D8083109280060895CF93DF93809101
S1130240C10084FF0FC0E1ECF0E080818F7E8083E9
S113025084E8A0EDB4E0ED0119928A95E9F7808174
S113026080618083DF91CF91089584E8E0EDF4E02C
S1130270DF011D928A95E9F71092C50083E380930C
S1130280C40088E98093C1008EE08093C200089581
S1130290CF93DF93009761F0EC012CDF009751F4CA
S11302A0909180069111FCCF25DF0097C9F302C01D
S11302B081E00CC0DF93CF939F938F930E947D21A5
S11302C0A0DF0F900F900F900F9080E0DF91CF91FF
S11302D008958CE493E0DCCF089580E693E0D8CFD2
S11302E0089586E693E0D4CF08950F931F93CF9398
S11302F0DF9387E793E09F938F938EE793E09F9339
S11303008F9386E993E09F938F9381E896E09F9380
S11303108F930E947D218DB79EB708960FB6F894EF
S11303209EBF0FBE8DBF81E896E0B2DF8111FBCF87
S1130330809180068111FCCFC4E4D1E00CE413E089
S1130340CE01A6DF8111FCCF809180068111FCCF04
S1130350A8960C171D07A1F7C4DFDF91CF911F9159
S11303600F9108959F938F9380E091E09F938F93D3
S11303700E947D210F900F900F900F90089580930D
S1130380080180910801882339F082EB94E0EADFC8
S113039080E091E07DCF089586E693E079CF0895DB
S11303A0E1E8F6E080831182CF0172CF08951F92B5
S11303B08F938AEA93E09F938F9381E896E09F93CB
S11303C08F930E947D2181E896E062DF0F900F9069
S11303D00F900F900F900F90089520E031E03F931D
S11303E02F939F938F937F936F938FEB93E09F93C0
S11303F08F9381E896E09F938F930E947D2181E8FB
S113040096E046DF8DB79EB70A960FB6F8949EBF66
S11304100FBE8DBF08950F931F93CF93DF93CDB776
S1130420DEB72A970FB6F894DEBF0FBECDBF182FE4
S1130430022F80913401909135019A838983FE01C2
S1130440339688E0DF011D928A95E9F7411551053D
S11304506105710559F1463051056105710598F43E
S11304605F934F938BEC93E09F938F93CE01019610
S11304709F938F930E947D210F900F900F900F9068
S11304800F900F9013C07F936F935F934F938FECF4
S113049093E09F938F93CE0101969F938F930E9435
S11304A07D210FB6F894DEBF0FBECDBF133009F423
S11304B063C0123009F463C0113009F063C08BE3E8
S11304C024E290910801992391F10023C1F080E086
S11304D091E09F938F93CE0101969F938F9383ED29
S11304E093E09F938F9381E896E09F938F930E946C
S11304F07D210FB6F894DEBF0FBECDBF39C080E0BA
S113050091E09F938F93CE0101969F938F9380EEFA
S113051093E09F938F9381E896E09F938F930E943B
S11305207D210FB6F894DEBF0FBECDBF21C090E091
S1130530011103C040E050E002C049EC53E09F9336
S11305408F935F934F93CE0101969F938F931F9246
S11305502F9387EE93E09F938F9381E896E09F9388
S11305608F930E947D210FB6F894DEBF0FBECDBFDE
S113057081E896E08DDE06C08BE321E2A2CF8FE313
S113058024E29FCF2A960FB6F894DEBF0FBECDBFEC
S1130590DF91CF911F910F9108951F93CF93DF9314
S11305A0CDB7DEB72A970FB6F894DEBF0FBECDBF26
S11305B0182F80913401909135019A838983FE012B
S11305C0339688E0DF011D928A95E9F74F3FBFEF2C
S11305D05B076B077B07E9F080910801882331F002
S11305E021E0CE0101960E94ED1513C07F936F9315
S11305F05F934F938FEC93E09F938F93CE0101967B
S11306009F938F930E947D210FB6F894DEBF0FBE97
S1130610CDBF133009F440C0123009F440C011308A
S113062009F040C02BE394E2809108018823C1F0D3
S113063080E091E09F938F93CE0101969F938F93D7
S113064085EF93E09F938F9381E896E09F938F9338
S11306500E947D210FB6F894DEBF0FBECDBF18C037
S11306601F922F939E012F5F3F4F3F932F931F9213
S11306709F9381E094E09F938F9381E896E09F930A
S11306808F930E947D210FB6F894DEBF0FBECDBFBD
S113069081E896E0FDDD06C02BE391E2C5CF2FE3B0
S11306A094E2C2CF2A960FB6F894DEBF0FBECDBF38
S11306B0DF91CF911F9108950F931F93CF93DF93F1
S11306C000D000D000D0CDB7DEB720913E013091EC
S11306D03F013A8329830091400110914101209107
S11306E04201309143010B831C832D833E836111AE
S11306F003C094E5998336C0613009F05CC09DE481
S1130700998330C0242F30E0A901440F551F220FD4
S1130710331F220F331F220F331F420F531F5F93C8
S11307204F938CEC93E09F938F93CE0103969F930A
S11307308F930E947D210F900F900F900F900F9038
S11307400F9009C04D3038F44C3019F48BE28B8390
S113075002C08DE28B83133049F0123051F0113016
S113076051F50AC0182F4B3068F7CCCF8BE321E248
S113077005C08FE324E202C08BE324E21F928F932F
S1130780CE0103969F938F9302979F938F931F920B
S11307902F938CE094E09F938F9381E896E09F934E
S11307A08F930E947D2181E896E072DD0FB6F89464
S11307B0DEBF0FBECDBF26960FB6F894DEBF0FBEC8
S11307C0CDBFDF91CF911F910F910895FF920F93A9
S11307D01F93CF93DF9300D000D0CDB7DEB7833023
S11307E061F0823089F011E0813009F010E00F2EC1
S11307F0FBE3FF2EF02D04E20DC00F2EFBE3FF2ED2
S1130800F02D01E211E006C00F2EFFE3FF2EF02DC4
S113081004E211E080910801882361F0662319F055
S11308206DE174E002C06AE174E0CE0101960E94B9
S1130830592112C01F926F938CEC93E09F938F9376
S1130840CE0101969F938F930E947D210F900F906C
S11308500F900F900F900F901123B1F18091080128
S11308608823C1F080E091E09F938F93CE0101969D
S11308709F938F9381E294E09F938F9381E896E016
S11308809F938F930E947D210FB6F894DEBF0FBE15
S1130890CDBF17C01F92FF92CE0101969F938F93F5
S11308A01F920F938CE294E09F938F9381E896E0DC
S11308B09F938F930E947D210FB6F894DEBF0FBEE5
S11308C0CDBF81E896E0E4DC0F900F900F900F907D
S11308D0DF91CF911F910F91FF9008951F93CF93B4
S11308E0DF9300D000D0CDB7DEB7162F4091400182
S11308F050914101609142017091430149835A83AF
S11309006B837C831F928F938CEC93E09F938F93E4
S1130910CE0101969F938F930E947D210F900F909B
S11309200F900F900F900F90112311F08FE301C0DF
S11309308BE31F928F93CE0101969F938F931F9207
S113094084E28F9387E394E09F938F9381E896E00A
S11309509F938F930E947D2181E896E099DC0FB6E6
S1130960F894DEBF0FBECDBF0F900F900F900F9085
S1130970DF91CF911F9108950F931F93CF93DF932E
S1130980CDB7DEB728970FB6F894DEBF0FBECDBF44
S1130990962F142F409140015091410160914201E2
S11309A07091430149835A836B837C834D835E83B7
S11309B06F837887833011F401E201C004E2992344
S11309C091F01F929F938CEC93E09F938F93CE01B1
S11309D001969F938F930E947D210F900F900F900B
S11309E00F900F900F90112391F01F921F938CEC96
S11309F093E09F938F93CE0105969F938F930E94CC
S1130A007D210F900F900F900F900F900F90CE01BB
S1130A1005969F938F9304979F938F931F920F93A1
S1130A2082E494E09F938F9381E896E09F938F9361
S1130A300E947D2181E896E02BDC0FB6F894DEBF9E
S1130A400FBECDBF28960FB6F894DEBF0FBECDBF44
S1130A50DF91CF911F910F91089586E0EEE4F4E0C9
S1130A60A1E8B6E001900D928A95E1F781E896E05D
S1130A700FCC0895CF93DF9300D000D000D0CDB732
S1130A80DEB720913401309135013A832983FE0188
S1130A90339624E0DF011D922A95E9F79F938F9303
S1130AA08CEC93E09F938F93CE0101969F938F9349
S1130AB00E947D21809108010F900F900F900F905C
S1130AC00F900F908823C1F080E091E09F938F9363
S1130AD0CE0101969F938F9384E594E09F938F9327
S1130AE081E896E09F938F930E947D210FB6F8943E
S1130AF0DEBF0FBECDBF14C0CE0101969F938F936E
S1130B008FE594E09F938F9381E896E09F938F9372
S1130B100E947D210F900F900F900F900F900F90D7
S1130B2081E896E0B5DB26960FB6F894DEBF0FBEDB
S1130B30CDBFDF91CF910895CF93DF9300D000D044
S1130B4000D0CDB7DEB720913401309135013A831E
S1130B502983FE01339624E0DF011D922A95E9F7EB
S1130B609F938F938CEC93E09F938F93CE01019688
S1130B709F938F930E947D21809108010F900F9085
S1130B800F900F900F900F908823C1F080E091E0B8
S1130B909F938F93CE0101969F938F9386E694E063
S1130BA09F938F9381E896E09F938F930E947D217A
S1130BB00FB6F894DEBF0FBECDBF14C0CE010196B0
S1130BC09F938F9382E794E09F938F9381E896E0BD
S1130BD09F938F930E947D210F900F900F900F9001
S1130BE00F900F9081E896E053DB26960FB6F894A9
S1130BF0DEBF0FBECDBFDF91CF910895CF93DF93BA
S1130C0000D000D000D0CDB7DEB7209134013091B0
S1130C1035013A832983FE01339624E0DF011D92D6
S1130C202A95E9F79F938F938CEC93E09F938F938E
S1130C30CE0101969F938F930E947D21809108019C
S1130C400F900F900F900F900F900F908823C1F08A
S1130C5080E091E09F938F93CE0101969F938F93B1
S1130C6089E794E09F938F9381E896E09F938F9315
S1130C700E947D210FB6F894DEBF0FBECDBF14C015
S1130C80CE0101969F938F9383E894E09F938F9373
S1130C9081E896E09F938F930E947D210F900F909F
S1130CA00F900F900F900F9081E896E0F1DA26965E
S1130CB00FB6F894DEBF0FBECDBFDF91CF9108957C
S1130CC00F931F93CF93DF9300D000D000D0CDB704
S1130CD0DEB78B0120913401309135013A832983A9
S1130CE0FE01339624E0DF011D922A95E9F79F93D4
S1130CF08F938AE894E09F938F93CE0101969F93FC
S1130D008F930E947D21809108010F900F900F9086
S1130D100F900F900F908823A9F101151105D1F0C0
S1130D2080E091E09F938F93CE0101969F938F93E0
S1130D301F930F938DE894E09F938F9381E896E03F
S1130D409F938F930E947D210FB6F894DEBF0FBE50
S1130D50CDBF30C080E091E09F938F93CE01019688
S1130D609F938F9380EE93E09F938F9381E896E017
S1130D709F938F930E947D210FB6F894DEBF0FBE20
S1130D80CDBF18C001151105A9F0CE0101969F939E
S1130D908F931F930F9387E994E09F938F9381E838
S1130DA096E09F938F930E947D210FB6F894DEBF47
S1130DB00FBECDBF81E896E06BDA26960FB6F894A5
S1130DC0DEBF0FBECDBFDF91CF911F910F9108956C
S1130DD0A89504B603FE03C094B7987094BF8130FD
S1130DE041F4E0E6F0E090819861908398E6908386
S1130DF011C0811108C0E0E6F0E090819861908311
S1130E0096E4908307C0E0E6F0E0908198619083D7
S1130E1098E4908391E0811101C090E09093F806EA
S1130E2008951F920F920FB60F9211244F925F9262
S1130E306F927F928F929F92AF92BF92CF92DF92E6
S1130E40EF92FF920F932F933F934F935F936F9380
S1130E507F938F939F93AF93BF93EF93FF93CF931E
S1130E60DF931F92CDB7DEB780911F0790912007C3
S1130E7001969093200780931F078091120190910F
S1130E801301892B49F0809112019091130101976C
S1130E90909313018093120180910E0190910F01A0
S1130EA0892B49F080910E0190910F010197909345
S1130EB00F0180930E0180911A0790911B07892BD3
S1130EC049F080911A0790911B07019790931B0793
S1130ED080931A078091100190911101892B49F098
S1130EE080911001909111010197909311018093C9
S1130EF0100180911507882359F080911307909170
S1130F001407009729F0019790931407809313070F
S1130F1080911B01882319F0815080931B018091DB
S1130F20220790912307892BF9F08091F70681110C
S1130F3007C084B5806184BD81E08093F70614C046
S1130F408091220790912307019790932307809320
S1130F5022078091220790912307892B29F484B5D5
S1130F608F7E84BD1092F7068091F606882341F0A7
S1130F70409B02C0409826C0409A1092F60622C0B8
S1130F8090911A0180910C079817E1F08091F9066D
S1130F908823C1F0409B409A90911A0180910C07DC
S1130FA0891738F4419880911A01815080931A016D
S1130FB006C0419A80911A018F5F80931A0181E0E3
S1130FC08093F6068091F50681115FC08FEF8093C0
S1130FD0F40619828981833008F044C120E09FEF30
S1130FE031E0E981F0E0EE0FFF1FEC5EFE4F40813F
S1130FF05181452B61F0E981F0E0EE0FFF1FEC5EBB
S1131000FE4F408151814150510951834083E98110
S1131010F0E0EE0FFF1FEC5EFE4F40815181452B47
S113102011F49981232F89818F5F8983898183308A
S1131030C0F2222309F416C19093F40699230CF408
S113104011C1892F990F990B9C01220F331FF901AC
S1131050E259FC4F40815181F901EC5EFE4F51830E
S11310604083ECE7F0E02081207FDC01AC58BC4FEA
S11310709C91822F892B8083EAE7F0E08081806451
S1131080808381E08093F506EDC080917A0086FD2F
S1131090E9C02091780030917900A4EEBCE00E9470
S11310A0A8204B015C01072E7AE0B694A79497948C
S11310B087947A95D1F7702D64014091F406E42E5B
S11310C0042E000CFF08F701EE0FFF1FE250F94F4A
S11310D0208131812815390520F4D401A21BB30BDA
S11310E003C0D901A819B90951E0F701EC5FF84F21
S11310F05083413091F5F701EE0FFF1FE859FC4F83
S1131100408151814A175B0758F4F701EE0FFF1F26
S1131110EC5EFE4F24E630E031832083940199C0D5
S11311202C153D0518F42F5F3F4F04C0AB2B11F075
S11311302150310981E080931E07223883E038076B
S113114018F010921D0185C0243C81E0380708F492
S113115080C081E080931D017CC0423009F079C0D9
S1131160A333B105B8F02C153D0538F0A536B1050B
S113117020F469018AE0C81AD108C601A0E0B0E0F1
S11311808093FA069093FB06A093FC06B093FD06A9
S113119096015FC02C153D0540F0AB2B29F0690189
S11311A081E0C81AD10801C069018091FA069091C2
S11311B0FB06A091FC06B091FD06880F991FAA1F9B
S11311C0BB1F880F991FAA1FBB1F880F991FAA1F37
S11311D0BB1F8093FA069093FB06A093FC06B09382
S11311E0FD068091FA069091FB06A091FC06B09151
S11311F0FD068C0D9D1DA11DB11D8093FA069093D3
S1131200FB06A093FC06B093FD066091FA0670916C
S1131210FB068091FC069091FD0629E33EE843EE2F
S113122058E30E94C12000E20E94EA20422E532E7D
S1131230642E752ED301C201B695A795979587950F
S11312408093FA069093FB06A093FC06B093FD06E8
S11312509601F701EE0FFF1FE250F94F318320830F
S11312601092F5060F90DF91CF91FF91EF91BF910E
S1131270AF919F918F917F916F915F914F913F912A
S11312802F910F91FF90EF90DF90CF90BF90AF9090
S11312909F908F907F906F905F904F900F900FBEB4
S11312A00F901F9018951F920F920FB60F92112452
S11312B08F939F9380911907882381F096B1809131
S11312C00B01892796B190930B01882339F082FF93
S11312D005C0329903C081E0809324079F918F91C8
S11312E00F900FBE0F901F9018951F920F920FB67C
S11312F00F921124CF92DF92EF92FF921F932F93BC
S11313003F934F935F936F937F938F939F93AF9389
S1131310BF93CF93DF93EF93FF931091C600C091D7
S1131320F206D091F306209751F40E94A200EC013A
S11313309093F3068093F206892B09F43BC28091C3
S11313401C01882309F437C1812F90E00E945121A8
S11313509091F106992321F091509093F1062AC2BD
S1131360182F8B3169F4E091F006E53128F4F0E0B0
S1131370E552F94F108101C010E082E08093F1063C
S11313801D3009F049C088E893E1909313018093DC
S113139012018091DA06882331F1E091F006EE2300
S11313A0F9F082E088838091D6069091D7069A83DB
S11313B089838091D506882379F090E00197409144
S11313C0D40655E1589F9001599F300D1124C20F46
S11313D0D31FC40FD11D1B82F0E0E552F94F1082D8
S11313E00E94710104C08FEF9FEF9A83898310924A
S11313F0F0061092D4061092D6061092D7061092D8
S1131400D8061092D9061092D5061092F3061092BF
S1131410F2061092DA06CEC1112309F4CBC18091F1
S1131420F006282F30E0F901E552F94F10838823A4
S113143009F4A1C01F37D9F581508093F00690912B
S1131440D506911122C0E82FF0E0E552F94F208132
S11314508091D6069091D706A091D806B091D9066E
S1131460BC01CD01621B7109810991092AE030E0B8
S113147040E050E00E946A202093D6063093D706BD
S11314804093D8065093D90692C08091D4068823FD
S113149021F081508093D4068AC085E1989FC00DC5
S11314A0D11D11241B8291509093D50680C0103217
S11314B011F5F901E652F94F9081903209F46CC1AB
S11314C09091D506992389F0492F50E04150510954
S11314D06091D40675E1749F9001759F300D1124BD
S11314E0C20FD31FC60FD11D1B829F5F9093D506D9
S11314F01092D40655C12091D506211127C04091E0
S1131500D6065091D7066091D8067091D906440F3B
S1131510551F661F771F6A017B01CC0CDD1CEE1C76
S1131520FF1CCC0CDD1CEE1CFF1C4C0D5D1D6E1D48
S11315307F1D410F511D611D711D4093D6065093AF
S1131540D7066093D8067093D9062AC19091D40621
S113155031E0390F3093D40630E02150310965E190
S1131560629FA001639F500D1124C40FD51FC90FA2
S1131570D11D1B8315C11F3709F41CC1103209F496
S113158019C11092D506812F90E0A0E0B0E08093BD
S1131590D6069093D706A093D806B093D9061B829B
S11315A0188E1DA681E08093DA068093F006812FC1
S11315B00E94D001FFC0143209F4CBC01132D1F41F
S11315C0CCC088831092D4061092D6061092D70607
S11315D01092D8061092D90681E08093DA061B8215
S11315E0188E1DA61092D5068091F0068F5F809309
S11315F0F006E0C08091DA06882309F483C01C3227
S113160031F01B3309F4BEC01F33E9F5B0C080913B
S1131610D506882309F4C8C0282F30E021503109A9
S11316209091D40645E1429FF001439FF00D1124AF
S1131630EC0FFD1FE90FF11D13828F5F8093D50618
S11316401092D4061B3369F48091F006843030F094
S11316508091D6069091D7069A8389831092DA06F0
S113166096C01F3309F069C082E088838091F00638
S1131670843030F08091D6069091D7069A8389837E
S11316801092DA0684C08091D506811127C080911A
S1131690D6069091D706A091D806B091D906880FA6
S11316A0991FAA1FBB1FAC01BD01440F551F661F24
S11316B0771F440F551F661F771F840F951FA61FA2
S11316C0B71F810F911DA11DB11D8093D606909364
S11316D0D706A093D806B093D9062FC04091D4065C
S11316E091E0940F9093D40690E0019755E1589FB0
S11316F09001599F300D1124C20FD31FC40FD11D67
S11317001B831BC01D30C9F480911807811115C0BB
S113171081E794E29A8389831092D4061092D606C4
S11317201092D7061092D8061092D9061092D506B8
S11317301092F3061092F20607C08091F0068F5FB4
S11317408093F0068B34B0F11092DA061092F00612
S113175031C01092F00681E034CF1092F00683E09D
S113176030CF81E08093D5061092D4067DCF80914E
S1131770D5068823B1F350CF81E08093D50610922B
S1131780D40662CF8091D506811146CFF5CF109251
S1131790F3061092F206D1CF8F5F8093F0060AC051
S11317A08F5F8093F00603CF81E08093D50610927B
S11317B0D406C3CFFF91EF91DF91CF91BF91AF9149
S11317C09F918F917F916F915F914F913F912F9155
S11317D01F91FF90EF90DF90CF900F900FBE0F906E
S11317E01F9018951F920F920FB60F9211242F93EA
S11317F03F934F935F936F937F938F939F93AF9395
S1131800BF93EF93FF938091D2069091D306892BD7
S113181031F40E9452009093D3068093D206E09153
S1131820D206F091D3068091D106DF01A80FB11D35
S11318309C91992331F08F5F8093D1069093C600D9
S11318400DC01092D10610820E9452009093D306CC
S11318508093D206892B11F40E941101FF91EF911C
S1131860BF91AF919F918F917F916F915F914F91B4
S11318703F912F910F900FBE0F901F90189560917C
S11318800B0781E090E00E94C01560910C0780E096
S113189090E00C94C01508951F920F920FB60F920A
S11318A011242F933F934F935F936F937F938F9361
S11318B09F93AF93BF93EF93FF9310922F01DFDFBA
S11318C08091F806811109C080910A01882389F06A
S11318D0E0E6F0E080818064808380910A018823BF
S11318E041F0815080930A0180911C0181110E9472
S11318F06901FF91EF91BF91AF919F918F917F917A
S11319006F915F914F913F912F910F900FBE0F9068
S11319101F90189582E090E00E941E24853A69F495
S113192081E090E00E941E2480930B0780E090E009
S11319300E941E2480930C07089585E080930B0772
S11319408BE080930C079BDF65EA82E090E00C94C7
S11319502B240895009709F441C08731910590F430
S113196040E05AE0849F9001859F300D949F300D94
S1131970112480E09FEFAC01421B530B9A018FEFBF
S113198090E029C08932910578F487599F4F9C01D2
S1131990322F2227330F80E093E2AC01421B530B1A
S11319A09A018FEF90E017C041E0489F9001499F52
S11319B0300D381B112424563C49A9EDBAE80E9485
S11319C0A82096958795929582958F7089279F7008
S11319D0892720E030E0820F931F089580E090E093
S11319E00895CF93DF93CDB7DEB760970FB6F89421
S11319F0DEBF0FBECDBF8EDF209A85B1856085B96D
S1131A0082EE8AB98CE18BB983E087B984E388B923
S1131A100E9435019CE097BD84B5826084BD85B584
S1131A20856085BD9093B300E0EBF0E08081826037
S1131A308083E1EBF0E0808187608083E0E7F0E081
S1131A40808184608083ECE7F0E08081806480831F
S1131A50EAE7F0E0808187688083E8E6F0E080814F
S1131A6087608083EDE6F0E080818C618083ECE622
S1131A70F0E0808184608083EBE6F0E08081846024
S1131A808083789484E893E090930F0180930E010F
S1131A9080E09ED924D780910A070E948119A895D5
S1131AA080910B079FEE899F802D112481500E9405
S1131AB0B717A89580911C01882339F00E94710101
S1131AC00E9475010E946D010CC00E942D050E94A8
S1131AD0FE008111FCCFA89540E062E081E00E9405
S1131AE0BC04A8950E94FE008111FCCF10921B0734
S1131AF010921A0781E06CD981E080931907212C98
S1131B00312CCC24C3940F2EFEEFAF2EF6E0BF2E63
S1131B10F02D6894882482F8992494F844244A94F3
S1131B20542C320101C0180180912107882379F0D7
S1131B308091210781508093210780912107811191
S1131B4006C084E690E09093230780932207F894DC
S1131B50A895789480911E07882309F4A7C4F501F9
S1131B60828193818D33914008F071C08091F90690
S1131B70882309F46CC08091100190911101892B84
S1131B8009F094C48091250781110AC081E08093F3
S1131B9025075E9888E893E19093130180931201DE
S1131BA08FEF9FEF90930D0180930C0180911C01A6
S1131BB0882371F180911201909113019C01220FED
S1131BC0331F880F991F880F991F880F991F280F9B
S1131BD0391F369527953695279536952795A7E38A
S1131BE0BAE10E94A8208C010024000F111F001CE0
S1131BF0000F111F001C012F102D8091D00680179B
S1131C0039F0802F0E94D7010E946D010093D00605
S1131C108091120190911301892B09F047C42FDEA2
S1131C20299888E893E1909313018093120180919D
S1131C30120190911301892B31F0F5018281938176
S1131C40843C9140A0F3A895109225072FC4F50178
S1131C5082819381843C9140E8F081E08093F9068D
S1131C6084E690E0909311018093100188E293E25E
S1131C7090930F0180930E0188E893E190931301F0
S1131C8080931201299A5E9911C45E9A8BE0809325
S1131C901A010CC480910E0190910F01892B09F057
S1131CA005C480912507811109C081E0809325072F
S1131CB088E893E1909313018093120180911201BB
S1131CC090911301892B09F0F1C329985E98F501CD
S1131CD082819381843C9140D0F3A895E7C3F801B5
S1131CE0818192818E31F3E09F0709F450C220F57F
S1131CF08F34910509F4CAC060F48134910509F464
S1131D0082C08234910509F465C3CF9709F0BDC33D
S1131D106DC38235910509F4C1C328F4803591055A
S1131D2009F4C5C0B2C38335910509F459C3843598
S1131D30910509F4B3C3A9C3893B42E2940759F15D
S1131D40A8F4883BECE19E0709F422C328F4813906
S1131D50934009F493C099C388314DE1940709F481
S1131D6045C2813D9E4109F4D4C08FC3873FE3E25D
S1131D709E0709F49FC028F48A39934209F47AC073
S1131D8084C3813744E2940709F4E5C28A3F94424C
S1131D9009F449C27AC3A0D5F82EF80183818823B7
S1131DA011F1C80103960E942B21862FF11018C04F
S1131DB061110AC080910A078F7D80930A07809180
S1131DC00A070E94811911C0613079F480910A07D1
S1131DD0806280930A0780910A070E94811905C0D6
S1131DE00E94C81708C0F11006C080910A0785FB3D
S1131DF0882780F902C00E94DF1760E070E090E05D
S1131E000E9460064BC3F8018381882351F1C80105
S1131E1003960E940E217C018536910528F00F2E31
S1131E20F4E6EF2EF12CF02DC70194DD0E94651924
S1131E30F0920E07E0920D07EF2851F080910A0707
S1131E40846080930A0780910A070E94811909C05F
S1131E5080910A078B7F80930A0780910A070E946A
S1131E60811980910D0790910E0760E070E00E9447
S1131E70600614C382E00E94E806FFCF81E09091DF
S1131E801507911180E08093150708C3F801838139
S1131E90882329F0C80103960E942B2132D648D604
S1131EA0AB01BC0120E083E00E940B02F7C24CD5D9
S1131EB0E6DCF4C2F8018381882309F4EFC24D867D
S1131EC05E866F86788A80911C018823A9F08581BB
S1131ED08A3319F480858A3339F0F80184818A338E
S1131EE099F487818A3381F4C8010396D2D76D8728
S1131EF07E878F87988B08C0C80103960E942B2188
S1131F006D877E878F87988B8D859E85AF85B889F1
S1131F10C5C2F8018381882309F416C18D3409F000
S1131F20F8C0C80104960E940E217C0119861A8605
S1131F301B861C86D1D4FF24F3E0EF16F10429F1AB
S1131F404CF441E0E416F10471F052E0E516F104BA
S1131F5099F036C094E0E916F10401F1E5E0EE16DB
S1131F60F10429F12DC0882371F10F2EF9E2EF2E2F
S1131F70F0E0FF2EF02D49C0882361F10F2EFDE221
S1131F80EF2EF0E0FF2EF02D40C0882351F10F2EEC
S1131F90F1E3EF2EF0E0FF2EF02D37C0882341F15E
S1131FA00F2EF5E3EF2EF0E0FF2EF02D2EC0882348
S1131FB031F10F2EF9E3EF2EF0E0FF2EF02D25C0C6
S1131FC0E12CF12C22C00F2EF5E1EF2EF0E0FF2ED4
S1131FD0F02D1BC00F2EF9E1EF2EF0E0FF2EF02DB7
S1131FE014C00F2EFDE1EF2EF0E0FF2EF02D0DC0FA
S1131FF00F2EF1E2EF2EF0E0FF2EF02D06C00F2E93
S1132000F5E2EF2EF0E0FF2EF02DE114F10409F4D7
S113201076C01D821E821F82188680911C0188232F
S113202081F0F801908D992361F0C80148960E94CF
S11320302B216D837E838F83988781E0F8018083D1
S113204029C0F8019081923001F5C7010E9426242D
S113205069877A878B879C87672B682B692B09F4A0
S113206050C0CE01099621D3882309F44CC0898538
S11320709A85AB85BC8580930F0790931007A09336
S11320801107B093120721E069C0913009F03DC0F7
S1132090882319F18D819E81AF81B88589839A83C4
S11320A0AB83BC83CE01019600D3882389F0898158
S11320B09A81AB81BC8180930F0790931007A09302
S11320C01107B093120789879A87AB87BC870AC028
S11320D019861A861B861C8605C083D369877A876E
S11320E08B879C8749855A856B857C85411551056D
S11320F06105710561F0C70154D521E02FC020E0CE
S11321002DC021E02BC021E029C021E027C021E01F
S113211025C0C80103960E942B2169837A838B838F
S11321209C83CE010196C1D2882361F089819A8172
S1132130AB81BC8180930F0790931007A093110784
S1132140B093120720E00AC04CD360930F0770933A
S11321501007809311079093120720E080910F07D6
S113216090911007A0911107B0911207892B8A2B27
S11321708B2B09F493C140910F0750911007609184
S113218011077091120783E00E940B0287C1F801C6
S11321908381882309F482C1C80103960E940E2119
S11321A0F82E80931807F801808D882331F0C80138
S11321B048960E940E21823059F04F2D62E083E050
S11321C00E94BC0490921B0780921A07C12C66C11E
S11321D0C11005C04F2D62E083E00E94BC04109240
S11321E01B0710921A07CC24C39458C1F8018381A9
S11321F0882371F0C80103960E940E218035910551
S113220019F481E017D304C0029711F480E012D3CB
S113221063D3F8019081923009F040C1682F83E0C4
S11322200E94E6033BC1F8018381843509F428C286
S11322308D3409F033C126C28B3209F42AC28D329F
S113224009F42BC2C80148960E940E21D1104FC038
S11322509923B4F422E005C021E003C02FEF01C0AC
S113226020E080910B0790E0213029F48F30910514
S11322703CF4019605C02F3F19F4009709F001972B
S1132280992314F480E090E07C0140972CF00F2E09
S1132290FFE0EF2EF02DF12C80910B0790E08E15CE
S11322A09F0541F08FEE8E9D802D112481505FD6C5
S11322B0E0920B0784E180932107E1DA80911C010D
S11322C0811136C03DC080910C078F30F0F48091AD
S11322D00C078F5F80930C0718C080910C0788232C
S11322E0A1F080910C07815080930C070EC08031BF
S11322F0910524F08FE080930C0707C099231CF408
S113230010920C0702C080930C0784E1809321078C
S1132310B6DA80911C01882399F021E0D21208C01A
S113232080910C076FE974E090E00E94ED01B6C063
S113233080910B0768EA74E090E00E94ED01AEC062
S1132340F8018081823009F0AEC04DE06D2D83E04C
S11323500E945C03A3C081E090911C01911180E074
S113236080931C010E94BF0180911C01882309F401
S11323709AC0109217071092160710921B0710921A
S11323801A0781EB94E00E94B201CC24C39486C066
S1132390C80103960E940E21F8012081223061F4C5
S11323A02091160730911707A901482BCA01909371
S11323B017078093160772C09927809590952091EE
S11323C0160730911707822393239093170780935E
S11323D0160764C0F501828193810E943A055EC0AC
S11323E0F501848195810E949C0558C0F894A895B4
S11323F0789482EB94E00E94B2016ED2682F83E05D
S11324000E94E603EED1AB01BC0120E083E00E9410
S11324100B028ED3AB01BC0120E083E00E940B02CF
S113242080910D0790910E0764EB74E00E94ED011A
S113243080910A0768EB74E085FB882780F990E0B7
S11324400E94ED0180910C076FE974E090E00E9416
S1132450ED0180910B0768EA74E090E00E94ED01C1
S1132460F894A8957894F501828193810E943A05A5
S1132470F501848195810E949C0581EB94E00E9482
S1132480B201F894A895789409C080911C0188231E
S113249019F00E94750102C00E941D0180911C0167
S11324A081110E946D01F801128211820E94D000F4
S11324B08C01892B09F013CC80912407882329F0FF
S11324C010922407CE01019620D700911F07109186
S11324D020072016310609F426CB00911F0710911E
S11324E0200780911507882309F452C080911307AF
S11324F090911407892B09F04BC04091FA06509132
S1132500FB066091FC067091FD068091CE069091C9
S1132510CF06A0E0B0E084179507A607B707C1F17E
S11325206091FA067091FB068091FC069091FD067D
S11325302AE030E040E050E00E946A208091CC061E
S11325409091CD0682179307B9F03093CD0620936E
S1132550CC0684E690E09093140780931307C90196
S1132560880F991F220F331F220F331F220F331F8F
S1132570820F931F0E949C058091FA069091FB069E
S1132580A091FC06B091FD069093CF068093CE06F1
S113259080911B01811158C08091160790911707F3
S11325A0009709F451C080FF1BC080910507882360
S11325B0B9F0F5012281338126523F4FA8EEB3E0F2
S11325C00E94A8202FED30E040E050E00E946A20F5
S11325D0C9010E943A051092050784E680931B0105
S11325E08091160781FF0EC080910607882351F061
S11325F0F501848195810E949C051092060784E66A
S113260080931B018091160782FF1EC080910407EE
S11326108823D1F010920407F50160817181CB0108
S1132620A0E0B0E0BC01CD01675F7F4F8F4F9F4FAB
S113263024E630E040E050E00E946A20C9010E9494
S1132640FE0584E680931B0180911A0790911B0775
S1132650892B09F068CAC11066CA809109018823D0
S113266009F461CA81508093090190921B078092FA
S11326701A074091180762E081E00E94BC0453CA23
S1132680D12C02C0DD24D394F801808D8111D4CDE6
S113269008C0DD2009F4E0CD16CEDD2009F4DECD3E
S11326A01CCEDD2009F4DCCD30CE0F931F93FC014A
S11326B040815181628173818A019B01015E1746C9
S11326C0254331090F31114A2740310568F54093FC
S11326D0220150932301609324017093250180917A
S11326E02E0181FF06C040525B4B6C457F4F91E049
S11326F070C0413E04E4500703EA6007710530F0FE
S1132700405E5444634A710991E063C080EE94E4EE
S1132710A3EAB0E08C019D01041B150B260B370BBB
S1132720B901A80191E055C08A019B0101501444EC
S1132730254938400F3F18402D43310508F042C069
S113274040931E0150931F01609320017093210157
S113275080912E0180FF06C040525B4B6C457F4F39
S113276090E037C0413EF4E45F07F3EA6F07710578
S113277030F0405E5444634A710990E02AC080EE10
S113278094E4A3EAB0E08C019D01041B150B260B15
S1132790370BB901A80190E01CC0809126019091EB
S11327A02701A0912801B09129018A019B01081BEE
S11327B0190B2A0B3B0BC901B80140E00E94341FDE
S11327C081E00CC0FC01108211821282138280E02D
S11327D005C080912707891701F380E01F910F91AD
S11327E00895809126078823D1F0809127078111CD
S11327F009C060911E0170911F0180912001909188
S11328002101089580912707813069F460912201A4
S1132810709123018091240190912501089560E035
S113282070E0CB01089560E070E0CB0108958093DF
S11328302E010895CF93DF93CDB7DEB729970FB656
S1132840F894DEBF0FBECDBF898789858130E1F45E
S11328508985809327078BE290E02BE230E0F90131
S113286020812068FC012083809122019091230122
S1132870A0912401B091250189839A83AB83BC8301
S1132880CE01019612DF1EC089858823D9F489857B
S1132890809327078BE290E02BE230E0F90120815E
S11328A02F77FC01208380911E0190911F01A0913C
S11328B02001B09121018D839E83AF83B887CE011F
S11328C00596F3DE000029960FB6F894DEBF0FBE1E
S11328D0CDBFDF91CF91089580912707089540E0FF
S11328E050E0BA0180E40E946B1D30D080EE94E485
S11328F0A3EAB0E080932A0190932B01A0932C01CA
S1132900B0932D018091270795DF60912A01709182
S11329102B0180912C0190912D0142E00E94341FE3
S113292060E082E00E940A1E61E082E00E94D91DFC
S113293060E080E00E940A1E61E080E00E94D91DF0
S113294081E0809326070895AFC0089583E090E066
S11329500E941E24853A59F588E090E00E941E24C6
S11329608093270789E090E00E94262460931E014B
S113297070931F0180932001909321018DE090E0DA
S11329800E942624609322017093230180932401E2
S11329909093250181E190E00E9426246093260112
S11329A0709327018093280190932901089540E9A9
S11329B054E169E978E085E190E00E94392440EE31
S11329C057ED69E978E089E190E00E94392440E319
S11329D05BE96AE978E08DE190E00E94392440E8FF
S11329E05EE56BE978E081E290E00E94392440EDF5
S11329F051E26CE978E085E290E00E9439244CE6EB
S1132A005EE966E370E089E290E00E94392440E4E4
S1132A1052E566E370E08DE290E00E94392448ECD0
S1132A2055E666E370E081E390E00E94392440E5D6
S1132A3059E766E370E085E390E00E94392448EDAD
S1132A405CE866E370E089E390E00E94392465EA7B
S1132A5083E090E00E942B241092270780E399E200
S1132A60ADEAB8E080931E0190931F01A09320016A
S1132A70B093210180E39BE2A6E3B0E080932201BE
S1132A8090932301A0932401B093250184EF91E056
S1132A90A0E0B0E08093260190932701A093280141
S1132AA0B093290101C008956091270788E090E060
S1132AB067D040911E0150911F01609120017091D7
S1132AC0210189E090E06DD04091220150912301D1
S1132AD060912401709125018DE090E062D04091D5
S1132AE0260150912701609128017091290181E10B
S1132AF090E057D078D4AB01BC0184E090E051C0A1
S1132B000895613D27E072078105910578F4DC01A1
S1132B10CB018093260190932701A0932801B093C1
S1132B2029018091270786DE81E0089580E00895D9
S1132B3060912601709127018091280190912901CB
S1132B4008950F931F938B019C0114542549384019
S1132B50013019402D43310568F0DC01CB01805E62
S1132B609746A543B1098132914AA740B10520F4A3
S1132B7081E003C080E001C082E01F910F910895BD
S1132B801F93CF93DF93EC01162F0E941E2481170D
S1132B9021F0612FCE010E942B24DF91CF911F9150
S1132BA00895CF92DF92EF92FF92CF93DF93EC01DF
S1132BB06A017B010E9426246C157D058E059F0504
S1132BC029F0B701A601CE010E943924DF91CF91EB
S1132BD0FF90EF90DF90CF9008954F925F926F92A5
S1132BE07F928F929F92AF92BF92CF92DF92EF9299
S1132BF0FF920F931F93CF93DF93EC016A017B0144
S1132C00622E83E028137EC077233CF490E8C90E3B
S1132C1091E5D91E91E0E91EF11CE0E7CE16E7E14B
S1132C20DE06E104F1042CF41D826894772472F822
S1132C30CEC0F0E6CF16FAEEDF06E104F104ECF4C0
S1132C40C701B6012CE330E040E050E00E948C2044
S1132C505F934F933F932F938CEB94E09F938F93C9
S1132C60DF93CF930E947D21EDB7FEB738960FB660
S1132C70F894FEBF0FBEEDBFFBC00F2EF0E18F2E08
S1132C80FEE09F2EA12CB12CF02DC701B601A501A9
S1132C9094010E948C20122F032FF42EE52EDC01C8
S1132CA0CB01880F991FAA1FBB1F2C013D01440CA7
S1132CB0551C661C771C440C551C661C771CBC01F7
S1132CC0CD01640D751D861D971DA50194010E94FB
S1132CD08C205F934F933F932F93EF92FF920F9328
S1132CE01F9382EC94E09F938F93DF93CF930E9482
S1132CF07D21EDB7FEB73C960FB6F894FEBF0FBE2C
S1132D00EDBFB6C077237CF4F094E094D094C094E3
S1132D10C11CD11CE11CF11C19868DE288836894C6
S1132D20772473F854C018860F2EF7E07F2EF02D09
S1132D304EC0C50DD11DCA01B9012AE030E040E002
S1132D4050E00E948C20605D688392C08E01050D66
S1132D50111DCA01B90126E030E040E050E00E94B4
S1132D608C20605DF80160838BEF870DFE01E80F16
S1132D70F11D8AE38083C701B60120E13EE040E013
S1132D8050E00E948C20CA01B90128E130E040E003
S1132D9050E00E948C208AEF870DFE01E80FF11DA0
S1132DA08DEC689F812D1124869586958695282F14
S1132DB0220F922F990F990F920F691B605D608308
S1132DC099EF970DC90FD11D805D888351C08E0185
S1132DD0070D111D0F2EFAE08F2E912CA12CB12C72
S1132DE0F02DC701B601A50194010E948C20605DFD
S1132DF0F80160838FEF870D8E01080F111DCA0142
S1132E00B90126E030E040E050E00E948C20605D93
S1132E10F80160838EEF870DFE01E80FF11D8AE350
S1132E2080830F2EFCEF5F2EF02D570C8DEF870D56
S1132E308E01080F111DC701B6012CE330E040E0FC
S1132E4050E00E948C20CA01B901A50194010E949E
S1132E508C20605DF8016083C701B60128E532E08B
S1132E6040E050E00E948C20F3E06F126FCF61CFFE
S1132E70DF91CF911F910F91FF90EF90DF90CF9052
S1132E80BF90AF909F908F907F906F905F904F9086
S1132E9008958F929F92AF92BF92FF920F931F93C8
S1132EA0CF93DF9300D01F92CDB7DEB78C011B8286
S1132EB01A82FC018181908199838A3329F08A8363
S1132EC06894FF24F1F802C0FF24F394CE01019624
S1132ED00E942B219B01AC01A0E1BEE00E94B7201F
S1132EE04B015C0181E08F0DF801E80FF11D808139
S1132EF0898382E08F0DF801E80FF11D80818A83B8
S1132F00CE0101960E942B219B01AC01ACE3B0E001
S1132F100E94B720860E971EA81EB91E84E08F0D4E
S1132F20F801E80FF11D8081898395E09F0DF80178
S1132F30E90FF11D80818A83CE0101960E940E2142
S1132F40092E000CAA0BBB0BBC01CD01680D791D29
S1132F508A1D9B1D0F900F900F90DF91CF911F91B1
S1132F600F91FF90BF90AF909F908F900895CF9353
S1132F70DF931F92CDB7DEB7898321E0AE014F5FA7
S1132F805F4F60E088E5EED00F90DF91CF91089518
S1132F90CF93DF931F92CDB7DEB790E1899F900165
S1132FA011242983682F62956F7021E0AE014F5F71
S1132FB05F4F88E1D7D00F90DF91CF9108950F93A1
S1132FC01F93CF93DF9300D000D0CDB7DEB782E05C
S1132FD089831A8261D088E0B6D0882311F081E019
S1132FE041C060E489E175D0882351F181E03AC0A1
S1132FF089818823A1F08A8191E0980F9A83082F10
S113300010E083D0282FCE010396800F911FFC017E
S1133010208380E598D0882399F081E023C08A81B9
S1133020082F10E081D0282FCE010396800F911F26
S1133030FC01208388E587D0882311F081E012C049
S113304089819FEF980F9983882391F63ED08B81D5
S11330508295807F8B839B818C8182958F70892B55
S11330608B838B810F900F900F900F90DF91CF91F6
S11330701F910F910895E4E6F0E080818F778083BB
S11330801092B90085E28093B80084E08093BC007C
S113309081E080932F01089584EA8093BC00ECEBD7
S11330A0F0E08081882324F080912F018111F9CFF1
S11330B080912F01811107C080E98093BC0081E0D9
S11330C080932F01089580E0089584E98093BC00E3
S11330D008958093BB0084E88093BC00ECEBF0E09F
S11330E08081882324F080912F018111F9CF809170
S11330F0B900887F861739F084E98093BC0081E0A9
S113310080932F01089580E0089584EC8093BC009F
S1133110ECEBF0E08081882324F080912F01811171
S1133120F9CF8091BB00089584E88093BC00ECEB58
S1133130F0E08081882324F080912F018111F9CF60
S11331408091BB0008952091B900287F30E090E081
S11331502817390729F084E98093BC0081E0089599
S113316080E00895CF93DF9300D000D000D0CDB796
S1133170DEB78A836B835D834C832E8319828CDF55
S113318088E0E1DF882311F081E028C068E18A81CA
S1133190A0DF882311F081E021C068E28B8199DFF0
S11331A08823A1F081E01AC0898191E0980F998366
S11331B0882F90E02C813D81820F931FFC01808138
S11331C068E287DF882311F081E008C08E819FEFD9
S11331D0980F9E83882341F778DF80E026960FB608
S11331E0F894DEBF0FBECDBFDF91CF9108950F934A
S11331F01F93CF93DF9300D000D000D0CDB7DEB7BC
S11332008A836B835D834C832E83198245DF88E038
S11332109ADF882311F081E04DC068E18A8159DF8B
S1133220882311F081E046C068E28B8152DF882355
S113323011F081E03FC030DF80E185DF882311F0A9
S113324081E038C08A81816060E443DF882351F1E2
S113325081E030C08E818823A1F0898191E0980FAC
S11332609983882F90E02C813D818901080F191FD3
S11332704CDFF801808380E566DF882399F081E0E4
S113328019C08981882F90E02C813D818901080F24
S1133290191F4ADFF801808388E555DF882311F080
S11332A081E008C08E819FEF980F9E83882391F65A
S11332B00CDF80E026960FB6F894DEBF0FBECDBFBC
S11332C0DF91CF911F910F9108951F93CF93DF93B7
S11332D01F92CDB7DEB7192F898321E0AE014F5F6E
S11332E05F4F61E180E53EDF198321E0AE014F5F6E
S11332F05F4F62E180E536DF0F90DF91CF911F9140
S11333000895682F80E705C00895BC0181E724C0B3
S11333100895CF93DF9300D0CDB7DEB789836A8356
S1133320BBDE88E010DF882311F081E010C068E183
S11333308981CFDE882311F081E009C068E28A81A7
S1133340C8DE882311F081E002C0BFDE80E00F9068
S11333500F90DF91CF910895CF93DF9300D01F9208
S1133360CDB7DEB789837B836A8396DE88E0EBDEA4
S1133370882311F081E01CC068E18981AADE8823DA
S113338011F081E015C088DE88E0DDDE882311F0CD
S113339081E00EC0C9DE282F8A819B81FC01208335
S11333A088E5D1DE882311F081E002C08EDE80E062
S11333B00F900F900F90DF91CF91089524E0829F9A
S11333C0C0011124FC01E85DF84F608171818281A4
S11333D0938108956093390770933A0780933B076C
S11333E090933C0708956091390770913A07809152
S11333F03B0790913C0708954F925F926F927F92A2
S11334008F929F92AF92BF92CF92DF92EF92FF92F0
S11334100F931F93CF93DF93EC018B014880598066
S11334206A807B80411451046104710409F443C02F
S1133430FB0180809180A280B38081149104A10457
S1133440B104C9F1C301B201A501940143D66B01D2
S11334507C01672B682B692B19F40FC06B017C016D
S1133460C501B401A701960135D64601570161157E
S113347071058105910591F702C075016401F2E0BF
S1133480CF16D104E104F104B0F0C301B201A701E5
S1133490960120D6288339834A835B83F8016081AF
S11334A0718182819381A701960114D6F80120834A
S11334B0318342835383DF91CF911F910F91FF900A
S11334C0EF90DF90CF90BF90AF909F908F907F90C0
S11334D06F905F904F9008954F925F926F927F929A
S11334E08F929F92AF92BF92CF92DF92EF92FF9210
S11334F00F931F93CF93DF93CDB7DEB728970FB603
S1133500F894DEBF0FBECDBF8A01C0903001D090C9
S11335103101E0903201F0903301A7019601DAD530
S113352049015A0169837A838B839C83CD82DE822D
S1133530EF82F886BE016B5F7F4FCE0101965CDFA0
S1133540C980DA80EB80FC80CC0CDD1CEE1CFF1CF7
S1133550CC0CDD1CEE1CFF1CCC0CDD1CEE1CFF1C7B
S1133560CC0CDD1CEE1CFF1CCC0CDD1CEE1CFF1C6B
S1133570CC0CDD1CEE1CFF1CCC0CDD1CEE1CFF1C5B
S11335804D805E806F807884C701B601A3019201EB
S1133590A1D5CA01B901880C991CAA1CBB1C880CB2
S11335A0991CAA1CBB1C880C991CAA1CBB1C880C4B
S11335B0991CAA1CBB1C880C991CAA1CBB1C880C3B
S11335C0991CAA1CBB1C880C991CAA1CBB1C32503D
S11335D041095109820E931EA41EB51EF801808272
S11335E09182A282B382A301920165D5C61AD70A39
S11335F0E80AF90AC482D582E682F78240865186B7
S11336006286738680E028960FB6F894DEBF0FBEFC
S1133610CDBFDF91CF911F910F91FF90EF90DF907D
S1133620CF90BF90AF909F908F907F906F905F905E
S11336304F9008953F924F925F926F927F928F9234
S11336409F92AF92BF92CF92DF92EF92FF920F932D
S11336501F93CF93DF934B015C01EA0181E0F901F1
S11336608083F0E88F16F1ED9F06F0EFAF06F8E0E7
S1133670BF0640F1C501B401660F771F881F991F6B
S1133680660F771F881F991FC12CD12C760168946F
S1133690C2F83BC0A32DB0E0A501940168D5A301F5
S11336A09201261B370B480B590BCA01B9013394FD
S11336B03394611536E4730733EC830733E29307DD
S11336C0F0F010C06894332431F860E079EE84EAB5
S11336D095E30F2E412CF9EE5F2EF4EA6F2EF5E3FD
S11336E07F2EF02DA5019401F5D469017A0144E0FF
S11336F0C416D104E104F10408F042C0CBCF60E069
S113370070E0CB01C12CD12C760121E054E0C51628
S1133710D104E104F10409F020E0F8012083CC0C89
S1133720DD1CEE1CFF1CCC0CDD1CEE1CFF1CCC0CA9
S1133730DD1CEE1CFF1CCC0CDD1CEE1CFF1CCC0C99
S1133740DD1CEE1CFF1CCC0CDD1CEE1CFF1CCC0C89
S1133750DD1CEE1CFF1CF2E0DF1AE108F108C88250
S1133760D982EA82FB821C821D821E821F8201E0B2
S113377010E020E030E0088719872A873B8706C0DD
S1133780A5019401C701B60196D4BFCFDF91CF91B3
S11337901F910F91FF90EF90DF90CF90BF90AF906B
S11337A09F908F907F906F905F904F903F9008957F
S11337B02F923F924F925F926F927F928F929F923D
S11337C0AF92BF92CF92DF92EF92FF920F931F932B
S11337D0CF93DF93CDB7DEB762970FB6F894DEBF11
S11337E00FBECDBF6B017C011A013E872D878091EE
S11337F0350790913607A0913707B091380789872C
S11338009A87AB87BC87BC01CD01A701960162D41E
S113381049015A012F87388B498B5A8B69837A83E4
S11338208B839C83CD82DE82EF82F886BE016B5F40
S11338307F4FCE010196E0DD4D805E806F807884FD
S1133840C980DA80EB80FC80A5019401C301B20138
S113385032D49B01AC012C0D3D1D4E1D5F1D6985AD
S11338607A858B859C8536D4CA01B901A30192015E
S113387022D469877A878B879C87C114D104E10499
S1133880F10409F085C080FE75C082C081E0D801D2
S11338908C93F10110821182128213821482158298
S11338A01682178281E090E0A0E0B0E080879187E3
S11338B0A287B38771C0D8011C92CC0CDD1CEE1C0E
S11338C0FF1CCC0CDD1CEE1CFF1CCC0CDD1CEE1C08
S11338D0FF1CCC0CDD1CEE1CFF1CCC0CDD1CEE1CF8
S11338E0FF1CCC0CDD1CEE1CFF1CCC0CDD1CEE1CE8
S11338F0FF1CC701B601A3019201ECD3CA01B901AF
S1133900880C991CAA1CBB1C880C991CAA1CBB1CE7
S1133910880C991CAA1CBB1C880C991CAA1CBB1CD7
S1133920880C991CAA1CBB1C880C991CAA1CBB1CC7
S1133930880C991CAA1CBB1C89019A0112502109EC
S11339403109800E911EA21EB31EF1018082918264
S1133950A282B382A3019201AED3C61AD70AE80A9F
S1133960F90AC482D582E682F7824086518662864D
S1133970738612C081E0AD85BE858C938F8598894E
S1133980A989BA890497A105B10509F094CF7ECF1E
S1133990AD85BE851C928FCF69857A858B859C8584
S11339A062960FB6F894DEBF0FBECDBFDF91CF9104
S11339B01F910F91FF90EF90DF90CF90BF90AF9049
S11339C09F908F907F906F905F904F903F902F903B
S11339D00895262F682F80ECC5CB0895FF920F938E
S11339E01F93CF93DF93CDB7DEB766970FB6F894E6
S11339F0DEBF0FBECDBFF42E0091390710913A07F8
S1133A0020913B0730913C07AE014F5F5F4F64DD6F
S1133A108A858D8789858E878B8183708F878A813C
S1133A20888B8981898B9B858F818F7020E1929F00
S1133A30800D11248A8B8E818B8B8D818C8B81E000
S1133A40F81207C0AE01435F5F4F68E08AE1C1DF4F
S1133A5006C0AE01435F5F4F68E082E2BADF66965C
S1133A600FB6F894DEBF0FBECDBFDF91CF911F918B
S1133A700F91FF90089560933507709336078093F4
S1133A8037079093380742E0A9CF0895CF93DF9387
S1133A901F92CDB7DEB7698321E0AE014F5F5F4F60
S1133AA0682F80EC5FDB0F90DF91CF910895CF9367
S1133AB0C82F80FF03C060E281EBE8DFC1FF03C0D1
S1133AC060E881EBE3DFCF910895AB0121E0682F3B
S1133AD080EC8DCB0895CF92DF92EF92FF921F93EB
S1133AE0CF93DF931F92CDB7DEB7182F6A017B0106
S1133AF0C2DA1092350710923607109237071092E7
S1133B00380780E498E7ADE7B1E080933001909303
S1133B103101A0933201B0933301109234076FEF57
S1133B2083E0B4DF6CEC80E1B1DF6CEC81E1AEDF0B
S1133B306CEC82E1ABDF612F6261698387EBA6DF06
S1133B40C114D104E104F10451F40F2EF0E4CF2E9A
S1133B50F8E7DF2EFDE7EF2EFF24F394F02D80919C
S1133B60300190913101A0913201B0913301C81616
S1133B70D906EA06FB06A1F0BE016F5F7F4F8FE016
S1133B80A4DF81110DC069816F736983C092300114
S1133B90D0923101E0923201F09233018FE076DF6E
S1133BA00F90DF91CF911F91FF90EF90DF90CF9016
S1133BB008950F931F93CF93DF931F92CDB7DEB772
S1133BC0182F062FBE016F5F7F4F83E07EDF8111C8
S1133BD01BC0002361F081E090E002C0880F991FB0
S1133BE01A95E2F780959981892389830AC081E037
S1133BF090E002C0880F991F1A95E2F79981892BEA
S1133C008983698183E042DF0F90DF91CF911F9117
S1133C100F9108950F931F93CF93DF931F92CDB706
S1133C20DEB7062F10E1180FBE016F5F7F4F812FA3
S1133C304CDF81111CC0013051F028F0023061F0DA
S1133C40033079F011C089818C7F89830DC089810B
S1133C508C7F8160898308C089818C7F826089839D
S1133C6003C08981836089836981812F0FDF0F906D
S1133C70DF91CF911F910F9108950F931F93CF93CD
S1133C80DF931F92CDB7DEB7062F10E1180FBE01E8
S1133C906F5F7F4F812F19DF81110EC0013021F436
S1133CA089818F7D898305C0023019F489818062FE
S1133CB089836981812FEADE0F90DF91CF911F9173
S1133CC00F9108950F931F93CF93DF931F92CDB756
S1133CD0DEB7062F10E1180FBE016F5F7F4F812FF3
S1133CE0F4DE81110CC0002321F089818064898372
S1133CF003C089818F7B89836981812FC7DE0F90FF
S1133D00DF91CF911F910F910895FF920F931F930D
S1133D10CF93DF931F92CDB7DEB7813021F068F0E7
S1133D20823031F028C00F2EF4E3FF2EF02D09C0AD
S1133D300F2EFCE3FF2EF02D04C00F2EFCE2FF2E0D
S1133D40F02D042F162FBE016F5F7F4F8F2DBDDE28
S1133D50811111C089818378011102C0898302C055
S1133D608C60898380E1189FB00111248981682BBC
S1133D7069838F2D8BDE0F90DF91CF911F910F916F
S1133D80FF9008958F92AF92CF92DF92EF92FF92BD
S1133D900F931F93CF93DF93CDB7DEB767970FB61B
S1133DA0F894DEBF0FBECDBFF82ECC86DD86EE863E
S1133DB0088B198B2A8B6E8B59834A83880F880F43
S1133DC0880FBE01655F7F4F845D7FDE81113BC03C
S1133DD08B858C7F8B879E859370892B8B838D85B8
S1133DE08C838C858D839E898A898F7020E1929F34
S1133DF0800D11248E8389898F838889888781E047
S1133E00F81669F0F81620F022E0F21679F014C0E2
S1133E10AE014F5F5F4F68E08AE2DBDD0DC0AE01AB
S1133E204F5F5F4F68E082E3D4DD06C0AE014F5FB1
S1133E305F4F68E08AE3CDDD6A2D8F2D43DF4CA10F
S1133E40682D8F2D62DF67960FB6F894DEBF0FBE24
S1133E50CDBFDF91CF911F910F91FF90EF90DF9035
S1133E60CF90AF908F9008953F924F925F926F9250
S1133E707F928F929F92AF92BF92CF92DF92EF92F6
S1133E80FF920F931F93CF93DF93CDB7DEB72E9797
S1133E900FB6F894DEBF0FBECDBF6B017C01B42E0C
S1133EA01D861E8680E4C81682E4D8068FE0E806E4
S1133EB0F10460F0C701B60124E630E040E050E0D0
S1133EC009D1A4E6B0E053D16B017C0181E0B816BE
S1133ED0C9F0B81620F082E0B81651F1C1C0809143
S1133EE03407816080933407C0922807D092290751
S1133EF0E0922A07F0922B076894332434F899242B
S1133F0093942FC060913407626060933407609586
S1133F106A6F83E0BBDDC0922C07D0922D07E0923C
S1133F202E07F0922F070F2EF1E13F2EF02D9CC0AB
S1133F306091340764606093340760956C6F83E02C
S1133F40A5DDC0923007D0923107E0923207F0929B
S1133F5033070F2EF2E13F2EF02D86C0689499248A
S1133F6091F88E01025F1F4F9E01235F3F4FAE0108
S1133F704F5F5F4FC701B6015DDB2B013C01692D2B
S1133F808B2D7BDE8E858F93812CAD84C980DA8066
S1133F90EB80FC800D811E812F81388549855A85EF
S1133FA06B857C858B2DEEDE0F90411451046104EA
S1133FB0710481F12BC08E01025F1F4F9E01235FAC
S1133FC03F4FAE014F5F5F4FC701B601F1DB62E0C7
S1133FD08B2D53DE8E858F93812CAD84C980DA803E
S1133FE0EB80FC800D811E812F81388549855A859F
S1133FF06B857C858B2DC6DE60913407609583E0EC
S113400045DD0F90412C512C320111C0492DC301C3
S1134010B201E4DC60913407609583E037DD81E030
S1134020981205C06CE4832D31DD80E02BC08D85B2
S1134030882321F06CE6832D29DD03C06CE2832DF7
S113404025DD411451046104710461F04092350787
S113405050923607609237077092380780E012C09A
S113406081E010C080E00EC0809135079091360742
S1134070A0913707B0913807892B8A2B8B2B09F431
S11340806DCF99CF2E960FB6F894DEBF0FBECDBF7D
S1134090DF91CF911F910F91FF90EF90DF90CF9020
S11340A0BF90AF909F908F907F906F905F904F9054
S11340B03F9008950895DB018F939F9358D0BF914B
S11340C0AF91A29F800D911DA39F900DB29F900D63
S11340D011240895A1E21A2EAA1BBB1BFD010DC0D9
S11340E0AA1FBB1FEE1FFF1FA217B307E407F507A4
S11340F020F0A21BB30BE40BF50B661F771F881F80
S1134100991F1A9469F760957095809590959B0115
S1134110AC01BD01CF010895052E97FB16F4009460
S11341200FD057FD05D0D6DF07FC02D046F408C0F7
S113413050954095309521953F4F4F4F5F4F0895CF
S113414090958095709561957F4F8F4F9F4F0895FF
S1134150A29FB001B39FC001A39F700D811D1124C4
S1134160911DB29F700D811D1124911D0895F0DFE2
S1134170A59F900DB49F900DA49F800D911D1124B7
S11341800895E894DF93CF93FC01DB01E1DF7F9393
S11341906F93E9019A01AC01BF93AF933F932F93BF
S11341A0DF01D6DF26F46C1B7D0B820B930B9E0183
S11341B0EB01FC012BD0AF91BF912F913F9126D001
S11341C0BE01CF01F9012F913F91CF91DF91089565
S11341D097FB10F8169400080F93083098F00850D5
S11341E0232F342F452F562F672F782F892F902D6B
S11341F0F4CF059497958795779567955795479547
S1134200379527950A95AAF70F910895A1DF460FD0
S1134210571FC81FD91F08F431960895FC01882739
S11342209927E89421912032E9F3293010F02E30B7
S1134230C8F32B3239F02D3231F4689403C055D0D1
S1134240820F911D219120532A30C8F31EF49095BA
S113425081959F4F08951F93FC0199278827BC01DE
S1134260E89411911032E9F3193010F01E30C8F3BC
S11342701B3249F01D3241F4689405C021D0610F0E
S1134280711D811D911D119110531A30B8F33EF424
S113429090958095709561957F4F8F4F9F4F1F919B
S11342A008959111089581568A5108F480528558D1
S11342B00895FB01DC0101900D920020E1F70895BF
S11342C0592F482F372F262F660F771F881F991FC6
S11342D0660F771F881F991F620F731F841F951F16
S11342E0660F771F881F991F08957AE0979F902D76
S11342F0879F802D910D11240895AEE0B0E0E2E88F
S1134300F1E2DDC20D891E8986E08C831A8309835C
S11343108FEF9FE79E838D83AE01475E5F4F6F896A
S1134320788DCE01019608D0EF81F885E00FF11F5A
S113433010822E96E4E0DFC2ABE0B0E0E1EAF1E205
S1134340B0C26C017B018A01FC0117821682838151
S113435081FFBFC1CE0101963C01F6019381F701B3
S113436093FD859193FF81917F01882309F4ADC169
S1134370853239F493FD859193FF81917F018532D4
S113438021F4B60190E0C0D1E8CF912C212C312C3E
S1134390FFE1F315D8F08B3279F038F4803279F0FC
S11343A08332A1F4232D20611DC08D3261F080334E
S11343B069F4232D216016C0832D8260382EE32DED
S11343C0E4603E2E2AC0F32DF8601DC037FC2DC0DA
S11343D020ED280F2A3040F08E32B9F436FC75C136
S11343E0232D2064322E19C036FE06C08AE0989E22
S11343F0200D1124922E11C0EAE02E9E200D1124CE
S1134400222EF32DF0623F2E08C08C3621F4832D2A
S11344108068382E02C0883641F4F70193FD8591F7
S113442093FF81917F018111B3CF982F9F7D955484
S1134430933028F40C5F1F4F9FE399830DC083369C
S113444031F0833771F0833509F055C020C0F8018D
S1134450808189830E5F1F4F88248394912C53019C
S113446012C02801F2E04F0E511CF801A080B18067
S113447036FE03C0692D70E002C06FEF7FEFC50107
S113448038D14C018201F32DFF773F2E15C028014E
S113449022E0420E511CF801A080B18036FE03C018
S11344A0692D70E002C06FEF7FEFC50117D14C0199
S11344B0F32DF0683F2E820133FC19C0822D90E069
S11344C088169906A0F4B60180E290E01DD12A94E2
S11344D0F5CFF50137FC859137FE81915F01B60177
S11344E090E012D121102A9421E0821A91088114BB
S11344F0910479F7E1C0843611F0893639F5F80171
S113450037FE07C060817181828193810C5F1F4FE8
S113451008C060817181072E000C880B990B0E5F17
S11345201F4FF32DFF763F2E97FF09C0909580957E
S1134530709561957F4F8F4F9F4FF0683F2E2AE013
S113454030E0A3011DD1882E861844C0853731F48C
S1134550232D2F7EB22E2AE030E025C0932D997FA3
S1134560B92E8F36C1F018F4883579F0AEC0803793
S113457019F0883721F0A9C0E92FE061BE2EB4FEFE
S11345800DC0FB2DF460BF2E09C034FE0AC0292FD4
S11345902660B22E06C028E030E005C020E130E0FD
S11345A002C020E132E0F801B7FE07C060817181EA
S11345B0828193810C5F1F4F06C06081718180E00E
S11345C090E00E5F1F4FA301DBD0882E8618FB2DD1
S11345D0FF773F2E36FE0DC0232D2E7FA22E891489
S11345E058F434FE0BC032FC09C0832D8E7EA82EF5
S11345F005C0B82CA32C03C0B82C01C0B92CA4FE50
S11346000FC0FE01E80DF11D8081803321F49A2D45
S1134610997EA92E09C0A2FE06C0B394B39404C027
S11346208A2D867809F0B394A3FC10C0A0FE06C0BE
S1134630B21480F4280C922C9B180DC0B21458F4B8
S1134640B60180E290E060D0B394F8CFB21418F4CD
S11346502B1802C0982C212CA4FE0FC0B60180E3B5
S113466090E052D0A2FE16C0A1FC03C088E790E0FF
S113467002C088E590E0B6010CC08A2D867851F01E
S1134680A1FE02C08BE201C080E2A7FC8DE2B6016C
S113469090E03AD0891430F4B60180E390E034D04D
S11346A09A94F8CF8A94F301E80DF11D8081B60144
S11346B090E02AD08110F6CF222009F44ECEB60124
S11346C080E290E021D02A94F7CFF6018681978189
S11346D002C08FEF9FEF2B96E2E1FFC0FC01059033
S11346E0615070400110D8F7809590958E0F9F1FF0
S11346F00895FC016150704001900110D8F7809535
S113470090958E0F9F1F08950F931F93CF93DF9360
S1134710FB01238121FD03C08FEF9FEF2CC022FFFB
S113472016C046815781248135814217530744F4CA
S1134730A081B1819D012F5F3F4F318320838C93F2
S1134740268137812F5F3F4F3783268314C08B0127
S1134750EC01FB010084F185E02D0995892BE1F63C
S1134760D80116968D919C911797019617969C9354
S11347708E931697CE01DF91CF911F910F910895DB
S1134780FA01AA27283051F1203181F1E8946F937E
S11347906E7F6E5F7F4F8F4F9F4FAF4FB1E03ED024
S11347A0B4E03CD0670F781F891F9A1FA11D680FC2
S11347B0791F8A1F911DA11D6A0F711D811D911DF5
S11347C0A11D20D009F468943F912AE0269F11246A
S11347D03019305D3193DEF6CF010895462F4770CE
S11347E0405D4193B3E00FD0C9F7F6CF462F4F7029
S11347F0405D4A3318F0495D31FD4052419302D087
S1134800A9F7EACFB4E0A69597958795779567952C
S1134810BA95C9F700976105710508959B01AC012C
S11348200A2E06945795479537952795BA95C9F753
S1134830620F731F841F951FA01D0895F999FECF61
S113484092BD81BDF89A992780B50895A6E1B0E09C
S113485044E050E018C0262FF999FECF1FBA92BD4C
S113486081BD20BD0FB6F894FA9AF99A0FBE01964D
S11348700895242FF1DF252FEFDF00C0ECDF272F71
S1134880EBCFDC01CB01FC01F999FECF06C0F2BDF0
S1134890E1BDF89A319600B40D9241505040B8F7FA
S11348A008952F923F924F925F926F927F928F92D0
S11348B09F92AF92BF92CF92DF92EF92FF920F93AB
S11348C01F93CF93DF93CDB7DEB7CA1BDB0B0FB6B5
S11348D0F894DEBF0FBECDBF09942A883988488872
S11348E05F846E847D848C849B84AA84B984C88408
S11348F0DF80EE80FD800C811B81AA81B981CE0FFF
S1134900D11D0FB6F894DEBF0FBECDBFED010895E3
S1074910F894FFCF45
S11349140A00000000000000010A0AFFFFFF282328
S113492464008813E803E80364000B64010230297B
S1134934AD08302B3600F4010000E044A30002016A
S113494440787D0100000000000000000000000029
S1134954000000000A436F6D6D616E64733A0A00CF
S1134964000000000000000000000000000000003F
S1134974000000000000000000000000202042208D
S1134984202020202020202020202020202020201F
S11349942D20426174746572790A000000000000DD
S11349A4000000002020424E44205B327C38305DFD
S11349B420202020202020202D2052782042616EA7
S11349C4640A000000000000000000002020465299
S11349D445205B4D3C313A353E5D205B487A5D2091
S11349E42D20527820467265710A000000000000F0
S11349F4000000002020505245205B302D32353514
S1134A045D202020202020202D20507265616D70AF
S1134A140A000000000000000000000020204F20D5
S1134A245B487A5D20202020202020202020202084
S1134A342D204357204F66667365740A00000000F6
S1134A4400000000202041205B302D3130305D20F7
S1134A5420202020202020202D20417474656E7590
S1134A646174696F6E0A0000000000002020535B2B
S1134A74535D2020202020202020202020202020BE
S1134A842D20525353490A00000000000000000086
S1134A9400000000202054494D205B68683A6D6D85
S1134AA43A73735D202020202D20525443205469EE
S1134AB46D650A0000000000000000002020564F2D
S1134AC44C203C4D3A543E205B302D31355D202042
S1134AD42D204D61696E2F546F6E6520566F6C0ADC
S1134AE4000000002020502020202020202020200E
S1134AF420202020202020202D205065726D0A00C3
S1134B0400000000000000000000000020205253B8
S1134B145420202020202020202020202020202059
S1134B242D2052657365740A000000000000000023
S1134B340000000020203F202020202020202020CE
S1134B4420202020202020202D20496E666F0A007A
S1134B540000000000000000000000002A2A2A20AF
S1134B6457445420526573657421202A2A2A0A0062
S1134B745244503E20000A00F401F4010300E80307
S1134B84E8036400030607302E372E313500415202
S1134B944446204475616C2D42616E642052656301
S1134BA46569766572000A2A2A2A202573205665C7
S1134BB4722E202573202A2A2A00506F77657220CA
S1134BC46F666620696E202564207365630A003E5F
S1134BD42025733D25642573004D004D256400256F
S1134BE46C64003E20257320284D454D292573000F
S1134BF43E20257325730025634652452C25732CCA
S1134C0425732563003E2054494D453D2573257382
S1134C1400256354494D2C25732563002563564FA1
S1134C244C2C25732C2573256300326D0038306DAC
S1134C34003E20424E443D25732573002563424EB5
S1134C44442C257325630025634243522C25732584
S1134C546300256349442C25732C25733B002E2EB5
S1134C642E2E2E003E204241543D257325730021EF
S1134C74422C25733B003E20525353493D25732552
S1134C84730021532C25733B003E2052463D25736B
S1134C9425730021522C25733B002575003E2025E5
S1134CA4733D25732573002125732C25733B004D17
S1134CB441494E20564F4C00544F4E4520564F4CBC
S1134CC4000A0A0041545400505245003E256C64C5
S10F4CD46D00256C642E25316C646800B2
S9030000FC
