:1000000090C000000C94B90CA9C000000C941C080E
:100010000C9445080C94260B0C94C80B9FC0000050
:10002000BCC600009BC0000099C0000097C0000043
:1000300095C0000093C0000091C000008FC0000078
:100040008DC000008BC000000C9467080C94D90A86
:1000500085C0000083C0000081C000007FC0000098
:100060007DC000007BC000005C1320134C136413A0
:100070005013641330131C1328132C1364134013F0
:100080001413441310132413E812EC12F012F41298
:10009000F812FC120013041308130C133413381352
:1000A00060133C13641318135413801284128812C3
:1000B0008C129012941298129C12A012A412A812E0
:1000C000AC12B012B412B812BC12C012C412C812D0
:1000D000CC12D012D412D812DC12E012E412641343
:1000E0006413641364134813641364136413641374
:1000F0006413641364136413641364136413641348
:100100006413641364136413641364136413641337
:100110006413641364136413641364136413641327
:10012000581311241FBECFEFD8E0DEBFCDBF15E0BE
:10013000A0E0B1E0E8EFFEE402C005900D92A03629
:10014000B107D9F727E0A0E6B5E001C01D92A438B9
:10015000B207E1F70E940D0E0C947A2751CF90E080
:100160000AC09F5F9430C0F48F5F80936305843032
:1001700010F01092630580916305282F30E042E370
:10018000429FF001439FF00D1124E851FA4F408146
:10019000442339F381E001C080E0882349F042E341
:1001A000429FC001439F900D112488519A4F08959A
:1001B00080E090E0089590E00AC09F5F9430C0F422
:1001C0008F5F80936205843010F0109262058091F9
:1001D0006205282F30E042E3429FF001439FF00D7B
:1001E0001124E851FA4F40814111E7CF81E001C06D
:1001F00080E0882349F042E3429FC001439F900D75
:10020000112488519A4F089580E090E0089590E07D
:100210000AC09F5F9230C8F48F5F8093610582307F
:1002200010F01092610580916105282F30E042E4C2
:10023000429FF001439FF00D1124EC59FA4F418188
:100240005281452B31F781E001C080E0882349F0DD
:1002500042E4429FC001439F900D11248C599A4F54
:10026000089580E090E0089590E00AC09F5F92308A
:10027000C8F48F5F80936005823010F010926005A3
:1002800080916005282F30E042E4429FF001439FB7
:10029000F00D1124EC59FA4F41815281452B31F375
:1002A00081E001C080E0882349F042E4429FC00120
:1002B000439F900D11248C599A4F089580E090E04F
:1002C00008958091B00608959091B00681E0911153
:1002D00080E0911108C091E09093B006E1ECF0E06D
:1002E00090819062908308958091B006882339F0C0
:1002F000E1ECF0E080818F7D80831092B00608955C
:10030000CF93DF938091C10084FF0FC0E1ECF0E058
:1003100080818F7E808384E8A4E6B5E0ED011992A8
:100320008A95E9F7808180618083DF91CF9108957C
:100330009B01AC0184E8E4E6F5E0DF011D928A95BB
:10034000E9F760E271EA87E090E00E94892321509A
:1003500031093093C5002093C40088E98093C1001F
:100360008EE08093C20010920801089581E080938E
:1003700008011092C100B8DF84E8E4E6F5E0DF018F
:100380001D928A95E9F780E008C0B2E38B9FF001E7
:100390001124E851FA4F10828F5F8430B0F3089532
:1003A000CF93DF9320910801211119C00097C9F064
:1003B000EC0101DF04C085DF8111FDCFFCDE009779
:1003C000D1F389F0DF93CF939F938F930E946F2493
:1003D0007BDF0F900F900F900F9080E005C081E0C1
:1003E00003C081E001C081E0DF91CF9108958AE7E9
:1003F00093E0D6CF08958091E306882321F08EE81C
:1004000093E0CECF089583E993E0CACF089583E9BE
:1004100093E0C6CF0895CF93DF93809108018111B7
:100420003CC08091E3068823C1F18FE993E09F935C
:100430008F9386EA93E09F938F9381EC93E09F9351
:100440008F9381EB96E09F938F930E946F248DB7DB
:100450009EB708960FB6F8949EBF0FBE8DBF81EB76
:1004600096E09EDF8111FBCF2CDF8111FDCFC0E034
:10047000D0E00FC022E22C9FC0012D9F900D1124CF
:10048000865A9E4F8DDF8111F5CF1BDF8111FDCF85
:100490002196C031D10574F3BADFDF91CF91089571
:1004A0009F938F9380E091E09F938F930E946F249E
:1004B0000F900F900F900F9008958093E306809116
:1004C000E306882339F080E195E0EADF80E091E0FF
:1004D00067CF089583E993E063CF0895E1EBF6E0F9
:1004E00080831182CF015CCF08950097A9F0FC01B1
:1004F00001900020E9F73197E81BF90BF39770F4AE
:10050000BC0142E350E081EB96E00E94432481EB82
:1005100096E046DF80E0089581E0089581E0089547
:100520001F928F9385ED93E09F938F9381EB96E0DD
:100530009F938F930E946F2481EB96E031DF0F90A1
:100540000F900F900F900F900F90089520E031E0E2
:100550003F932F939F938F937F936F938AEE93E0B4
:100560009F938F9381EB96E09F938F930E946F24CC
:1005700081EB96E015DF8DB79EB70A960FB6F8941B
:100580009EBF0FBE8DBF08950F931F93CF93DF9330
:10059000CDB7DEB72A970FB6F894DEBF0FBECDBF3A
:1005A000182F022F80914A0190914B019A838983E1
:1005B000FE01339688E0DF011D928A95E9F7411527
:1005C00051056105710559F1463051056105710507
:1005D00098F45F934F9384EF93E09F938F93CE01B2
:1005E00001969F938F930E946F240F900F900F900E
:1005F0000F900F900F9013C07F936F935F934F9363
:1006000088EF93E09F938F93CE0101969F938F93F2
:100610000E946F240FB6F894DEBF0FBECDBF13301B
:1006200041F0123051F0113061F48BE324E291E09B
:100630000BC08BE321E291E007C08FE324E291E05D
:1006400003C08BE324E290E0992309F45AC090910F
:10065000E306992391F10023C1F080E091E09F939C
:100660008F93CE0101969F938F938CEF93E09F938E
:100670008F9381EB96E09F938F930E946F240FB628
:10068000F894DEBF0FBECDBF39C080E091E09F93EC
:100690008F93CE0101969F938F9389E094E09F936F
:1006A0008F9381EB96E09F938F930E946F240FB6F8
:1006B000F894DEBF0FBECDBF21C090E0002319F03B
:1006C00041E255E002C040E050E09F938F935F937A
:1006D0004F93CE0101969F938F931F922F9380E1AA
:1006E00094E09F938F9381EB96E09F938F930E946A
:1006F0006F240FB6F894DEBF0FBECDBF81EB96E03E
:100700004FDE2A960FB6F894DEBF0FBECDBFDF9145
:10071000CF911F910F910895833029F0823031F0ED
:100720002BE394E205C02BE391E202C02FE394E2B5
:100730008091E3068823D9F080E091E09F938F9326
:100740005F934F937F936F938EE194E09F938F938A
:1007500081EB96E09F938F930E946F248DB79EB795
:100760000A960FB6F8949EBF0FBE8DBF1AC01F9297
:100770002F935F934F937F936F931F929F9388E282
:1007800094E09F938F9381EB96E09F938F930E94C9
:100790006F248DB79EB70C960FB6F8949EBF0FBE10
:1007A0008DBF81EB96E0FCCD0F931F93CF93DF932A
:1007B00000D000D000D0CDB7DEB7209154013091E9
:1007C00055013A83298300915601109157012091D8
:1007D0005801309159010B831C832D833E83611195
:1007E00004C094E5998301E007C0613021F49DE4E1
:1007F000998301E001C000E0002309F45FC0182FD5
:100800004B3000F5242F30E0A901440F551F220F73
:10081000331F220F331F220F331F420F531F5F93CB
:100820004F9385EF93E09F938F93CE0103969F9311
:100830008F930E946F240F900F900F900F900F9046
:100840000F9009C04D3038F44C3019F48BE28B8393
:1008500002C08DE28B83133039F0123041F0113039
:1008600049F49BE384E209C09BE381E206C09FE375
:1008700084E203C09BE384E200E00023F9F01F92CE
:100880009F939E012D5F3F4F3F932F93225031093D
:100890003F932F931F928F9382E394E09F938F93C4
:1008A00081EB96E09F938F930E946F2481EB96E0FB
:1008B00077DD0FB6F894DEBF0FBECDBF26960FB61C
:1008C000F894DEBF0FBECDBFDF91CF911F910F9186
:1008D0000895FF920F931F93CF93DF9300D000D022
:1008E000CDB7DEB7833059F0823081F08130A9F482
:1008F0000F2EFBE3FF2EF02D04E211E014C00F2EAB
:10090000FBE3FF2EF02D01E211E00DC00F2EFFE3FF
:10091000FF2EF02D04E211E006C00F2EFBE3FF2EA8
:10092000F02D04E210E08091E306882361F061116C
:1009300003C060E474E002C063E474E0CE01019699
:100940000E943C2412C01F926F9385EF93E09F9307
:100950008F93CE0101969F938F930E946F240F90E7
:100960000F900F900F900F900F901123B1F1809185
:10097000E3068823C1F080E091E09F938F93CE013E
:1009800001969F938F9387E494E09F938F9381EBDD
:1009900096E09F938F930E946F240FB6F894DEBF6A
:1009A0000FBECDBF17C01F92FF92CE0101969F933D
:1009B0008F931F920F9382E594E09F938F9381EB27
:1009C00096E09F938F930E946F240FB6F894DEBF3A
:1009D0000FBECDBF81EB96E0E3DC0F900F900F9040
:1009E0000F90DF91CF911F910F91FF9008951F936A
:1009F000CF93DF9300D000D0CDB7DEB7162F409154
:100A000056015091570160915801709159014983E5
:100A10005A836B837C831F928F9385EF93E09F9320
:100A20008F93CE0101969F938F930E946F240F9016
:100A30000F900F900F900F900F90111102C08BE349
:100A400001C08FE31F928F93CE0101969F938F93E6
:100A50001F9284E28F938DE594E09F938F9381EBB7
:100A600096E09F938F930E946F2481EB96E098DC31
:100A70000FB6F894DEBF0FBECDBF0F900F900F9052
:100A80000F90DF91CF911F91089586E0E8E6F4E0A2
:100A9000A1EBB6E001900D928A95E1F781EB96E02B
:100AA0007FCC0895CF93DF9300D000D000D0CDB796
:100AB000DEB720914A0130914B013A832983FE0130
:100AC000339624E0DF011D922A95E9F79F938F93D7
:100AD00085EF93E09F938F93CE0101969F938F9321
:100AE0000E946F248091E3060F900F900F900F905B
:100AF0000F900F908823C1F080E091E09F938F9337
:100B0000CE0101969F938F938EE694E09F938F93EF
:100B100081EB96E09F938F930E946F240FB6F89419
:100B2000DEBF0FBECDBF14C0CE0101969F938F9341
:100B30008AE794E09F938F9381EB96E09F938F9346
:100B40000E946F240F900F900F900F900F900F90B6
:100B500081EB96E025DC26960FB6F894DEBF0FBE3B
:100B6000CDBFDF91CF910895CF93DF9300D000D018
:100B700000D0CDB7DEB720914A0130914B013A83C6
:100B80002983FE01339624E0DF011D922A95E9F7BF
:100B90009F938F9385EF93E09F938F93CE01019660
:100BA0009F938F930E946F248091E3060F900F9084
:100BB0000F900F900F900F908823C1F080E091E08C
:100BC0009F938F93CE0101969F938F9381E894E03A
:100BD0009F938F9381EB96E09F938F930E946F2456
:100BE0000FB6F894DEBF0FBECDBF14C0CE01019684
:100BF0009F938F938BE894E09F938F9381EB96E084
:100C00009F938F930E946F240F900F900F900F90DF
:100C10000F900F9081EB96E0C3DB26960FB6F89409
:100C2000DEBF0FBECDBFDF91CF9108950F931F930D
:100C3000CF93DF9300D000D000D0CDB7DEB78B01CB
:100C400020914A0130914B013A832983FE0133966A
:100C500024E0DF011D922A95E9F79F938F9382E9A3
:100C600094E09F938F93CE0101969F938F930E9460
:100C70006F241092B1068091E3060F900F900F90B1
:100C80000F900F900F908823A9F101151105D1F055
:100C900080E091E09F938F93CE0101969F938F9375
:100CA0001F930F938EE194E09F938F9381EB96E0D7
:100CB0009F938F930E946F240FB6F894DEBF0FBEF0
:100CC000CDBF30C080E091E09F938F93CE0101961D
:100CD0009F938F9389E094E09F938F9381EB96E0AD
:100CE0009F938F930E946F240FB6F894DEBF0FBEC0
:100CF000CDBF18C001151105A9F0CE0101969F9333
:100D00008F931F930F9385E994E09F938F9381EBCB
:100D100096E09F938F930E946F240FB6F894DEBFE6
:100D20000FBECDBF8091B106882319F081EB96E00C
:100D300037DB26960FB6F894DEBF0FBECDBFDF912E
:100D4000CF911F910F910895A89504B603FE03C09B
:100D500094B7987094BF813041F4E0E6F0E0908160
:100D60009861908398E6908311C0811108C0E0E6F5
:100D7000F0E090819861908396E4908307C0E0E66C
:100D8000F0E090819861908398E4908391E08111E4
:100D900001C090E09093100708951F920F920FB634
:100DA0000F921124CF92DF92EF92FF920F931F9335
:100DB0002F933F934F935F936F937F938F939F9363
:100DC000AF93BF93EF93FF93CF93DF931F92CDB772
:100DD000DEB78091460790914707019690934707A9
:100DE000809346078091260790912707892B51F120
:100DF00080910E0790910F070097C1F00A9761F458
:100E000060E080E090E00E94681380930D078823E3
:100E100019F081E00E94F41480910E0790910F0761
:100E2000019790930F0780930E070CC080910D07D8
:100E30000E941515809110019091110190930F0758
:100E400080930E0780910C07811156C08FEF80931D
:100E50000B07198225C0E981F0E0EE0FFF1FE55F67
:100E6000FE4F80819181892B59F0E981F0E0EE0FEE
:100E7000FF1FE55FFE4F8081918101979183808301
:100E8000E981F0E0EE0FFF1FE55FFE4F8081918169
:100E9000892B19F4898180930B0789818F5F89835E
:100EA00089818230C0F280910B0788230CF4AAC09C
:100EB000082E000C990B9C01220F331FF901E756F5
:100EC000FC4F40815181F901E55FFE4F5183408322
:100ED000ECE7F0E02081DC01A356BC4F9C91822F0F
:100EE000807F892B8083EAE7F0E0808180648083C3
:100EF00081E080930C0786C080917A0086FD82C0D5
:100F00002091780030917900A4EEBCE00E94CD23BE
:100F10006B017C010B2EBAE0F694E794D794C7944A
:100F2000BA95D1F7B02DA60120910B07022F022E02
:100F3000000C110BF801EE0FFF1FEA5EF84F8081E5
:100F400091818C159D0520F4B601681B790B03C0B7
:100F5000BC016C197D0931E0F801E65EF84F308381
:100F600021112FC0F801EE0FFF1FEB56FC4F20811F
:100F700031812617370758F4F801EE0FFF1FE55FA0
:100F8000FE4F84E690E091838083C60132C08417CF
:100F9000950710F4019603C0672B09F0019721E033
:100FA00020934507823823E0920718F0109232010F
:100FB00020C0843C21E09207E0F021E02093320140
:100FC00018C02130B1F4B60180E090E00E946222A6
:100FD00026E636E646E750E40E94C8220E94362202
:100FE000609312077093130780931407909315076B
:100FF000C601000F111FF801EA5EF84F918380834C
:1010000010920C070F90DF91CF91FF91EF91BF915C
:10101000AF919F918F917F916F915F914F913F9190
:101020002F911F910F91FF90EF90DF90CF900F9035
:101030000FBE0F901F9018951F920F920FB60F9230
:1010400011242F933F934F935F936F937F938F93CD
:101050009F93AF93BF93EF93FF9380913D078823B6
:1010600019F08CE994E041DAFF91EF91BF91AF91D3
:101070009F918F917F916F915F914F913F912F91B0
:101080000F900FBE0F901F9018951F920F920FB6E2
:101090000F9211248F939F9380914207882381F0B0
:1010A00096B180910A01892796B190930A0188230D
:1010B00039F082FF05C0329903C081E0809349076F
:1010C0009F918F910F900FBE0F901F9018951F92B8
:1010D0000F920FB60F921124CF92DF92EF92FF92F0
:1010E0001F932F933F934F935F936F937F938F93B0
:1010F0009F93AF93BF93CF93DF93EF93FF931091A1
:10110000C6008091090790910A07892B29F47FD89E
:1011100090930A0780930907C0910907D0910A07A5
:10112000209709F42EC280913D07882309F44DC110
:10113000812F90E00E942924182F8091080788238E
:1011400029F081508093080710E00FC01B3169F42B
:10115000E0910707E53128F4F0E0EE50F94F1081F7
:1011600001C010E082E0809308071D3009F042C002
:101170008091F106882329F1E0910707EE23F9F029
:1011800082E088838091ED069091EE069A838983B0
:101190008091EC06882379F090E001974091EB066E
:1011A00055E1589F9001599F300D1124C20FD31F54
:1011B000C40FD11D1B82F0E0EE50F94F108227D9E9
:1011C00004C08FEF9FEF9A838983109207071092D4
:1011D000EB061092ED061092EE061092EF061092BA
:1011E000F0061092EC0610920A071092090710926E
:1011F000F106C7C1112309F4C4C1E09107078E2F7E
:1012000090E0DC01AE50B94F1C93EE2309F4AAC064
:101210001F37D1F5E150E09307078091EC0681116B
:1012200021C0F0E0EE50F94F20818091ED069091C1
:10123000EE06A091EF06B091F006BC01CD01621B55
:101240007109810991092AE030E040E050E00E94F4
:1012500089232093ED063093EE064093EF065093DA
:10126000F006ADC09091EB06992321F09150909338
:10127000EB06A5C035E1839FC00DD11D11241B8253
:1012800081508093EC069BC0103211F5FC01EF50A9
:10129000F94F2081203209F45BC02091EC06222313
:1012A00089F0622F70E0615071093091EB06E5E141
:1012B000E69FA001E79F500D1124C40FD51FC30F57
:1012C000D11D1B822F5F2093EC061092EB0641C0CC
:1012D0002091EC06211127C04091ED065091EE06B9
:1012E0006091EF067091F006440F551F661F771F3F
:1012F0006A017B01CC0CDD1CEE1CFF1CCC0CDD1C40
:10130000EE1CFF1C4C0D5D1D6E1D7F1D410F511D00
:10131000611D711D4093ED065093EE066093EF063C
:101320007093F00616C030E0215031096091EB0651
:1013300041E0460F4093EB0675E1729FA001739F59
:10134000500D1124C40FD51FC60FD11D1B8301C022
:1013500010E001968631910514F085E190E08093CC
:1013600007072DC01F3741F1103241F11092EC06F2
:10137000412F50E060E070E04093ED065093EE06A0
:101380006093EF067093F00620E008C0FE0135E19F
:10139000239FE00DF11D112413822F5F2330B0F342
:1013A00021E02093F10601968631910514F085E144
:1013B00090E08093070703C010E001C010E0112304
:1013C00009F4DFC0812F8AD8DCC0143211F0113249
:1013D00049F510920707113211F483E001C081E052
:1013E00088831092EB061092ED061092EE06109292
:1013F000EF061092F00681E08093F1061092EC0661
:101400000AC0FE0195E1899FE00DF11D11241382B0
:101410008F5F8093EC068091EC06833090F31092FE
:10142000EC06A4C08091F106882309F488C01C3220
:1014300029F01B3319F01F3309F042C08091EC06EC
:10144000882389F0282F30E0215031099091EB0654
:1014500045E1429FF001439FF00D1124EC0FFD1F69
:10146000E90FF11D13828F5F8093EC061092EB065B
:101470001B3369F480910707843030F08091ED06CA
:101480009091EE069A8389831092F10610C01F3363
:1014900071F482E0888380910707843030F0809176
:1014A000ED069091EE069A8389831092F106809161
:1014B000F10681115BC010920A071092090756C00D
:1014C0008091EC06811127C08091ED069091EE0687
:1014D000A091EF06B091F006880F991FAA1FBB1FBD
:1014E000AC01BD01440F551F661F771F440F551FE8
:1014F000661F771F840F951FA61FB71F810F911DB1
:10150000A11DB11D8093ED069093EE06A093EF060A
:10151000B093F0062BC090E001974091EB0621E0DC
:10152000240F2093EB0655E1589F9001599F300DF1
:101530001124C20FD31FC40FD11D1B8317C01D3030
:10154000A9F41A82198282E3809307071092EB06AE
:101550001092ED061092EE061092EF061092F00631
:101560001092EC0610920A07109209078091070763
:101570008F5F80930707823320F01092F10610925C
:101580000707FF91EF91DF91CF91BF91AF919F91AD
:101590008F917F916F915F914F913F912F911F910B
:1015A000FF90EF90DF90CF900F900FBE0F901F90A5
:1015B00018951F920F920FB60F9211242F933F93FD
:1015C0004F935F936F937F938F939F93AF93BF934B
:1015D000EF93FF938091E9069091EA06892B31F40D
:1015E0000E94AF009093EA068093E906E091E90635
:1015F000F091EA068091E806DF01A80FB11D9C91E9
:10160000992331F08F5F8093E8069093C6000DC058
:101610001092E80610820E94AF009093EA06809331
:10162000E906892B11F40E947401FF91EF91BF919B
:10163000AF919F918F917F916F915F914F913F916A
:101640002F910F900FBE0F901F9018951F920F9221
:101650000FB60F9211242F933F934F935F936F9385
:101660007F938F939F93AF93BF93EF93FF9380915B
:101670003D07882321F086EB94E00E947502FF91DC
:10168000EF91BF91AF919F918F917F916F915F91FA
:101690004F913F912F910F900FBE0F901F90189573
:1016A000CF93DF93A8954091160150911701609157
:1016B00018017091190184E090E00E94BA164091DF
:1016C000120150911301609114017091150180E095
:1016D00090E00E94BA1660911D018BE090E00E949C
:1016E000A91660911C018CE090E00E94A9166091FF
:1016F0001B018AE090E00E94A91660911A0189E01E
:1017000090E00E94A9166091280788E090E00E946E
:10171000A916C0E0D0E00AC0FE01E25EFE4F608183
:10172000CE018F5D9F4F0E94A9162196EEE1F1E058
:1017300001900020E9F73197EE51F140CE17DF0715
:1017400058F360E0CE018F5D9F4F0E94A916C0E064
:10175000D0E00AC0FE01E75DF84F6081CE01835FF3
:101760009F4F0E94A9162196E9E2F7E00190002020
:10177000E9F73197E952F740CE17DF0758F360E0F9
:10178000CE01835F9F4F0E94A916DF91CF910895EC
:101790001F920F920FB60F9211242F933F934F93E6
:1017A0005F936F937F938F939F93AF93BF93EF93C9
:1017B000FF931092450174DF80911007811109C0D9
:1017C00080910901882329F0E0E6F0E080818064BF
:1017D000808380910901882341F081508093090121
:1017E00080913D0781110E94F701FF91EF91BF9118
:1017F000AF919F918F917F916F915F914F913F91A9
:101800002F910F900FBE0F901F9018951F93CF939D
:10181000DF9385E390E00E941027893A09F059C0D0
:1018200084E090E00E9418276093160170931701DE
:10183000809318019093190180E090E00E9418278E
:10184000609312017093130180931401909315011A
:101850008CE090E00E94102780931C018BE090E0C8
:101860000E94102780931D018AE090E00E941027BB
:1018700080931B0189E090E00E94102780931A0159
:1018800088E090E00E9410278093280710E00DC0A8
:10189000C12FD0E0CE018F5D9F4F0E941027C25E06
:1018A000DE4F8883882319F01F5F143188F310E01E
:1018B0000DC0C12FD0E0CE01835F9F4F0E94102743
:1018C000C75DD84F88838823E1F11F5F143188F307
:1018D00038C08FEF9FEFDC018093160190931701C2
:1018E000A0931801B09319018093120190931301F2
:1018F000A0931401B093150184E180931D0188E049
:1019000080931C018CE380931B0180EF80931A016C
:101910001092280744E150E060ED74E08EE191E020
:101920000E94432444E150E067ED74E089E297E0CF
:101930000E944324B5DE69EA85E390E00E941D27FA
:10194000A895DF91CF911F910895282F30E040E0B6
:1019500050E062E87BE180E090E00E94AB23CA01A6
:10196000B9012AE030E040E050E00E94AB23C90119
:1019700008951F920F920FB60F9211242F933F9349
:101980004F935F936F937F938F939F93AF93BF9387
:10199000EF93FF9380911C0790911D07A0911E0764
:1019A000B0911F070196A11DB11D80931C07909354
:1019B0001D07A0931E07B0931F07809126079091E3
:1019C0002707892B09F4A1C080911201909113017E
:1019D000A0911401B0911501181619061A061B06DC
:1019E0006CF544E060E070E08CE197E00E94C01785
:1019F00040911C0750911D0760911E0770911F07B1
:101A00008091120190911301A0911401B0911501E0
:101A1000481759076A077B078CF010922707109226
:101A200026078FEF9FEFDC01809312019093130143
:101A3000A0931401B093150180E0F7D78091260799
:101A400090912707181619060CF041C00197909342
:101A5000270780932607009731F580911A01882384
:101A600079F080E0E2D720911A01809126079091C9
:101A70002707821B9109909327078093260799C017
:101A800080911B0190E09093270780932607809117
:101A90001C015BDF909311018093100161E089E2EA
:101AA00097E016D686C0209124073091250782172B
:101AB000930709F07EC080911D0147DF90931101CB
:101AC0008093100160E08EE191E002D672C099230C
:101AD0000CF06FC001969093270780932607892BFF
:101AE00009F067C080911B0190E0909327078093D5
:101AF000260780911C0129DF90931101809310012A
:101B000061E089E297E0E4D554C08091160190919C
:101B10001701A0911801B0911901181619061A069B
:101B20001B060CF046C044E060E070E08CE197E0FA
:101B30000E94C01740911C0750911D0760911E071D
:101B400070911F078091160190911701A0911801C3
:101B5000B0911901481759076A077B0754F1809122
:101B60002807882349F090E09195819591099093F9
:101B700027078093260712C080911B0190E0909365
:101B800027078093260780911C01DFDE90931101C7
:101B90008093100161E089E297E09AD58FEF9FEF83
:101BA000DC018093160190931701A0931801B09364
:101BB000190180914807882381F08091480781505E
:101BC0008093480780914807811116C081E00E94E8
:101BD000ED1980E00E94E1190FC080910F01882368
:101BE00059F0815080930F01811106C081E00E945D
:101BF000E11980E00E94ED19FF91EF91BF91AF9143
:101C00009F918F917F916F915F914F913F912F9114
:101C10000F900FBE0F901F901895CF93DF9300D0B9
:101C200000D0CDB7DEB7F2DD84B1856C84B985B163
:101C3000806885B98AB180638AB98CEC8BB917B892
:101C400088E388B984E087BD84B5826084BD84B5AB
:101C5000806184BD85B5856085BD84EB90E09093FF
:101C60008B0080938A00E0E8F0E0808181608083CF
:101C7000808180628083E1E8F0E0808183608083FE
:101C80008CE08093B300E0EBF0E0808182608083A1
:101C9000E1EBF0E0808187608083E0E7F0E0808125
:101CA00084608083ECE7F0E0808180648083EAE7F1
:101CB000F0E0808187688083E8E6F0E080818760DB
:101CC0008083EDE6F0E0808188688083E9E6F0E0DB
:101CD0008081836080838DB381608DBB789480E048
:101CE00033D8A8950E94181B15D7182FA89560E81F
:101CF00075E280E090E00E949801A89580913D07F0
:101D0000882391F0112349F00E9407028EED94E0A0
:101D10000E9475020E94FB010EC00E9407020E94F1
:101D20000B020E94FB0107C00E9445050E94610151
:101D30008111FCCFA895A89544E060E070E08EE3A7
:101D400097E00E94C01781E00E94B51984E080935B
:101D500048070E9461018111FCCF81E00E94A40626
:101D6000F894A895789480914507882309F4AFC327
:101D70008091160790911707843C914008F4A7C3FF
:101D800081E080931107A3C3F8018181928188319A
:101D9000FDE19F0709F4FEC238F58E31E3E09E07AE
:101DA00009F4C9C160F48035910509F4E7C08435B0
:101DB000910509F447C2CF9709F078C335C3843839
:101DC00023E0920709F4DDC028F48136934009F43A
:101DD00076C26CC38F3A23E0920709F45FC0863A5B
:101DE0009C4109F40CC362C38A39F3E29F0709F4EA
:101DF0008BC0A0F48238EEE19E0709F489C020F47C
:101E00008D309E4101F152C3813DEEE19E0709F400
:101E100080C28D3A924209F49FC048C3803D23E2BC
:101E2000920709F4CCC128F48F3C934209F4F0C224
:101E30003DC3873F23E2920709F4F8C081379442FB
:101E400009F4C5C233C3C0908A00D0908B00F8015A
:101E500083818823E9F0C80103960E94E623E82ED7
:101E6000F92EF8EEEF16F3E0FF0638F08AB18F7D19
:101E70008AB98BB180628BB90BC02FEFE216F104E7
:101E800029F020F08AB180628AB902C0FFD56701CB
:101E90006AEE74E0C6010E94160611C30E94D219B0
:101EA000F82EF8018381882319F1C80103960E9456
:101EB000E623F82EF8940E94B60178948F2D0E94A4
:101EC000ED1981E0F11080E080933D070E94E11957
:101ED00080913D070E945D02F2E0FF1203C0109264
:101EE0000F0106C060E875E280E090E00E94980172
:101EF00080913D07882309F4E2C260E070E08F2DF5
:101F000090E00E941606DBC282E00E94A406FFCF8A
:101F1000F8018381803379F444E06BE477E080E07A
:101F200090E00E94C0174BE457E06EEE74E083E04F
:101F30000E948C03C4C2813341F442EF54E064EF49
:101F400074E083E00E948C03BAC28A3509F0B7C2FC
:101F500088E780930F01B3C2F8018381882339F0A9
:101F6000C80103960E940324862FA3D599DBB9D517
:101F700068EF74E090E00E94A602A1C2F9D590DB60
:101F80009EC2F80183818335D1F4808D882339F096
:101F9000BE016F5F7F4FC801489608D701C081E03E
:101FA00081112BC049815A816B817C81409316013C
:101FB0005093170160931801709319011EC0863465
:101FC000D9F4F801808D882339F0BE016F5F7F4F0F
:101FD000C8014896EBD601C081E081110EC049814D
:101FE0005A816B817C81409312015093130160935D
:101FF00014017093150101C081E081110DC050DB07
:1020000080913D07882309F45AC26CEF74E08981FE
:102010009A810E94A60253C280913D07882309F449
:102020004EC281E095E00E94750249C280913D0751
:10203000882331F1F80183818823A1F080898A33D4
:1020400089F483898A3371F444E150E0B8016D5F0B
:102050007F4F8BE497E00E94432460E08BE497E09D
:102060000E94391944E06BE477E080E090E088D783
:102070004BE457E06EEE74E083E00E948C031FC2D5
:10208000F8018081813001F58381882379F044E172
:1020900050E0B8016D5F7F4F8BE497E00E944324CE
:1020A00060E08BE497E00E94391909C244E06BE4D8
:1020B00077E080E090E064D74BE457E06EEE74E0A8
:1020C00083E00E948C03FBC1823009F0F8C140918B
:1020D0001C0750911D0760911E0770911F0780918A
:1020E000E4069091E506A091E606B091E706481750
:1020F00059076A077B0709F4E2C144E06BE477E023
:1021000080E090E03DD74BE457E06EEE74E083E072
:102110000E948C0380911C0790911D07A0911E07BF
:10212000B0911F078093E4069093E506A093E6061E
:10213000B093E706C4C1F8018381882339F144E1F3
:1021400050E0B8016D5F7F4F8EE191E00E94432423
:10215000A7DA60911D0170E08EE191E053D38951BF
:102160009C4F9C0136952795369527953695279552
:10217000A5ECB0E20E94CD23929582958F708927BD
:102180009F70892790932507809324078EE191E023
:102190000E94750260911D0170E08EE191E032D3E2
:1021A00066E075E00E94A60267E074E08091240773
:1021B000909125070E94A6020E94070280C1F0901C
:1021C0001C01F8018381893491F4F0901D01808D08
:1021D000882329F0C80148960E940324F62E8BEF2D
:1021E0008F0D803110F4F0921D015ADA22C0803533
:1021F00001F5F801808D882329F0C80148960E94D6
:102200000324F62E8BEF8F0D803110F4F0921C0119
:1022100047DA60911C0170E082E89BE10E9476231E
:10222000CB016AE070E00E94762370931101609305
:10223000100169E075E08F2D90E00E94A6020E94D7
:1022400007023DC160911B01E62EF12CF80183814C
:10225000803381F460911A01E62EF12C808D882361
:1022600029F0C80148960E9403247B01E0921A01DC
:1022700017DA1DC0813369F4F801808D882329F0B5
:10228000C80148960E9403247B01E0921B0108DAF2
:102290000EC0843461F4F801808D882329F0C801D0
:1022A00048960E9403247B01E0922807F9D96DE04B
:1022B00075E0C7010E94A6020E94070200C1F80152
:1022C00083818823A9F044E150E0B8016D5F7F4F1E
:1022D00089E297E00E944324E3D980911C0135DB19
:1022E000909311018093100161E089E297E0F0D1B1
:1022F00089E297E00E94750260911C0170E089E21A
:1023000097E080D26DE075E00E94A6020E9407026D
:10231000D6C0F80183818823D1F0C80103960E94BA
:10232000032469837A838B839C83CE01019698D2A0
:102330008823B1F089819A81AB81BC818093200789
:1023400090932107A0932207B093230709C0D6D208
:1023500060932007709321078093220790932307AF
:102360008091200790912107A0912207B091230727
:10237000892B8A2B8B2B09F4A2C040912007509106
:102380002107609122077091230720E083E00E94DB
:10239000C40295C0F8018381882371F0C8010396B7
:1023A0000E94E6238035910519F481E0CDD204C066
:1023B000029711F480E0C8D214D3F80190819230D2
:1023C00009F07DC0682F83E00E94690478C081E035
:1023D00080933D070E945D02F8940E94B6017894B4
:1023E00081E0EFD780E0F9D78FE095E00E945002BE
:1023F00060E875E280E090E00E94980160C0809102
:1024000016079091170762E175E00E94160657C003
:10241000CE0101960BD7811152C067E175E0898129
:102420009A810E9416064BC0F894A895789480E192
:1024300095E00E945002D5D2682F83E00E94690483
:102440005DD2AB01BC0120E083E00E94C402F8949D
:10245000A8957894809116079091170763E175E02D
:102460000E9416068091120790911307A0911407FD
:10247000B09115076CE175E00E9416068FE095E0BB
:102480000E945002F894A895789444E06BE477E0B9
:1024900080E090E075D54BE457E06EEE74E083E0A9
:1024A0000E948C03F894A895789409C080913D0708
:1024B000882319F00E940B0202C00E9480018091C3
:1024C0003D0781110E94FB01F801128211820E94D6
:1024D00034018C01892B09F057CC8091490788235E
:1024E00009F43ECC109249073BCC90E0FC01B09738
:1024F000ED35F10508F0E8C0EC5CFF4F0C94C72304
:1025000062E072E085E0089561E074E089E008959A
:1025100065E074E08BE0089561E073E087E0089582
:1025200060E071E081E0089564E074E089E008957E
:1025300063E073E089E0089560E074E087E0089567
:1025400060E072E083E008956EE074E08DE008954D
:1025500065E073E089E0089562E074E089E0089541
:1025600063E072E087E0089561E072E085E008953D
:1025700067E073E08BE0089566E074E08BE0089517
:102580006BE074E08DE0089562E073E087E0089509
:1025900060E073E085E0089561E071E083E0089514
:1025A00064E073E087E0089568E074E089E00895EE
:1025B00066E073E089E0089569E074E08BE00895D7
:1025C0006DE074E08DE0089563E074E08BE00895C1
:1025D0006FE175E083E108956EE175E081E10895B2
:1025E0006CE175E08FE0089568E175E08DE0089595
:1025F00060E175E08BE0089560E075E089E00895A2
:1026000061E075E08BE0089563E075E08DE008958A
:1026100067E075E08FE008956FE075E081E108956F
:102620006AE276E081E1089563E376E083E108956C
:102630006CE076E08FE008956EE176E083E1089546
:1026400065E376E083E1089569E075E08DE0089543
:102650006DE075E08FE008956DE276E083E1089526
:1026600062E075E08BE0089567E076E081E108952F
:1026700065E176E08CE0089561E175E08DE0089514
:102680006AE075E08DE0089561E276E08FE00895FC
:102690006CE276E081E1089562E176E08FE00895F2
:1026A00068E477E081E1089566E176E081E10895EC
:1026B0006FEF77E084E008956EEF77E087E00895AC
:1026C0006DEF70E080E0089560E070E080E00895D4
:1026D000CF93C62F0097E1F0FC012081222399F0CF
:1026E0009093690780936807822FFFDE60936507E8
:1026F00070936607809367071092640710926307D0
:10270000C09333017BC0109269071092680776C0AE
:10271000E0916807F0916907309709F46FC08091E4
:102720006207882321F081508093620767C08091FF
:102730006107882361F01092610780916007882308
:1027400009F45CC0809362071092600757C09091B3
:10275000660780916307891718F1809164078F5F7E
:1027600080936407DF01A80FB11D8C9181110FC008
:1027700080913301882321F080811092640707C083
:1027800010926907109268071092610739C0ADDE98
:1027900060936507709366078093670710926307DD
:1027A000209165072D3F00F54091630731E0340F1C
:1027B0003093630781E090E002C0880F991F4A952B
:1027C000E2F7822321F082E08093620702C0109238
:1027D000620781E08093610780916607381770F087
:1027E00082E0809360070AC08FEF809363071092A6
:1027F000610780916607845080936207809161072A
:10280000CF910895CF92DF92EF92FF921F93CF93D3
:10281000DF936C017B01C0E0D0E010E00CC0F6015A
:10282000EC0FFD1F8081882349F05FDE6D3F08F4C7
:102830001D5F180F2196C431D1058CF380EB94E015
:10284000B7010E946223169FC001179F900D1124AB
:10285000DF91CF911F91FF90EF90DF90CF9008957F
:102860000F931F93FC0160817181828193818B01A1
:102870009C01015E1746254331090F311A4A244451
:10288000310550F4609338017093390180933A0117
:1028900090933B0121E016C08B019C010150144430
:1028A000254938400F3F18402D43310550F46093BF
:1028B000340170933501809336019093370120E005
:1028C00001C022E0223031F4108211821282138280
:1028D00080E011C030916B0723130CC0211105C09B
:1028E00040E00E94292181E006C041E00E942921A8
:1028F00081E001C080E01F910F91089580916A07E7
:102900008823D1F080916B07811109C06091340157
:102910007091350180913601909137010895809131
:102920006B07813069F460913801709139018091B1
:102930003A0190913B01089560E070E0CB01089569
:1029400060E070E0CB010895CF93DF93CDB7DEB7A1
:1029500029970FB6F894DEBF0FBECDBF898780E000
:1029600064D080E041D089858130B1F4898580933D
:102970006B078091380190913901A0913A01B09193
:102980003B0189839A83AB83BC83CE01019668DFC8
:1029900080913D018ED01BC089858823C1F4898533
:1029A00080936B078091340190913501A09136019D
:1029B000B09137018D839E83AF83B887CE01059692
:1029C0004FDF809142018FD080913C0172D0000096
:1029D00029960FB6F894DEBF0FBECDBFDF91CF9121
:1029E000089580916B0708958823B1F080916B075B
:1029F000813049F441E063E080E062D641E064E088
:102A000080E05EC6089540E064E080E059D641E091
:102A100063E080E055C6089540E063E080E050D672
:102A200040E064E080E04CC608958823C1F08091C6
:102A30006C0781112AC080916B07813041F461E0FD
:102A40000E94CF1F61E082E00E94CF1F04C061E0BE
:102A500080E00E94CF1F81E080936C0708958091F1
:102A60006C07882391F080916B07813041F460E01E
:102A70000E94CF1F60E082E00E94CF1F04C060E090
:102A800080E00E94CF1F10926C07089590916B0711
:102A900091110EC090914201913019F4809343013D
:102AA00002C08093440190E090938B0080938A0051
:102AB0000895CF93C82F80916B07811103C0C093F5
:102AC0003C0102C0C0933D018C2FE7D1C11104C06D
:102AD00085B18F7B85B903C085B1806485B9CF91FD
:102AE0000895F2C1089590916B07911109C081304A
:102AF00039F480914301CADF81E080934201089557
:102B000080916B07811105C01092420180914401B0
:102B1000BDCF0895CF9340E050E0BA0180E40E9419
:102B2000551FC82F811120C025D080916B070CDF65
:102B300063E081E00E94002060E081E00E94CF1FFE
:102B400063E082E00E94002060E082E00E94CF1FEC
:102B500063E080E00E94002060E080E00E94CF1FE0
:102B600081E080936A0701C0C1E08C2FCF91089566
:102B70008BC0089586E390E00E941027893A09F0FF
:102B800049C08BE390E00E94102780936B078CE391
:102B900090E00E9418276093340170933501809370
:102BA00036019093370180E490E00E9410278093D3
:102BB0003C0181E490E00E941827609338017093F3
:102BC000390180933A0190933B0185E490E00E94A3
:102BD000102780933D0186E490E00E9418276093BF
:102BE0003E0170933F0180934001909341018AE43C
:102BF00090E00E941027809343018BE490E00E94B4
:102C00001027809344018CE490E00E941027809369
:102C10004201089569EA86E390E00E941D27109220
:102C20006B0780E399E2ADEAB8E0809334019093BA
:102C30003501A0933601B093370182E380933C01C4
:102C400040E35BE266E370E0409338015093390162
:102C500060933A0170933B0180933D018AEA90E0D2
:102C6000A0E0B0E080933E0190933F01A09340012B
:102C7000B093410184EB809343018093440181E050
:102C80008093420101C0089560916B078BE390E04F
:102C900060D04091340150913501609136017091BE
:102CA00037018CE390E066D060913C0180E490E0D5
:102CB00050D0409138015091390160913A017091A2
:102CC0003B0181E490E056D060913D0185E490E0C5
:102CD00040D040913E0150913F0160914001709180
:102CE000410186E490E046D048D5AB01BC0187E3C2
:102CF00090E040D0609143018AE490E02AD0609156
:102D000044018BE490E025D0609142018CE490E096
:102D100020C008950F931F938B019C0114542549E3
:102D20003840013019402D43310568F0DC01CB01FA
:102D3000805E9746A543B10981329A4AA444B10501
:102D400020F082E003C080E001C081E01F910F917C
:102D500008951F93CF93DF93EC01162F0E94102745
:102D6000811721F0612FCE010E941D27DF91CF91A5
:102D70001F910895CF92DF92EF92FF92CF93DF934E
:102D8000EC016A017B010E9418276C157D058E05F8
:102D90009F0529F0B701A601CE010E942B27DF91E4
:102DA000CF91FF90EF90DF90CF900895AF92BF92B8
:102DB000CF92DF92EF92FF920F931F93CF93DF9307
:102DC00000D01F92CDB7DEB75B011B821A826AE387
:102DD00070E00E943124009709F43FC08C0102503A
:102DE0001109F8018081898381818A83CE0101964E
:102DF0000E9403249B01AC01A0E1BEE00E94DC2301
:102E00006B017C01F8018381898384818A83CE01EF
:102E100001960E9403249B01AC01ACE3B0E00E9448
:102E2000DC23C60ED71EE81EF91EF80186818983B1
:102E300087818A83CE0101960E94E623092E000C29
:102E4000AA0BBB0BC80ED91EEA1EFB1EF501C082E1
:102E5000D182E282F38280E001C081E00F900F9086
:102E60000F90DF91CF911F910F91FF90EF90DF9026
:102E7000CF90BF90AF900895CF93DF931F92CDB7BF
:102E8000DEB7898321E0AE014F5F5F4F60E088E5E8
:102E90001CD30F90DF91CF910895CF93DF931F92B2
:102EA000CDB7DEB7682F62956F7020E1829FC001B9
:102EB0001124898321E0AE014F5F5F4F88E105D384
:102EC0000F90DF91CF9108950F931F93CF93DF93CE
:102ED00000D000D0CDB7DEB782E089831A8293D2CA
:102EE00088E0E4D2882311F081E041C060E489E108
:102EF000A6D2882351F181E03AC089818823A1F0CC
:102F00008A8191E0980F9A83082F10E0B3D2282F7E
:102F1000CE010396800F911FFC01208380E5C6D26D
:102F2000882399F081E023C08A81082F10E0B0D275
:102F3000282FCE010396800F911FFC01208388E586
:102F4000B5D2882311F081E012C089819FEF980FDC
:102F50009983882391F66FD28B818295807F8B83B2
:102F60009B818C8182958F70892B8B838B810F90B5
:102F70000F900F900F90DF91CF911F910F910895B7
:102F80004F925F926F927F928F929F92AF92BF9279
:102F9000CF92DF92EF92FF920F931F93CF93DF9325
:102FA000CDB7DEB727970FB6F894DEBF0FBECDBF03
:102FB0007C014B01742EAE014F5F5F4F87E0FA0139
:102FC00011928A95E9F727E060E080EDC3D2811184
:102FD00016C18981182F12951F708F70A82E0A8133
:102FE000D02ED694D694D694D6940F708B8185FB30
:102FF000992790F984FBCC24C0F8F82FFF70BF2EDE
:1030000086FB222720F986FD05C0992319F06894D4
:10301000CC24C1F88114910409F4A9C0772021F0CF
:1030200081E07816B9F055C01F92AF921F921F939E
:103030001F920F931F92DF9282E595E09F938F93EB
:103040009F928F920E946F240FB6F894DEBF0FBE3E
:10305000CDBF8DC0222319F1992319F080E295E0AC
:1030600002C083E295E09F938F931F92AF921F92CD
:103070001F931F920F931F92DF921F92BF921F9276
:10308000CF9286E295E09F938F939F928F920E94BA
:103090006F240FB6F894DEBF0FBECDBF68C01F927D
:1030A000AF921F921F931F920F931F92DF921F9256
:1030B000BF921F92CF928BE495E09F938F939F9244
:1030C0008F920E946F240FB6F894DEBF0FBECDBF63
:1030D0004EC08D81982F9F7082958F70880F682FBA
:1030E000660F660F860F682F690F8E81982F9F706D
:1030F00082958F70880F782F770F770F870F782F33
:10310000790F9F81292F2F7030E02053384F9295EF
:103110009F70892F90E0AC01440F551F880F991FB5
:10312000880F991F880F991F840F951F280F391F2B
:103130001F92AF921F921F931F920F931F92DF92C5
:103140001F92BF921F92CF921F926F931F927F93F5
:103150003F932F938DE395E09F938F939F928F9250
:103160000E946F240FB6F894DEBF0FBECDBFE114EE
:10317000F10409F444C0812F90E0AC01440F551FC5
:10318000880F991F880F991F880F991F480F591F83
:103190004A0D511D202F30E0ACE3B0E00E94CD235A
:1031A0002A01550F66087708460E571E681E791EBD
:1031B0002D2D30E0A8E5B2E00E94CD23460E571E2B
:1031C000681E791E2B2D30E0A0E1BEE00E94CD23C9
:1031D00053014201860E971EA81EB91E2C2D30E009
:1031E000A0EABCE80E94CD23DC01CB01880D991D2B
:1031F000AA1DBB1DF70180839183A283B383279609
:103200000FB6F894DEBF0FBECDBFDF91CF911F91F7
:103210000F91FF90EF90DF90CF90BF90AF909F9075
:103220008F907F906F905F904F9008950F931F93B2
:10323000CF93DF9300D0CDB7DEB78C0119821A820D
:1032400022E0AE014F5F5F4F61E180ED83D18111DC
:1032500009C0298130E0322F22279A81292BF801D9
:10326000318320830F900F90DF91CF911F910F91A9
:103270000895CF93DF93CDB7DEB727970FB6F894B5
:10328000DEBF0FBECDBFFC0181E08C83828920EDC3
:10329000280F9189892F90E0C09782959295907F11
:1032A0009827807F9827822B8983878520ED280F98
:1032B0009685892F90E0C09782959295907F982768
:1032C000807F9827822B8A83848520ED280F938521
:1032D000892F90E0C09782959295907F9827807F64
:1032E0009827822B8B83818520ED280F9085892F4D
:1032F00090E0C09782959295907F9827807F98273D
:10330000822B8D83868120ED280F9581892F90E077
:10331000C09782959295907F9827807F9827822BDF
:103320008E83838120ED280F9281892F90E0C097B2
:1033300082959295907F9827807F9827822B8F8304
:10334000862F880F880F880F861B682F27E0AE0115
:103350004F5F5F4F80EDB9D027960FB6F894DEBF70
:103360000FBECDBFDF91CF910895CF93DF931F9212
:10337000CDB7DEB7882349F0198221E0AE014F5F57
:103380005F4F6EE080EDA1D009C084E0898321E029
:10339000AE014F5F5F4F6EE080ED97D00F90DF91F1
:1033A000CF910895CF93DF931F92CDB7DEB761E041
:1033B000CE010196C2D1898188700F90DF91CF91A3
:1033C0000895882329F040E062E081E079C1089502
:1033D00041E062E081E074C10895482F63E081E03C
:1033E0006FC10895E4E6F0E080818F7780831092CA
:1033F000B90085E28093B80084E08093BC0081E04E
:1034000080934501089584EA8093BC008091BC00BC
:10341000882324F0809145018111F8CF80914501E6
:10342000811107C080E98093BC0081E08093450151
:10343000089580E0089584E98093BC000895809306
:10344000BB0084E88093BC008091BC00882324F0FA
:10345000809145018111F8CF8091B900887F86174E
:1034600039F084E98093BC0081E0809345010895A0
:1034700080E0089584EC8093BC008091BC00882398
:1034800024F0809145018111F8CF8091BB0008950F
:1034900084E88093BC008091BC00882324F0809154
:1034A00045018111F8CF8091BB0008952091B900AA
:1034B000287F30E090E02817390729F084E98093CD
:1034C000BC0081E0089580E00895CF93DF9300D0A1
:1034D00000D000D0CDB7DEB78A836B835D834C8389
:1034E0002E83198290DF88E0E1DF882311F081E0EC
:1034F00028C068E18A81A3DF882311F081E021C020
:1035000068E28B819CDF8823A1F081E01AC0898169
:1035100091E0980F9983882F90E02C813D81820F54
:10352000931FFC01808168E28ADF882311F081E02B
:1035300008C08E819FEF980F9E83882341F77BDF21
:1035400080E026960FB6F894DEBF0FBECDBFDF91A8
:10355000CF9108950F931F93CF93DF9300D000D0A6
:1035600000D0CDB7DEB78A836B835D834C832E8317
:10357000198249DF88E09ADF882311F081E04DC08D
:1035800068E18A815CDF882311F081E046C068E24F
:103590008B8155DF882311F081E03FC034DF80E16B
:1035A00085DF882311F081E038C08A81816060E482
:1035B00046DF882351F181E030C08E818823A1F05D
:1035C000898191E0980F9983882F90E02C813D812B
:1035D0008901080F191F4EDFF801808380E566DF3F
:1035E000882399F081E019C08981882F90E02C818F
:1035F0003D818901080F191F4BDFF801808388E5A1
:1036000055DF882311F081E008C08E819FEF980F6D
:103610009E83882391F60FDF80E026960FB6F894FC
:10362000DEBF0FBECDBFDF91CF911F910F910895E7
:10363000CF93DF93CDB7DEB780E280936D0721E0B3
:103640004DE657E06BE088E440DF882311F01092EC
:103650006D0787E080936D0721E04DE657E060E05D
:1036600088E433DF882311F010926D0710926D0704
:1036700021E04DE657E064E188E427DF882311F07C
:1036800010926D0783E080936D0721E04DE657E0CF
:1036900061E088E41ADF882311F010926D0780E85A
:1036A00080936D0721E04DE657E065E188E40DDF8A
:1036B000882311F010926D070000DF91CF910895DB
:1036C000FF920F931F93DF93D82FF42E01E010E0A9
:1036D00002C0000F111F6A95E2F7682F8DE697E090
:1036E0002CD0FF2031F0EDE6F7E08081082B00833D
:1036F00006C0EDE6F7E000958081082300836D2F7A
:1037000080916D0705D0DF911F910F91FF90089573
:10371000CF93DF931F92CDB7DEB78983611102C0CB
:1037200062E101C063E121E0AE014F5F5F4F88E4D9
:10373000CCDE0F90DF91CF910895611102C062E15C
:1037400001C063E121E0AC0188E404CF0895E82FD3
:10375000F0E0EE0FFF1FEE0FFF1FE159F84F608101
:1037600071818281938108956093800770938107AE
:1037700080938207909383070895609180077091EA
:103780008107809182079091830708954F925F92FD
:103790006F927F928F929F92AF92BF92CF92DF9261
:1037A000EF92FF920F931F93CF93DF938C01EB0166
:1037B000FC01408051806280738088809980AA805B
:1037C000BB804114510461047104C1F1811491045E
:1037D000A104B10499F1C301B201A501940199D7E3
:1037E0006B017C010BC0C501B401A701960191D703
:1037F00046015701C62ED72EE82EF92EC114D1044A
:10380000E104F10481F7F2E08F169104A104B10400
:10381000A8F0C301B201A50194017BD7F801208370
:10382000318342835383688179818A819B81A50199
:1038300094016FD7288339834A835B83DF91CF91CB
:103840001F910F91FF90EF90DF90CF90BF90AF90BE
:103850009F908F907F906F905F904F9008954F92C0
:103860005F926F927F928F929F92AF92BF92CF9210
:10387000DF92EF92FF920F931F93CF93DF93CDB719
:10388000DEB728970FB6F894DEBF0FBECDBF8A0112
:103890008090460190904701A0904801B090490166
:1038A000A501940136D769017A0169837A838B83F4
:1038B0009C838D829E82AF82B886BE016B5F7F4FF4
:1038C000CE01019663DF89809A80AB80BC80880C32
:1038D000991CAA1CBB1C880C991CAA1CBB1C880C1C
:1038E000991CAA1CBB1C880C991CAA1CBB1C880C0C
:1038F000991CAA1CBB1C880C991CAA1CBB1C880CFC
:10390000991CAA1CBB1C4D805E806F807884C50109
:10391000B401A3019201FDD6CC0CDD1CEE1CFF1CF2
:10392000CC0CDD1CEE1CFF1CCC0CDD1CEE1CFF1CAB
:10393000CC0CDD1CEE1CFF1CCC0CDD1CEE1CFF1C9B
:10394000CC0CDD1CEE1CFF1CCC0CDD1CEE1CFF1C8B
:10395000C20ED31EE41EF51E82E0D81AE108F1085B
:10396000F801C082D182E282F382C301B2019BD608
:10397000861A970AA80AB90A84829582A682B78213
:10398000408651866286738680E028960FB6F8944A
:10399000DEBF0FBECDBFDF91CF911F910F91FF9082
:1039A000EF90DF90CF90BF90AF909F908F907F90DF
:1039B0006F905F904F9008952F923F924F925F9239
:1039C0006F927F928F929F92AF92BF92CF92DF922F
:1039D000EF92FF920F931F93CF93DF9300D000D00D
:1039E0001F92CDB7DEB72B013C015B834A831801E0
:1039F00081E0F9018083F0E84F16F1ED5F06F0EF0A
:103A00006F06F8E07F0608F440C0C301B201660FFC
:103A1000771F881F991F660F771F881F991FC12C5A
:103A2000D12C76016894C2F845C08C80A82DB0E0F6
:103A3000A3019201C1D600E019EE24EA35E3480162
:103A40005901861A970AA80AB90AC501B4012C813E
:103A50002E5F2C83811436E4930633ECA30633E205
:103A6000B30648F0A301920154D624303105410534
:103A7000510520F410C081E08D830DC069017A01E9
:103A8000E1E0E983F1E0FD8306C01C8219821D821A
:103A9000C12CD12C76018D80882039F29980992013
:103AA00031F0A7019601C301B201FDD503C060E06A
:103AB00070E0CB0121E034E0C316D104E104F1044D
:103AC00009F020E0F1012083CC0CDD1CEE1CFF1C72
:103AD000CC0CDD1CEE1CFF1CCC0CDD1CEE1CFF1CFA
:103AE000CC0CDD1CEE1CFF1CCC0CDD1CEE1CFF1CEA
:103AF000CC0CDD1CEE1CFF1CCC0CDD1CEE1CFF1CDA
:103B0000F2E0DF1AE108F108EA81FB81C082D1828C
:103B1000E282F382148215821682178201E010E09D
:103B200020E030E000871187228733870F900F90C5
:103B30000F900F900F90DF91CF911F910F91FF90F9
:103B4000EF90DF90CF90BF90AF909F908F907F903D
:103B50006F905F904F903F902F9008952F923F92DB
:103B60004F925F926F927F928F929F92AF92BF928D
:103B7000CF92DF92EF92FF920F931F93CF93DF9339
:103B8000CDB7DEB762970FB6F894DEBF0FBECDBFDC
:103B90004B015C011A013A8B298B60917C07709173
:103BA0007D0780917E0790917F07A5019401B1D593
:103BB00029873A874B875C8769017A0169837A8311
:103BC0008B839C838D829E82AF82B886BE016B5FA1
:103BD0007F4FCE010196DADD80917C0790917D07C1
:103BE000A0917E07B0917F078D879E87AF87B88BA6
:103BF0004D805E806F80788429853A854B855C8511
:103C0000C301B20150D589809A80AB80BC809B01F2
:103C1000AC01280D391D4A1D5B1D6D857E858F8584
:103C2000988977D5CA01B901A30192013CD56D8766
:103C30007E878F87988B89288A288B2829F49985F5
:103C400090FF04C080E003C080E001C081E0A9894A
:103C5000BA898C93B4E0CB16D104E104F10421F4C9
:103C6000811104C080E003C080E001C081E0F80160
:103C700080838823A1F0D1011D921D921D921C9278
:103C80001397F101148215821682178281E090E069
:103C9000A0E0B0E080879187A287B38767C0898062
:103CA0009A80AB80BC80880C991CAA1CBB1C880C19
:103CB000991CAA1CBB1C880C991CAA1CBB1C880C38
:103CC000991CAA1CBB1C880C991CAA1CBB1C880C28
:103CD000991CAA1CBB1C880C991CAA1CBB1C4D80DF
:103CE0005E806F807884C501B401A301920111D573
:103CF000C984DA84EB84FC84CC0CDD1CEE1CFF1C34
:103D0000CC0CDD1CEE1CFF1CCC0CDD1CEE1CFF1CC7
:103D1000CC0CDD1CEE1CFF1CCC0CDD1CEE1CFF1CB7
:103D2000CC0CDD1CEE1CFF1CCC0CDD1CEE1CFF1CA7
:103D3000C20ED31EE41EF51EF2E0DF1AE108F10800
:103D4000D101CD92DD92ED92FC921397C301B201A5
:103D5000AAD4861A970AA80AB90AF1018482958220
:103D6000A682B78240865186628673866D857E857F
:103D70008F85988962960FB6F894DEBF0FBECDBFCF
:103D8000DF91CF911F910F91FF90EF90DF90CF9037
:103D9000BF90AF909F908F907F906F905F904F906B
:103DA0003F902F900895262F682F80EC8ECB08959A
:103DB000FF920F931F93CF93DF93CDB7DEB7669734
:103DC0000FB6F894DEBF0FBECDBFF42E0091800772
:103DD000109181072091820730918307AE014F5FD8
:103DE0005F4F3DDD8A858D8789858E878B818370C6
:103DF0008F878A81888B8981898B9B858F818F7042
:103E000020E1929F800D11248A8B8E818B8B8D8176
:103E10008C8B81E0F81207C0AE01435F5F4F68E012
:103E20008AE1C1DF06C0AE01435F5F4F68E082E216
:103E3000BADF66960FB6F894DEBF0FBECDBFDF9136
:103E4000CF911F910F91FF90089560937C0770931D
:103E50007D0780937E0790937F0742E0A9CF089566
:103E6000CF93DF931F92CDB7DEB7698321E0AE0118
:103E70004F5F5F4F682F80EC28DB0F90DF91CF9171
:103E80000895CF93C82F80FF03C060E281EBE8DF85
:103E9000C1FF03C060E881EBE3DFCF910895AB0180
:103EA00021E0682F80EC56CB0895CF92DF92EF92FD
:103EB000FF920F931F93CF93DF931F92CDB7DEB77F
:103EC000082F6A017B018EDA10927C0710927D0721
:103ED00010927E0710927F0780E498E7ADE7B1E08B
:103EE0008093460190934701A0934801B093490104
:103EF00010927B076FEF83E0B3DF182F6CEC80E14B
:103F0000AFDF182B6CEC81E1ABDF182B6CEC82E19E
:103F1000A7DF182B602F6261698387EBA1DF182B65
:103F2000C114D104E104F10451F40F2EF0E4CF2EBA
:103F3000F8E7DF2EFDE7EF2EFF24F394F02D8091BC
:103F4000460190914701A0914801B0914901C816DE
:103F5000D906EA06FB06B1F0BE016F5F7F4F8FE026
:103F60009EDF811111C069816F736983C092460120
:103F7000D0924701E0924801F09249018FE070DF52
:103F8000812B03C0812F01C081E00F90DF91CF9181
:103F90001F910F91FF90EF90DF90CF9008950F93B6
:103FA0001F93CF93DF931F92CDB7DEB7182F062F45
:103FB000BE016F5F7F4F83E072DF81111BC0002362
:103FC00061F081E090E002C0880F991F1A95E2F736
:103FD00080959981892389830AC081E090E002C09D
:103FE000880F991F1A95E2F79981892B8983698136
:103FF00083E036DF0F90DF91CF911F910F910895ED
:104000000F931F93CF93DF931F92CDB7DEB7062F89
:1040100010E1180FBE016F5F7F4F812F40DF8111CC
:104020001CC0013051F028F0023061F0033079F00B
:1040300011C089818C7F89830DC089818C7F8160CB
:10404000898308C089818C7F8260898303C08981CC
:10405000836089836981812F03DF0F90DF91CF9186
:104060001F910F9108950F931F93CF93DF931F928A
:10407000CDB7DEB7062F10E1180FBE016F5F7F4F7F
:10408000812F0DDF81110EC0013021F489818F7DD8
:10409000898305C0023019F489818062898369812E
:1040A000812FDEDE0F90DF91CF911F910F91089548
:1040B0000F931F93CF93DF931F92CDB7DEB7062FD9
:1040C00010E1180FBE016F5F7F4F812FE8DE811175
:1040D0000CC0002321F089818064898303C0898119
:1040E0008F7B89836981812FBBDE0F90DF91CF9118
:1040F0001F910F910895FF920F931F93CF93DF931A
:104100001F92CDB7DEB7813071F018F0823031F0F8
:1041100027C00F2EFCE2FF2EF02D09C00F2EFCE36E
:10412000FF2EF02D04C00F2EF4E3FF2EF02D042FF0
:10413000162FBE016F5F7F4F8F2DB1DE811110C032
:10414000898183788983002311F08C60898380E1E1
:10415000189FB00111248981682B69838F2D80DE1F
:104160000F90DF91CF911F910F91FF9008958F9243
:10417000AF92CF92DF92EF92FF920F931F93CF9364
:10418000DF93CDB7DEB767970FB6F894DEBF0FBEEB
:10419000CDBFF82ECC86DD86EE86088B198B2A8B58
:1041A0006E8B59834A83880F880F880FBE01655F25
:1041B0007F4F845D74DE81113BC08B858C7F8B8744
:1041C0009E859370892B8B838D858C838C858D83C5
:1041D0009E898A898F7020E1929F800D11248E83A1
:1041E00089898F838889888781E0F81669F0F816B5
:1041F00020F022E0F21679F014C0AE014F5F5F4F5D
:1042000068E08AE2D0DD0DC0AE014F5F5F4F68E02D
:1042100082E3C9DD06C0AE014F5F5F4F68E08AE30D
:10422000C2DD6A2D8F2D44DF4CA1682D8F2D63DFF9
:1042300067960FB6F894DEBF0FBECDBFDF91CF916A
:104240001F910F91FF90EF90DF90CF90AF908F90E4
:1042500008953F924F925F926F927F928F929F92BA
:10426000AF92BF92CF92DF92EF92FF920F931F9384
:10427000CF93DF93CDB7DEB72E970FB6F894DEBF9E
:104280000FBECDBF6B017C01B42E1D861E8680E45F
:10429000C81682E4D8068FE0E806F10460F0C70192
:1042A000B60124E630E040E050E033D2A4E6B0E0CE
:1042B00083D26B017C0181E0B816C9F0B81620F0FA
:1042C00082E0B81669F1B6C080917B078160809367
:1042D0007B07C0926F07D0927007E0927107F0924F
:1042E00072076894332434F89924939431C0609110
:1042F0007B07626060937B0760956A6F83E0B0DD47
:10430000C0927307D0927407E0927507F092760717
:104310000F2EF1E13F2EF02D6894992491F818C0EA
:1043200060917B07646060937B0760956C6F83E0AE
:1043300097DDC0927707D0927807E0927907F092E4
:104340007A070F2EF2E13F2EF02D6894992491F810
:1043500081E0981661F080917C0790917D07A09193
:104360007E07B0917F07892B8A2B8B2B79F48E01E6
:10437000025F1F4F9E01235F3F4FAE014F5F5F4FB4
:10438000C701B60119DB2B013C010FC08E01025F92
:104390001F4F9E01235F3F4FAE014F5F5F4FC7012D
:1043A000B601DCDB412C512C3201692D8B2D5BDEFB
:1043B0008E858F93812CAD84C980DA80EB80FC8060
:1043C0000D811E812F81388549855A856B857C85B5
:1043D0008B2DCDDE0F90411451046104710421F046
:1043E000492DC301B201E4DC60917B07609583E055
:1043F00037DD81E0981205C06CE4832D31DD80E06B
:104400001CC08D85882321F06CE6832D29DD03C037
:104410006CE2832D25DD411451046104710461F0C7
:1044200040927C0750927D0760927E0770927F07D2
:1044300080E003C081E001C080E02E960FB6F894C2
:10444000DEBF0FBECDBFDF91CF911F910F91FF90C7
:10445000EF90DF90CF90BF90AF909F908F907F9024
:104460006F905F904F903F900895089570D088F0BE
:104470009F5790F0B92F9927B751A0F0D1F0660F50
:10448000771F881F991F1AF0BA95C9F712C0B1306B
:1044900081F077D0B1E0089574C0672F782F882716
:1044A000B85F39F0B93FCCF3869577956795B395AA
:1044B000D9F73EF490958095709561957F4F8F4F19
:1044C0009F4F0895E89409C097FB3EF4909580951E
:1044D000709561957F4F8F4F9F4F9923A9F0F92FCA
:1044E00096E9BB279395F695879577956795B79548
:1044F000F111F8CFFAF4BB0F11F460FF1BC06F5F2E
:104500007F4F8F4F9F4F16C0882311F096E911C03F
:10451000772321F09EE8872F762F05C0662371F060
:1045200096E8862F70E060E02AF09A95660F771F74
:10453000881FDAF7880F9695879597F9089557FDA4
:104540009058440F551F59F05F3F71F04795880F01
:1045500097FB991F61F09F3F79F087950895121698
:1045600013061406551FF2CF4695F1DF08C0161644
:1045700017061806991FF1CF8695710561050894F5
:104580000895E894BB2766277727CB0197F908950C
:104590000BD078C069D028F06ED018F0952309F0C0
:1045A0005AC05FC01124EECFCADFA0F3959FD1F3AC
:1045B000950F50E0551F629FF001729FBB27F00DD1
:1045C000B11D639FAA27F00DB11DAA1F649F662726
:1045D000B00DA11D661F829F2227B00DA11D621F75
:1045E000739FB00DA11D621F839FA00D611D221F2F
:1045F000749F3327A00D611D231F849F600D211D13
:10460000822F762F6A2F11249F5750408AF0E1F0B5
:1046100088234AF0EE0FFF1FBB1F661F771F881FFE
:1046200091505040A9F79E3F510570F014C0AACF99
:104630005F3FECF3983EDCF3869577956795B795E9
:10464000F795E7959F5FC1F7FE2B880F911D969513
:10465000879597F9089597F99F6780E870E060E083
:1046600008959FEF80EC089500240A94161617060B
:1046700018060906089500240A9412161306140653
:1046800005060895092E0394000C11F4882352F0B6
:10469000BB0F40F4BF2B11F460FF04C06F5F7F4F6E
:1046A0008F4F9F4F0895DB018F939F9385D0BF91CC
:1046B000AF91A29F800D911DA39F900DB29F900D71
:1046C00011240895AA1BBB1B51E107C0AA1FBB1FE1
:1046D000A617B70710F0A61BB70B881F991F5A958E
:1046E000A9F780959095BC01CD01089597FB072E01
:1046F00016F4009406D077FD08D0E4DF07FC05D05F
:104700003EF4909581959F4F0895709561957F4FE8
:104710000895A1E21A2EAA1BBB1BFD010DC0AA1F02
:10472000BB1FEE1FFF1FA217B307E407F50720F01A
:10473000A21BB30BE40BF50B661F771F881F991F95
:104740001A9469F760957095809590959B01AC01DE
:10475000BD01CF010895052E97FB16F400940FD0EC
:1047600057FD05D0D6DF07FC02D046F408C05095AF
:104770004095309521953F4F4F4F5F4F089590954D
:104780008095709561957F4F8F4F9F4F0895EE0FE5
:10479000FF1F0590F491E02D0994A29FB001B39FF3
:1047A000C001A39F700D811D1124911DB29F700D3A
:1047B000811D1124911D0895F0DFA59F900DB49FD8
:1047C000900DA49F800D911D11240895FC01882750
:1047D0009927E89421912032E9F3293010F02E3006
:1047E000C8F32B3239F02D3231F4689403C06FD006
:1047F000820F911D219120532A30C8F31EF4909509
:1048000081959F4F08951F93FC0199278827BC012C
:10481000E89411911032E9F3193010F01E30C8F30A
:104820001B3249F01D3241F4689405C03BD0610F42
:10483000711D811D911D119110531A30B8F33EF472
:1048400090958095709561957F4F8F4F9F4F1F91E9
:1048500008959111089581568A5108F4805285581F
:104860000895FC018191861721F08823D9F79927B3
:1048700008953197CF010895FB01DC0101900D925D
:104880000020E1F70895FB01DC014150504048F061
:1048900001900D920020C9F701C01D924150504077
:1048A000E0F70895592F482F372F262F660F771FCF
:1048B000881F991F660F771F881F991F620F731F2C
:1048C000841F951F660F771F881F991F08957AE030
:1048D000979F902D879F802D910D11240895AEE014
:1048E000B0E0E4E7F4E2DDC20D891E8986E08C8346
:1048F0001A8309838FEF9FE79E838D83AE01475E06
:104900005F4F6F89788DCE01019608D0EF81F885D1
:10491000E00FF11F10822E96E4E0DFC2ABE0B0E0C2
:10492000E3E9F4E2B0C26C017B018A01FC01178269
:104930001682838181FFBFC1CE0101963C01F60141
:104940009381F70193FD859193FF81917F018823E6
:1049500009F4ADC1853239F493FD859193FF8191BE
:104960007F01853221F4B60190E0C0D1E8CF912CCF
:10497000212C312CFFE1F315D8F08B3279F038F48B
:10498000803279F08332A1F4232D20611DC08D3255
:1049900061F0803369F4232D216016C0832D82607D
:1049A000382EE32DE4603E2E2AC0F32DF8601DC0A2
:1049B00037FC2DC020ED280F2A3040F08E32B9F49C
:1049C00036FC75C1232D2064322E19C036FE06C078
:1049D0008AE0989E200D1124922E11C0EAE02E9EAE
:1049E000200D1124222EF32DF0623F2E08C08C36AC
:1049F00021F4832D8068382E02C0883641F4F701F7
:104A000093FD859193FF81917F018111B3CF982F01
:104A10009F7D9554933028F40C5F1F4F9FE399833B
:104A20000DC0833631F0833771F0833509F055C0FE
:104A300020C0F801808189830E5F1F4F88248394F2
:104A4000912C530112C02801F2E04F0E511CF801C5
:104A5000A080B18036FE03C0692D70E002C06FEF08
:104A60007FEFC50138D14C018201F32DFF773F2E36
:104A700015C0280122E0420E511CF801A080B1802F
:104A800036FE03C0692D70E002C06FEF7FEFC501F5
:104A900017D14C01F32DF0683F2E820133FC19C071
:104AA000822D90E088169906A0F4B60180E290E08D
:104AB0001DD12A94F5CFF50137FC859137FE819100
:104AC0005F01B60190E012D121102A9421E0821AF0
:104AD00091088114910479F7E1C0843611F0893688
:104AE00039F5F80137FE07C06081718182819381B9
:104AF0000C5F1F4F08C060817181072E000C880B6E
:104B0000990B0E5F1F4FF32DFF763F2E97FF09C0C5
:104B100090958095709561957F4F8F4F9F4FF0686E
:104B20003F2E2AE030E0A3011DD1882E861844C014
:104B3000853731F4232D2F7EB22E2AE030E025C0B8
:104B4000932D997FB92E8F36C1F018F4883579F0FE
:104B5000AEC0803719F0883721F0A9C0E92FE06195
:104B6000BE2EB4FE0DC0FB2DF460BF2E09C034FE76
:104B70000AC0292F2660B22E06C028E030E005C00A
:104B800020E130E002C020E132E0F801B7FE07C0CA
:104B900060817181828193810C5F1F4F06C06081AB
:104BA000718180E090E00E5F1F4FA301DBD0882E63
:104BB0008618FB2DFF773F2E36FE0DC0232D2E7F4E
:104BC000A22E891458F434FE0BC032FC09C0832D88
:104BD0008E7EA82E05C0B82CA32C03C0B82C01C013
:104BE000B92CA4FE0FC0FE01E80DF11D80818033B9
:104BF00021F49A2D997EA92E09C0A2FE06C0B39475
:104C0000B39404C08A2D867809F0B394A3FC10C035
:104C1000A0FE06C0B21480F4280C922C9B180DC084
:104C2000B21458F4B60180E290E060D0B394F8CFAB
:104C3000B21418F42B1802C0982C212CA4FE0FC01B
:104C4000B60180E390E052D0A2FE16C0A1FC03C0E2
:104C500088E790E002C088E590E0B6010CC08A2D9C
:104C6000867851F0A1FE02C08BE201C080E2A7FC71
:104C70008DE2B60190E03AD0891430F4B60180E3B9
:104C800090E034D09A94F8CF8A94F301E80DF11DA6
:104C90008081B60190E02AD08110F6CF222009F45D
:104CA0004ECEB60180E290E021D02A94F7CFF601F3
:104CB0008681978102C08FEF9FEF2B96E2E1FFC0C4
:104CC000FC010590615070400110D8F780959095D7
:104CD0008E0F9F1F0895FC016150704001900110DC
:104CE000D8F7809590958E0F9F1F08950F931F936F
:104CF000CF93DF93FB01238121FD03C08FEF9FEF53
:104D00002CC022FF16C0468157812481358142176D
:104D1000530744F4A081B1819D012F5F3F4F318340
:104D200020838C93268137812F5F3F4F37832683E3
:104D300014C08B01EC01FB010084F185E02D099585
:104D4000892BE1F6D80116968D919C9117970196C3
:104D500017969C938E931697CE01DF91CF911F915A
:104D60000F910895FA01AA27283051F1203181F1DD
:104D7000E8946F936E7F6E5F7F4F8F4F9F4FAF4F63
:104D8000B1E03ED0B4E03CD0670F781F891F9A1F76
:104D9000A11D680F791F8A1F911DA11D6A0F711D2A
:104DA000811D911DA11D20D009F468943F912AE036
:104DB000269F11243019305D3193DEF6CF0108951E
:104DC000462F4770405D4193B3E00FD0C9F7F6CF4F
:104DD000462F4F70405D4A3318F0495D31FD405217
:104DE000419302D0A9F7EACFB4E0A69597958795AD
:104DF00077956795BA95C9F700976105710508958C
:104E00009B01AC010A2E0694579547953795279537
:104E1000BA95C9F7620F731F841F951FA01D0895CF
:104E2000F999FECF92BD81BDF89A992780B5089572
:104E3000A6E1B0E044E050E018C0262FF999FECF7B
:104E40001FBA92BD81BD20BD0FB6F894FA9AF99AA7
:104E50000FBE01960895242FF1DF252FEFDF00C04C
:104E6000ECDF272FEBCFDC01CB01FC01F999FECF62
:104E700006C0F2BDE1BDF89A319600B40D924150E2
:104E80005040B8F708952F923F924F925F926F92E1
:104E90007F928F929F92AF92BF92CF92DF92EF92CA
:104EA000FF920F931F93CF93DF93CDB7DEB7CA1B4B
:104EB000DB0B0FB6F894DEBF0FBECDBF09942A8876
:104EC000398848885F846E847D848C849B84AA841E
:104ED000B984C884DF80EE80FD800C811B81AA81AB
:104EE000B981CE0FD11D0FB6F894DEBF0FBECDBF76
:084EF000ED010895F894FFCFD5
:104EF8000A00000000000000010AFFE803E8037848
:104F08003200FFFFFFFFFFFFFFFFF03C0814466F72
:104F18007863616C6C000000000000000000000075
:104F2800000002013029AD08302B36003232AA00C9
:104F3800000001B4B40140787D01000000000000C9
:104F4800000000000000000000000A436F6D6D6162
:104F58006E64733A0A0000000000000000000000C0
:104F68000000000000000000000000002042415442
:104F78002020202D20426174746572790A00000097
:104F880000000000000000000000000000002054A5
:104F9800494D205B68683A6D6D3A73735D2D2052F8
:104FA80054432054696D650A0000000000000000A9
:104FB80020424E44205B327C38305D202D205278D0
:104FC8002042616E640A000000000000000000003A
:104FD800000020465245205B4D3C313A353E5D206D
:104FE8005B487A5D202D20527820467265710A0050
:104FF8000000000020445249205B302D3235355DD9
:10500800202D20326D2044726976650A0000000068
:1050180000000000000020504F57205B302D323533
:10502800355D202D20547820504120506F776572CF
:105038000A00000000000000204944205B746578E5
:10504800745D2020202D2053746174696F6E20498F
:10505800440A0000000000000000205041205B745A
:105068006578745D2020202D205478205061747458
:1050780065726E0A000000000000000020535044D2
:10508800205B49447C50415D2073202D20436F6490
:10509800652073706565640A0000000000002054F4
:1050A800205B307C317C445D2073202D204F6E2F97
:1050B8004F66662F446C792074696D65730A000029
:1050C800205346205B537C465D205B68683A6D6DD3
:1050D8003A73735D202D2053746172742F46696E84
:1050E8000A002050202020202020202020202020BE
:1050F800202D205065726D0A00000000000000009D
:10510800000000002052535420202020202020207E
:105118002020202D2052657365740A0000000000CD
:10512800000000000000205749205B317C325D20E0
:1051380020202020202D2057694669200A000000E1
:105148000000000000000000203F20202020202038
:10515800202020202020202D20496E666F0A000084
:10516800000000000000000000002A2A2A205744FE
:105178005420526573657421202A2A2A0A0054583B
:105188003E20000A00F401F401E803E8030706588A
:10519800322E312E330041524446204475616C2D25
:1051A80042616E64205472616E736D6974746572C5
:1051B800000A2A2A2A202573205665722E20257374
:1051C800202A2A2A00506F776572206F6666206948
:1051D8006E202564207365630A003E2025733D25F3
:1051E800642573004D256400256C64003E202573FA
:1051F80020284D454D292573003E20257325730031
:1052080025634652452C25732C25732563003E20C3
:1052180025733D2573257300256325732C25732578
:1052280063002563564F4C2C25732C25732563008A
:10523800326D0038306D003E20424E443D257325C6
:1052480073002563424E442C257325630025634271
:1052580043522C25732563002E2E2E2E2E003E2021
:10526800525353493D257325730021532C25733B15
:10527800003E2052463D257325730021522C25738C
:105288003B0025750025732C25733B000A45727277
:105298006F723A205043494E5430206F63637572E1
:1052A800726564210A000A4572726F723A2050438F
:1052B800494E5432206F63637572726564210A0027
:1052C800464F58424F580050415249537C00496E4E
:1052D8006974206572726F72210044524900544902
:1052E8004D00310045535000504F57007365633DE2
:1052F800006572720A006D73007370640074000AAE
:105308000A0021424154002154454D005670610065
:10531800414D00504D002531642531643A253164F2
:105328002531643A253164253164257300253464B8
:105338002D253032642D25303264542531642531D1
:10534800643A2531642531643A2531642531640095
:00000001FF
