:1000000090C000007DC70000A9C000000C945C0CEB
:100010000C948F0C0C9455110C94D80C9FC00000BC
:100020000C94230A9BC0000099C0000097C00000F8
:1000300095C0000093C0000091C000008FC0000078
:100040008DC000008BC000000C94270D0C94E510AF
:1000500085C0000083C0000081C000007FC0000098
:100060007DC000007BC000008F21262173219B21D1
:100070007A219B2142211F2134213B219B215E219A
:10008000112165210A212D21C520CC20D320DA2081
:10009000E120E820EE20F520FC2003214921502119
:1000A000962157219B211821812113201A202120DC
:1000B00028202F2035203C20432049204F20562047
:1000C0005D2064206B2072207920802087208E2084
:1000D00094209B20A220A920B020B720BE209B21E5
:1000E0009B219B219B216C219B219B219B219B215F
:1000F0009B219B219B219B219B219B219B219B2120
:100100009B219B219B219B219B219B219B219B210F
:100110009B219B219B219B219B219B219B219B21FF
:10012000882111241FBECFEFD8E0DEBFCDBF15E080
:10013000A0E0B1E0E8ECF6E702C005900D92A03136
:10014000B107D9F727E0A0E1B5E001C01D92AF35B6
:10015000B207E1F70E942D120C94623B51CFCF936E
:10016000DF9300D0CDB7DEB781E089831A8213C058
:100170008A818F5F8A838A81843010F019821BC044
:10018000809190068F5F80939006809190068430D6
:1001900010F01092900680919006282F30E042E3F4
:1001A000429FC001439F900D11248C5B9A4FFC012C
:1001B00080818823E9F28981882369F08091900603
:1001C000282F30E042E3429FC001439F900D11244D
:1001D0008C5B9A4F02C080E090E00F900F90DF910F
:1001E000CF910895CF93DF9300D0CDB7DEB781E0F4
:1001F00089831A8213C08A818F5F8A838A818430BF
:1002000010F019821BC0809191068F5F8093910638
:1002100080919106843010F01092910680919106A1
:10022000282F30E042E3429FC001439F900D1124EC
:100230008C5B9A4FFC0180818823E9F689818823B1
:1002400069F080919106282F30E042E3429FC0017F
:10025000439F900D11248C5B9A4F02C080E090E088
:100260000F900F90DF91CF910895CF93DF9300D03F
:10027000CDB7DEB781E089831A8213C08A818F5F90
:100280008A838A81823010F019821CC08091920684
:100290008F5F8093920680919206823010F01092C8
:1002A000920680919206282F30E042E4429FC001DE
:1002B000439F900D1124835F994FFC0180819181B0
:1002C000892BE1F68981882369F080919206282F95
:1002D00030E042E4429FC001439F900D1124845FAF
:1002E000994F02C080E090E00F900F90DF91CF9186
:1002F0000895CF93DF9300D0CDB7DEB781E0898337
:100300001A8213C08A818F5F8A838A81823010F0BB
:1003100019821CC0809193068F5F80939306809111
:100320009306823010F01092930680919306282F46
:1003300030E042E4429FC001439F900D1124835F4F
:10034000994FFC0180819181892BE1F28981882379
:1003500069F080919306282F30E042E4429FC0016B
:10036000439F900D1124845F994F02C080E090E07C
:100370000F900F90DF91CF910895CF93DF93CDB77A
:10038000DEB780914305DF91CF910895CF93DF933E
:100390001F92CDB7DEB79091430581E0992309F014
:1003A00080E089838981882361F081E0809343051F
:1003B00081EC90E021EC30E0F90120812062FC0129
:1003C000208389810F90DF91CF910895CF93DF93A0
:1003D000CDB7DEB780914305882359F081EC90E0DA
:1003E00021EC30E0F90120812F7DFC012083109267
:1003F00043050000DF91CF910895CF93DF93CDB7F0
:10040000DEB781EC90E0FC018081882F90E0807164
:100410009927892BD1F081EC90E021EC30E0F901B3
:1004200020812F7EFC01208344E850E060E070E0F2
:100430008CE096E00E940F3881EC90E021EC30E0F7
:10044000F90120812061FC0120830000DF91CF9120
:100450000895CF93DF9300D000D000D0CDB7DEB7A2
:100460006B837C838D839E8344E850E060E070E082
:100470008CE096E00E940F3880E291EAA7E0B0E0BD
:100480002B813C814D815E81BC01CD010E9467378B
:10049000DA01C90101979A83898385EC90E029816B
:1004A0003A81232F3327FC01208384EC90E02981BB
:1004B000FC01208381EC90E028E9FC01208382ECA0
:1004C00090E02EE0FC0120831092000100002696AF
:1004D0000FB6F894DEBF0FBECDBFDF91CF91089568
:1004E000CF93DF931F92CDB7DEB781E080930001F9
:1004F00081EC90E0FC01108269DF44E850E060E0AC
:1005000070E08CE096E00E940F38198210C089815B
:10051000282F30E042E3429FC001439F900D1124F9
:100520008C5B9A4FFC01108289818F5F898389815E
:10053000843068F300000F90DF91CF910895CF933E
:10054000DF931F92CDB7DEB7898389818093100531
:1005500080911005882339F085E893E0E7D081E0A9
:1005600091E009D003C08AE391E005D000000F902C
:10057000DF91CF910895CF93DF9300D000D01F92E9
:10058000CDB7DEB79D838C8381E0898380910001A4
:10059000882311F0898128C08C819D81892B19F1D4
:1005A00021DE9B838A8307C00000E7DE8823E9F70A
:1005B00019DE9B838A838A819B81892BA9F38A8197
:1005C0009B81892B81F08D818F938C818F938B817F
:1005D0008F938A818F930E9452380F900F900F90C3
:1005E0000F90D4DE198289810F900F900F900F9099
:1005F0000F90DF91CF910895CF93DF93CDB7DEB702
:1006000081E491E0B8DF0000DF91CF910895CF93AE
:10061000DF9300D000D0CDB7DEB7809100018823F2
:1006200009F05CC080911005882309F459C087E85F
:1006300093E0892F8F9387E893E08F938EE893E080
:10064000892F8F938EE893E08F9389EA93E0892F27
:100650008F9389EA93E08F9381E195E0892F8F93BF
:1006600081E195E08F930E9452388DB79EB708962E
:100670000FB6F894DEBF0FBECDBF000081E195E05C
:100680007ADF8823D9F7000078DE8823E9F780E154
:1006900090E09C838B831A82198217C00000298105
:1006A0003A8143E2429FC001439F900D11248B5A2F
:1006B0009E4F61DF882399F700005FDE8823E9F70A
:1006C00089819A8101969A83898329813A818B81D4
:1006D0009C812817390714F31ED003C0000001C005
:1006E00000000F900F900F900F90DF91CF91089521
:1006F000CF93DF93CDB7DEB780911005882321F02B
:100700008CE391E038DF03C08AE391E034DF00003E
:10071000DF91CF910895CF93DF93CDB7DEB78AE312
:1007200091E029DF0000DF91CF910895CF93DF930F
:1007300000D0CDB7DEB79A8389838A818F93898170
:100740008F9381E091E0892F8F9381E091E08F93E7
:100750000E9452380F900F900F900F9000000F9052
:100760000F90DF91CF910895CF93DF931F92CDB774
:10077000DEB789838981809311051092120581E18A
:1007800095E0F9DE00000F90DF91CF910895CF93AF
:10079000DF9300D0CDB7DEB79A83898389819A81B0
:1007A000892B11F481E015C089819A810E941D383E
:1007B000C39710F081E00DC089819A8142E350E037
:1007C000BC0181E195E00E94263881E195E0D3DE0D
:1007D00080E00F900F90DF91CF910895CF93DF933A
:1007E00000D000D0CDB7DEB79A8389837C836B833A
:1007F00081E091E0892F8F9381E091E08F938A814E
:100800008F9389818F938C818F938B818F938DEBC5
:1008100093E0892F8F938DEB93E08F9381E195E0A7
:10082000892F8F9381E195E08F930E9452388DB785
:100830009EB70A960FB6F894DEBF0FBECDBF81E11A
:1008400095E099DE00000F900F900F900F90DF91D0
:10085000CF910895CF93DF93CDB7DEB763970FB6EF
:10086000F894DEBF0FBECDBF8E874F87588B698B44
:100870007A8B2B8B81E089838091F3039091F40331
:100880009D838C8328E0CE010696FC01322F1192C5
:100890003A95E9F784E28A838BE38B838F85988985
:1008A000A989BA89892B8A2B8B2B09F440C08F85A3
:1008B0009889A989BA890697A105B105D0F48F85D1
:1008C0009889292F2F938F9387EC93E0892F8F930B
:1008D00087EC93E08F93CE010496292F2F938F936B
:1008E0000E9452380F900F900F900F900F900F9022
:1008F0001EC08A898F9389898F9388898F938F856A
:100900008F938BEC93E0892F8F938BEC93E08F93F5
:10091000CE010496292F2F938F930E9452388DB7C2
:100920009EB708960FB6F894DEBF0FBECDBF8E857A
:10093000833019F481E28A830AC08E85823019F4EB
:100940008FE38B8304C08E85813009F01982898101
:10095000882309F48AC080911005882309F44DC0CA
:100960008B89882329F181E091E0892F8F9381E0A1
:1009700091E08F93CE010496292F2F938F938FECC4
:1009800093E0892F8F938FEC93E08F9381E195E033
:10099000892F8F9381E195E08F930E945238EDB7B4
:1009A000FEB738960FB6F894DEBF0FBECDBF5AC063
:1009B00081E091E0892F8F9381E091E08F93CE01C8
:1009C0000496292F2F938F938CED93E0892F8F938B
:1009D0008CED93E08F9381E195E0892F8F9381E1F6
:1009E00095E08F930E9452388DB79EB708960FB648
:1009F000F894DEBF0FBECDBF35C08B81482F50E0CD
:100A00008B89882319F083EE93E002C080E090E0A8
:100A10002A81222F30E0652F6F934F93492F4F93F8
:100A20008F93CE010496492F4F938F93832F8F93EB
:100A3000822F8F9385EE93E0892F8F9385EE93E03D
:100A40008F9381E195E0892F8F9381E195E08F93DA
:100A50000E945238EDB7FEB73C960FB6F894DEBF51
:100A60000FBECDBF81E195E086DD000063960FB635
:100A7000F894DEBF0FBECDBFDF91CF910895CF9325
:100A8000DF93CDB7DEB727970FB6F894DEBF0FBE62
:100A9000CDBF8B837D836C835F834E8384E28983A8
:100AA0008BE38A838B81833019F481E2898305C0CB
:100AB0008B81823011F48FE38A8380911005882323
:100AC00041F181E091E0892F8F9381E091E08F9354
:100AD0008F818F938E818F938D818F938C818F9354
:100AE0008DEF93E0892F8F938DEF93E08F9381E1CA
:100AF00095E0892F8F9381E195E08F930E94523882
:100B00008DB79EB70A960FB6F894DEBF0FBECDBF65
:100B10002CC08A81282F30E08981882F90E0432FD4
:100B20004F932F932F812F932E812F932D812F93CE
:100B30002C812F93292F2F938F9387E094E0892F77
:100B40008F9387E094E08F9381E195E0892F8F93D5
:100B500081E195E08F930E9452388DB79EB70C9635
:100B60000FB6F894DEBF0FBECDBF81E195E003DD87
:100B7000000027960FB6F894DEBF0FBECDBFDF9101
:100B8000CF910895CF93DF93CDB7DEB729970FB6F6
:100B9000F894DEBF0FBECDBF8887698781E0898367
:100BA00084E28A838BE38B838885833019F481E226
:100BB0008A830AC08885823019F48FE38B8304C04E
:100BC0008885813009F0198280911005882381F091
:100BD0008985882319F481E194E002C084E194E0DE
:100BE0009E012C5F3F4FBC01C9010E9416381AC0FC
:100BF0008985882F90E0292F2F938F9388E194E0A7
:100C0000892F8F9388E194E08F93CE010496292F4A
:100C10002F938F930E9452380F900F900F900F9048
:100C20000F900F908981882309F456C08091100598
:100C3000882329F181E091E0892F8F9381E091E071
:100C40008F93CE010496292F2F938F938BE194E0FD
:100C5000892F8F938BE194E08F9381E195E0892F29
:100C60008F9381E195E08F930E9452388DB79EB7A4
:100C700008960FB6F894DEBF0FBECDBF2AC08B8199
:100C8000282F30E08A81882F90E0432F4F932F93B5
:100C90009E012C5F3F4F432F4F932F93292F2F936C
:100CA0008F9386E294E0892F8F9386E294E08F936E
:100CB00081E195E0892F8F9381E195E08F930E94E8
:100CC00052388DB79EB70A960FB6F894DEBF0FBEA6
:100CD000CDBF81E195E04FDC000029960FB6F89476
:100CE000DEBF0FBECDBFDF91CF910895CF93DF93CD
:100CF000CDB7DEB786E0E1E3F4E0A1E1B5E0019035
:100D00000D928A95E1F781E195E035DC0000DF91F5
:100D1000CF910895CF93DF93CDB7DEB72A970FB663
:100D2000F894DEBF0FBECDBF98878F837A8769871F
:100D30008091F3039091F4039A83898324E0CE0198
:100D40000396FC01322F11923A95E9F788858F932B
:100D50008F818F9387E394E0892F8F9387E394E0CB
:100D60008F93CE0101969F938F930E9452380F90DC
:100D70000F900F900F900F900F901092110580918F
:100D80001005882309F450C089859A85892B41F183
:100D900081E091E0892F8F9381E091E08F93CE01E4
:100DA00001969F938F938A858F9389858F938DEF7B
:100DB00093E0892F8F938DEF93E08F9381E195E0FE
:100DC000892F8F9381E195E08F930E9452388DB7E0
:100DD0009EB70A960FB6F894DEBF0FBECDBF48C0CF
:100DE00081E091E0892F8F9381E091E08F93CE0194
:100DF00001969F938F938CED93E0892F8F938CEDC9
:100E000093E08F9381E195E0892F8F9381E195E0C5
:100E10008F930E945238EDB7FEB738960FB6F8940C
:100E2000DEBF0FBECDBF24C089859A85892B01F115
:100E3000CE0101969F938F938A858F9389858F9397
:100E40008AE394E0892F8F938AE394E08F9381E182
:100E500095E0892F8F9381E195E08F930E9452381E
:100E60008DB79EB708960FB6F894DEBF0FBECDBF04
:100E700080911105882319F081E195E07CDB000069
:100E80002A960FB6F894DEBF0FBECDBFDF91CF918B
:100E90000895A89504B603FE03C094B7987094BF54
:100EA000833061F484B7877F84BFE0E6F0E080811F
:100EB000886180831082109206070895813041F482
:100EC000E0E6F0E090819861908398E6908311C00D
:100ED000811108C0E0E6F0E090819861908396E48B
:100EE000908307C0E0E6F0E090819861908398E4F9
:100EF000908391E0811101C090E0909306070895DE
:100F00001F920F9200905F000F921124EF92FF92B8
:100F10000F931F932F933F934F935F936F937F9301
:100F20008F939F93AF93BF93EF93FF93CF93DF93F1
:100F300000D01F92CDB7DEB70E9402378091B6066F
:100F40009091B706A091B806B091B9060196A11D7F
:100F5000B11D8093B6069093B706A093B806B093E0
:100F6000B9068091EF06882309F42AC28091F00621
:100F7000882309F487C18091F5069091F606892BA4
:100F800049F08091F5069091F60601979093F60648
:100F90008093F5068091F1069091F206A091F306F8
:100FA000B091F406892B8A2B8B2B09F409C280910E
:100FB000EB069091EC06A091ED06B091EE06892B20
:100FC0008A2B8B2B09F45FC080E090E00E94EF3603
:100FD000DC01CB018093B2069093B306A093B406D4
:100FE000B093B5062091B2063091B3064091B40695
:100FF0005091B5068091B6069091B706A091B806BB
:10100000B091B906281739074A075B0781F080912C
:10101000B6069091B706A091B806B091B906809334
:10102000B2069093B306A093B406B093B506209190
:10103000B2063091B3064091B4065091B506809146
:10104000EB069091EC06A091ED06B091EE06281704
:1010500039074A075B07B8F01092F1061092F206C2
:101060001092F3061092F4061092EB061092EC0622
:101070001092ED061092EE0680E00E942823109256
:10108000EF061092F0068091F1069091F206A09181
:10109000F306B091F406181619061A061B060CF092
:1010A000A2C08091F1069091F206A091F306B09152
:1010B000F4060197A109B1098093F1069093F20615
:1010C000A093F306B093F4068091F5069091F6068E
:1010D000892B71F58091E3069091E4069C0140E034
:1010E00050E08091F1069091F206A091F306B09144
:1010F000F406281739074A075B07D1F480911201DB
:10110000909113019093F6068093F50680910C015F
:101110000E943E1E9093150180931401198240E0B5
:1011200050E0CE010196BC018FEC96E00E94681E53
:101130008091F1069091F206A091F306B091F40629
:10114000892B8A2B8B2B09F03BC180911001909148
:101150001101892B79F180E00E94282380911001F0
:10116000909111012091F1063091F2064091F30621
:101170005091F406092E000CAA0BBB0B79018A01D1
:10118000E81AF90A0A0B1B0BD801C7018093F10674
:101190009093F206A093F306B093F40681E089835E
:1011A00040E050E0CE010196BC018BEB96E00E943E
:1011B000681E06C180910E0190910F01092E000C4E
:1011C000AA0BBB0B8093F1069093F206A093F30653
:1011D000B093F40680910D010E943E1E909315017C
:1011E00080931401EDC08091F1069091F206A091D8
:1011F000F306B091F406BB230CF0E2C08091F10637
:101200009091F206A091F306B091F4060196A11D0B
:10121000B11D8093F1069093F206A093F306B0936C
:10122000F4068091F1069091F206A091F306B09138
:10123000F406892B8A2B8B2B09F0C2C080910E01FA
:1012400090910F01092E000CAA0BBB0B8093F106A5
:101250009093F206A093F306B093F40680910D01EB
:101260000E943E1E909315018093140181E08A83B1
:10127000CE01029640E050E0BC018BEB96E00E946C
:10128000681E9EC08091E7069091E806A091E9064D
:10129000B091EA06892B8A2B8B2B09F491C080E050
:1012A00090E00E94EF36DC01CB018093B206909370
:1012B000B306A093B406B093B5062091B206309160
:1012C000B3064091B4065091B5068091B606909150
:1012D000B706A091B806B091B906281739074A0792
:1012E0005B0781F08091B6069091B706A091B80691
:1012F000B091B9068093B2069093B306A093B4065A
:10130000B093B5062091B2063091B3064091B40671
:101310005091B5068091E7069091E806A091E90604
:10132000B091EA06281739074A075B0708F448C056
:101330008091E5069091E606892BA1F08091E50663
:101340009091E606919581959109092E000CAA0BC2
:10135000BB0B8093F1069093F206A093F306B09333
:10136000F40623C080910E0190910F01092E000C0C
:10137000AA0BBB0B8093F1069093F206A093F306A1
:10138000B093F40680910D010E943E1E90931501CA
:101390008093140181E08B83CE01039640E050E0FE
:1013A000BC018BEB96E00E94681E80911201909127
:1013B00013019093F6068093F50681E08093F00682
:1013C0008091AB06882381F08091AB068150809399
:1013D000AB068091AB068823D1F481E00E94B62948
:1013E00080E00E94952913C080911601882379F02E
:1013F00080911601815080931601809116018823F7
:1014000031F481E00E94952980E00E94B629000015
:101410000F900F900F90DF91CF91FF91EF91BF91BF
:10142000AF919F918F917F916F915F914F913F917C
:101430002F911F910F91FF90EF900F9000925F00FE
:101440000F901F9018951F920F9200905F000F92BF
:1014500011242F933F934F935F936F937F938F93B9
:101460009F93AF93BF93EF93FF93CF93DF93CDB74A
:10147000DEB72C97DEBFCDBF8091AC069091AD0654
:1014800001969093AD068093AC068091EF06882379
:1014900009F48AC08091F006882309F485C0809100
:1014A000F1069091F206A091F306B091F406181699
:1014B00019061A061B060CF05FC080910807909170
:1014C0000907892B09F44BC08091080790910907FF
:1014D00001979093090780930807809108079091DE
:1014E0000907892B09F060C09E01255F3F4FCE019F
:1014F0000A96A901BC0180E090E00E94681E8093DA
:101500000A078A85882319F58B85882301F1809144
:101510000D010E943E1E909315018093140181E0FD
:101520008A87CE010A9640E050E0BC018BEB96E042
:101530000E94681E9E01255F3F4FCE010A96A901B9
:10154000BC0180E090E00E94681E80930A078091B1
:101550000A07882349F181E00E94E72225C0809193
:101560000A070E94282380911401909115019093FD
:1015700009078093080718C08091F1069091F20640
:10158000A091F306B091F406892B8A2B8B2B61F482
:1015900080910A07882341F010920A0780E00E9498
:1015A000282380E00E94E722809107078823B9F072
:1015B00090910B0781E0992309F080E080930B075D
:1015C00080910B07882331F080910A016AE10E9423
:1015D000082C05C080910B016AE10E94082C8091C3
:1015E0000C07882309F078C08FEF80930D071C86C5
:1015F00032C08C85882F90E0880F991F895E9E4F9E
:10160000FC0180819181892BA1F08C85882F90E04D
:101610009C01220F331F295E3E4FF9012081318149
:1016200021503109880F991F895E9E4FFC0131833B
:1016300020838C85882F90E0880F991F895E9E4FAC
:10164000FC0180819181892B19F48C8580930D0791
:101650008C858F5F8C878C85823058F280910D0746
:1016600088230CF40EC180910D07082E000C990BF5
:1016700020910D07022E000C330B220F331F2D5B20
:101680003B4FF90120813181880F991F895E9E4F60
:10169000FC01318320838CE790E02CE730E0F901F6
:1016A0002081422F407F20910D07022E000C330B2A
:1016B0002F5B3B4FF9012081242BFC0120838AE71B
:1016C00090E02AE730E0F90120812064FC012083CA
:1016D00081E080930C07D5C08AE790E0FC0180810F
:1016E000882F90E080749927892B09F0CAC088E779
:1016F00090E0FC01808191819C838B838B819C8114
:101700009C0140E050E08CE494E0DC010E94BA3798
:10171000DC01CB01072E7AE0B695A79597958795C2
:101720007A95D1F7702D9E838D8380910D07082EB9
:10173000000C990B880F991F8350994FFC018081F1
:1017400091819A83898341E02D813E8189819A81AB
:101750008217930708F040E04F838F81882349F078
:101760002D813E8189819A81A901481B590BCA01AB
:1017700008C029813A818D819E81F901E81BF90B0E
:10178000CF019987888780910D07082E000C990B4F
:101790008550994F21E0FC01208380910D0788231B
:1017A00009F04AC080910D07082E000C990B880F94
:1017B000991F855E9E4FFC01208131818885998526
:1017C0002817390798F48D819E819A8389838091A7
:1017D0000D07082E000C990B880F991F895E9E4FEC
:1017E00024E630E0FC01318320833BC08F818823D5
:1017F00031F089819A8101969A83898309C088850D
:101800009985892B29F089819A8101979A83898307
:1018100081E08093AE0689819A81803A944018F0E5
:10182000109209011EC089819A81893B9240C8F0BB
:1018300081E08093090115C080910D07813089F402
:101840008D819E819A8389838D819E81CC01A0E0C8
:10185000B0E08093010790930207A0930307B09331
:10186000040780910D07082E000C990B880F991F13
:101870008350994F29813A81FC0131832083109252
:101880000C0700002C960FB6F894DEBF0FBECDBF3C
:10189000DF91CF91FF91EF91BF91AF919F918F9188
:1018A0007F916F915F914F913F912F910F90009297
:1018B0005F000F901F9018951F920F9200905F008D
:1018C0000F9211242F933F934F935F936F937F93C6
:1018D0008F939F93AF93BF93EF93FF93CF93DF9338
:1018E000CDB7DEB78091BA06882321F087E494E073
:1018F0000E94C7030000DF91CF91FF91EF91BF914C
:10190000AF919F918F917F916F915F914F913F9197
:101910002F910F9000925F000F901F9018951F92CB
:101920000F9200905F000F9211248F939F93EF937B
:10193000FF93CF93DF931F92CDB7DEB78091B106AF
:10194000882331F186E290E0FC01908180911F01B3
:101950008927898386E290E0FC01808180931F01C2
:1019600089818823B9F08981882F90E08470992734
:10197000892B89F086E290E0FC018081882F90E03D
:1019800084709927892B39F481E08093AA0603C0DB
:10199000000001C000000F90DF91CF91FF91EF9107
:1019A0009F918F910F9000925F000F901F9018955C
:1019B0001F920F9200905F000F9211242F933F937C
:1019C0004F935F936F937F938F939F93AF93BF9347
:1019D000EF93FF93CF93DF93CDB7DEB7109234012F
:1019E0000E949C1D80910607882369F48091200144
:1019F000882349F080E690E020E630E0F90120817C
:101A00002064FC01208380912001882359F080917B
:101A100020018150809320018091BA06882311F023
:101A20000E94FC020000DF91CF91FF91EF91BF91E6
:101A3000AF919F918F917F916F915F914F913F9166
:101A40002F910F9000925F000F901F9018951F929A
:101A50000F9200905F000F921124EF92FF920F936C
:101A60001F932F933F934F935F936F937F938F9326
:101A70009F93AF93BF93EF93FF93CF93DF93CDB734
:101A8000DEB72A97DEBFCDBF86EC90E0FC018081F7
:101A9000898380910E0790910F07892B31F40E9462
:101AA000350190930F0780930E0780910E07909158
:101AB0000F07892B09F46AC38981882F90E00E945F
:101AC0000738898383E590E0FC0110828091BA0693
:101AD000882309F424C280911007882339F01982E1
:101AE0008091100781508093100714C089818B3139
:101AF00089F4198280911107853148F4809111078A
:101B0000882F90E08E5E984FFC018081898382E06F
:101B10008093100789818D3009F069C08091270773
:101B2000882309F446C080911107882309F43EC038
:101B300080910E0790910F0722E0FC0120832091F5
:101B40000E0730910F078091280790912907A091E7
:101B50002A07B0912B07F9019283818380912C078A
:101B60008823E1F040910E0750910F0780912C07D8
:101B7000882F90E0BC016150710980912D07882F5A
:101B800090E0E5E1E69F9001E79F300D1124240FDE
:101B9000351F820F931F0396FC011082809111075D
:101BA000882F90E08E5E984FFC0110820E948B037C
:101BB00009C080910E0790910F072FEF3FEFFC01B6
:101BC000328321831092110710922D07109228075B
:101BD0001092290710922A0710922B0710922C07B7
:101BE00010920F0710920E0710922707CFC289811B
:101BF000882309F4CBC280911107882F90E08E5E74
:101C0000984F2981FC01208380911107882309F4D2
:101C10000FC189818F3709F06CC080911107815005
:101C20008093110780912C07882309F03FC02091F1
:101C300028073091290740912A0750912B0780915E
:101C40001107882F90E08E5E984FFC018081882FCD
:101C500090E0A0E0B0E079018A01E81AF90A0A0BE5
:101C60001B0BD801C7018093280790932907A093E5
:101C70002A07B0932B078091280790912907A091FC
:101C80002A07B0912B072AE030E040E050E0BC0189
:101C9000CD010E946737DA01C9018093280790932C
:101CA0002907A0932A07B0932B0731C180912D07F4
:101CB000882331F080912D07815080932D0727C113
:101CC00020910E0730910F0780912C07482F50E08C
:101CD00065E1649FC001659F900D1124820F931FE1
:101CE0000396FC01108280912C07815080932C0771
:101CF0000EC189818032A9F580911107882F90E06B
:101D000001978E5E984FFC018081803211F4198218
:101D100079C080912C078823E1F040910E07509103
:101D20000F0780912C07882F90E0BC01615071094A
:101D300080912D07882F90E0E5E1E69F9001E79FD5
:101D4000300D1124240F351F820F931F0396FC01C1
:101D5000108280912C078F5F80932C0710922D07A3
:101D600051C080912C07882361F5809128079091BC
:101D70002907A0912A07B0912B07880F991FAA1F46
:101D8000BB1F9C01AD01220F331F441F551F220FA3
:101D9000331F441F551F280F391F4A1F5B1F89819E
:101DA000882F90E0A0E0B0E0820F931FA41FB51F22
:101DB0008093280790932907A0932A07B0932B07B5
:101DC00021C040910E0750910F0780912C07882F5A
:101DD00090E0BC016150710980912D0791E0980F4E
:101DE00090932D07882F90E0E5E1E69F9001E79F13
:101DF000300D1124240F351F820F931F0396298164
:101E0000FC01208380911107882F90E001969C832C
:101E10008B8385E190E09E838D832B813C818D8136
:101E20009E81281739070CF4C901809311076FC0F0
:101E300089818F3719F08981803211F4198267C046
:101E400010922C07109228071092290710922A0747
:101E500010922B078091280790912907A0912A07BB
:101E6000B0912B07880F991FAA1FBB1F9C01AD01C2
:101E7000220F331F441F551F220F331F441F551FAE
:101E8000280F391F4A1F5B1F8981882F90E0A0E02F
:101E9000B0E0820F931FA41FB51F80932807909373
:101EA0002907A0932A07B0932B071A8215C0209107
:101EB0000E0730910F078A81482F50E065E1649F3B
:101EC000C001659F900D1124820F931F0396FC01A2
:101ED00010828A818F5F8A838A81833040F381E018
:101EE0008093270780911107882F90E001969887AB
:101EF0008F8385E190E09A8789872F81388589854E
:101F00009A85281739070CF4C90180931107898134
:101F1000882309F43BC189810E94B40337C18981B8
:101F2000843219F089818132E9F51092110780918C
:101F30000E0790910F072981213211F423E001C08F
:101F400021E0FC01208310922D07109228071092A7
:101F5000290710922A0710922B0781E08093270708
:101F600010922C0718C020910E0730910F07809116
:101F70002C07482F50E065E1649FC001659F900DDC
:101F80001124820F931F0396FC01108280912C076D
:101F90008F5F80932C0780912C07833020F3109261
:101FA0002C07E7C080912707882309F4C5C08981E1
:101FB0008C3239F089818B3321F089818F3309F09C
:101FC00069C080912C078823E1F040910E07509161
:101FD0000F0780912C07882F90E0BC016150710998
:101FE00080912D07882F90E0E5E1E69F9001E79F23
:101FF000300D1124240F351F820F931F0396FC010F
:10200000108280912C078F5F80932C0710922D07F0
:1020100089818B33B1F480911107843078F020915D
:102020000E0730910F078091280790912907A09102
:102030002A07B0912B07F901928381831092270719
:102040001FC089818F33E1F480910E0790910F07B3
:1020500022E0FC01208380911107843078F02091E8
:102060000E0730910F078091280790912907A091C2
:102070002A07B0912B07F9019283818310922707D9
:1020800080912707882309F074C010920F071092DF
:102090000E076FC080912C07882361F58091280777
:1020A00090912907A0912A07B0912B07880F991FBB
:1020B000AA1FBB1F9C01AD01220F331F441F551FD8
:1020C000220F331F441F551F280F391F4A1F5B1F44
:1020D0008981882F90E0A0E0B0E0820F931FA41FB9
:1020E000B51F8093280790932907A0932A07B093E0
:1020F0002B073FC040910E0750910F0780912C078E
:10210000882F90E0BC016150710980912D0791E00A
:10211000980F90932D07882F90E0E5E1E69F9001BE
:10212000E79F300D1124240F351F820F931F039654
:102130002981FC0120831DC089818D30D1F48091DB
:102140000E0790910F07FC011282118282E38093A7
:10215000110710922D07109228071092290710924C
:102160002A0710922B0710922C0710920F0710923B
:102170000E07809111078F5F8093110780911107DF
:10218000823320F0109227071092110700002A9640
:102190000FB6F894DEBF0FBECDBFDF91CF91FF9198
:1021A000EF91BF91AF919F918F917F916F915F91CF
:1021B0004F913F912F911F910F91FF90EF900F90B2
:1021C00000925F000F901F9018951F920F92009041
:1021D0005F000F9211242F933F934F935F936F9360
:1021E0007F938F939F93AF93BF93EF93FF93CF937F
:1021F000DF93CDB7DEB780912E0790912F07892B03
:1022000031F40E94AF0090932F0780932E07209106
:102210002E0730912F0780913007882F90E0820F92
:10222000931FFC0180818823A9F086EC90E0409107
:102230002E0750912F072091300731E0320F309355
:102240003007222F30E0240F351FF9012081FC01D7
:10225000208316C01092300780912E0790912F078F
:10226000FC0110820E94AF0090932F0780932E07ED
:1022700080912E0790912F07892B11F40E94E6017F
:102280000000DF91CF91FF91EF91BF91AF919F91AE
:102290008F917F916F915F914F913F912F910F900F
:1022A00000925F000F901F9018951F920F92009060
:1022B0005F000F9211242F933F934F935F936F937F
:1022C0007F938F939F93AF93BF93EF93FF93CF939E
:1022D000DF93CDB7DEB78091BA06882321F081E67F
:1022E00094E00E94C7030000DF91CF91FF91EF912E
:1022F000BF91AF919F918F917F916F915F914F911E
:102300003F912F910F9000925F000F901F901895B2
:10231000CF93DF931F92CDB7DEB719820E946B2453
:102320008983A8958981882319F5CE0101960E9499
:102330005F26DC01CB018093B6069093B706A0938D
:10234000B806B093B9068981882391F48091B606C6
:102350009091B706A091B806B091B906BC01CD0125
:102360000E94E33685E08093AB0681E00E946629F7
:1023700089810F90DF91CF910895811130C084B190
:10238000836C84B985B1846885B98AB1806D8AB956
:102390008CE38BB917B888B98CE08093B300E0EB7D
:1023A000F0E0808182608083E1EBF0E080818760F3
:1023B0008083E0E7F0E0808184608083ECE7F0E0F8
:1023C0008081806C8083EAE7F0E080818768808389
:1023D000E9E6F0E0808183608083E89A089514B88C
:1023E00015B81AB81BB817B818B8E0E7F0E0808144
:1023F0008B7F80831092B300E0EBF0E080818D7FD3
:102400008083E1EBF0E08081887F8083ECE7F0E07F
:1024100080818F73808310927A008FE380937E0097
:1024200083E080937F001092680010926B001092FE
:102430006C0010926D00109269001DBA0E9470022B
:102440008FEF80936400F89480E685BF80E485BFB9
:1024500089E083BF889578940895CF93DF93CDB7B3
:10246000DEB7E4970FB6F894DEBF0FBECDBF198676
:102470001B861A860E94B41C80E07FDF789480E07F
:102480000E944907A89560E875E280E090E00E940C
:102490002902A8958091BA06882399F08985882316
:1024A00049F00E948B038BE794E00E94C7030E94CF
:1024B000780309C00E948B030E9407030E947803DF
:1024C00002C00E947606A89500000E94BD018823E4
:1024D000E1F700000E94BD018823E1F781E00E943E
:1024E00049070E94622480930707F894A89578947E
:1024F0008091AE06882311F40C94321B809105075D
:10250000882311F00C94321B8091FD069091FE06F9
:10251000893B924010F40C94321BFADE882311F0B0
:102520000C94321B81E0809305070C94321B8A8542
:102530009B85FC01818192819D878C878C859D85FF
:102540008831FDE19F0709F42EC789312DE19207FB
:10255000C8F58E31E3E09E0709F409C58F31F3E039
:102560009F07B0F48035910509F420C281359105AB
:1025700028F4CF9709F47CC70C94061B8435910589
:1025800009F4F6C58531934009F415C20C94061B75
:102590008438E3E09E0709F48AC28538F3E09F0798
:1025A00030F48136934009F48AC60C94061B8F3AA6
:1025B000E3E09E0709F4AAC0863A9C4109F441C7AA
:1025C0000C94061B8D3A22E2920709F487C18E3AD9
:1025D000E2E29E07C8F48238FEE19F0709F4D8C002
:1025E00083382EE1920728F48D309E4151F10C94EE
:1025F000061B813DFEE19F0709F480C68E3691429D
:1026000009F422C10C94061B803DE3E29E0709F405
:10261000F0C4813DF3E29F0750F48A3923E2920728
:1026200009F4B2C08F3C934209F414C7EFC7873F47
:10263000F3E29F0709F4D4C28137944209F4E5C656
:10264000E5C71E868A859B85FC018381882391F1DD
:102650008A859B85FC01808D882361F18A859B8515
:10266000FC0183818F878A859B8548960E94C437A9
:102670008E878F85853559F48E8580930A018E85E6
:10268000882F90E067E874E00E948A063EC08F853C
:10269000843459F48E8580930B018E85882F90E0C9
:1026A0006DE874E00E948A0630C083E994E00E94DD
:1026B000C7032BC080910B01282F30E080910A01C5
:1026C000882F90E0432F4F932F93292F2F938F9391
:1026D00082EA94E0892F8F9382EA94E08F9384E9D1
:1026E00096E0892F8F9384E996E08F930E94523869
:1026F0008DB79EB708960FB6F894DEBF0FBECDBF5C
:1027000084E996E00E94C703A2C7A1C70E94892955
:1027100089838A859B85FC018381882341F18A8591
:102720009B8503960E94C4378983F8940E947002A7
:10273000789489810E94B62981E09981992309F0D2
:1027400080E08093BA068091BA060E949529809114
:10275000BA060E949F028981823019F410921601F4
:1027600006C060E875E280E090E00E942902809156
:10277000BA06882309F454C78981882F90E060E065
:1027800070E00E948A064CC782E00E944907FFCF92
:102790008A859B85FC018381888B8889803369F5D4
:1027A00080E090E00E94EF36DC01CB012B2F2F93CD
:1027B0002A2F2F93292F2F938F938FEA94E0892F1D
:1027C0008F938FEA94E08F9384E996E0892F8F931B
:1027D00084E996E08F930E9452388DB79EB7089691
:1027E0000FB6F894DEBF0FBECDBF44E956E063EBF1
:1027F00074E083E00E943F0515C78889813341F466
:1028000047EB54E069EB74E083E00E943F050AC7A0
:102810008889823351F4109216014DEB54E069EB34
:1028200074E083E00E943F05FDC68889833321F46C
:1028300083E080931601F6C688898A3509F0F2C6CE
:1028400088E780931601EEC68A859B85FC0183810B
:10285000813431F481E00E942C240E949C1D0BC025
:102860008A859B85FC018381833429F480E00E9462
:102870002C240E949C1D0E946224809307070E94C2
:102880005324898B8989813049F08989882319F4F7
:102890008FEB94E005C082EC94E002C086EC94E0FB
:1028A000292F2F938F9389EC94E0892F8F9389ECB4
:1028B00094E08F9384E996E0892F8F9384E996E0E2
:1028C0008F930E9452380F900F900F900F900F909F
:1028D0000F9084E996E00E94C703B9C685E290E0B4
:1028E00025E230E0F90120812068FC0120838A85FF
:1028F0009B85FC018381882309F44BC08A859B85D5
:10290000FC0183818D34C1F58A859B85FC01808D16
:10291000882391F18A859B8548960E94C4379093BD
:1029200032078093310780913107909132079B8B5A
:102930008A8B1D8A1C8A8FEF90E09F8B8E8B2A8951
:102940003B898E899F89821793074CF02C893D899A
:102950008A899B898217930724F4C90102C08E8952
:102960009F8990933207809331078091310790912E
:1029700032078093330707C08A859B8503960E94A0
:10298000C43780933307809133070E94BE230E948F
:102990009C1D0E941A248093330780913307882F4F
:1029A00090E061ED74E00E94EE0351C60E949F2406
:1029B0000E949C1D4CC68A859B85FC0183818133C6
:1029C00009F044C0F89481E08EA7CE018E9640E0D5
:1029D00050E0BC018BEB96E00E94681E80910D01D7
:1029E0000E943E1E909315018093140178948FEFFE
:1029F00099ECAAE9BBE38093EB069093EC06A093D5
:102A0000ED06B093EE068FE097E290930F0180936E
:102A10000E0110921101109210018FE097E2A0E0D8
:102A2000B0E08093F1069093F206A093F306B09382
:102A3000F4068FE097E29093F6068093F50681E026
:102A40008093F00681E08093EF06EEC51092F106C8
:102A50001092F2061092F3061092F4061092F0060D
:102A60001092EF0680E00E94282380E00E94E72277
:102A70008A859B85FC018381803349F480E00E9434
:102A8000662983E00E94490781E077DCCDC58A850D
:102A90009B85FC0183818B3209F0C6C580E06DDC2B
:102AA00081E00E94490781E00E946629BDC51A8223
:102AB0001B821C821D828A859B85FC018381833554
:102AC00011F58A859B85FC01808D882359F08A85C4
:102AD0009B8548960E94E137DC01CB018A839B836A
:102AE000AC83BD838A819B81AC81BD81892B8A2B7C
:102AF0008B2B09F461C08A819B81AC81BD81BC01B3
:102B0000CD01C4D559C08A859B85FC01838186345B
:102B100009F052C08A859B85FC01808D882359F07D
:102B20008A859B8548960E94E137DC01CB018A8328
:102B30009B83AC83BD838A819B81AC81BD81892BC2
:102B40008A2B8B2B61F08A819B81AC81BD81809324
:102B5000EB069093EC06A093ED06B093EE06F89486
:102B60001092EF061092F0061092F1061092F20603
:102B70001092F3061092F40678941092E7061092E1
:102B8000E8061092E9061092EA0610920F011092E0
:102B90000E0110921101109210011092E60610928F
:102BA000E5061092BB0610920D01109213011092CF
:102BB000120180E00E9428238A819B81AC81BD8123
:102BC000892B8A2B8B2B11F0B7D730C58091BA0691
:102BD000882309F42BC585ED94E00E94C70326C520
:102BE0008091BA06882309F496C08A859B85FC01EA
:102BF0008381882301F18A859B85FC0180898A3342
:102C000041F58A859B85FC0183898A3311F58A8584
:102C10009B85039644E150E0BC0184E996E00E9464
:102C2000263860E084E996E00E944D2860E070E07C
:102C3000CB012CD50EC080E090E00E945F26DC0125
:102C4000CB018093B6069093B706A093B806B093D5
:102C5000B90680E090E00E94EF36DC01CB01809362
:102C6000B2069093B306A093B406B093B506209134
:102C7000B2063091B3064091B4065091B5068091EA
:102C8000B6069091B706A091B806B091B90628177C
:102C900039074A075B0781F08091B6069091B70625
:102CA000A091B806B091B9068093B2069093B3068E
:102CB000A093B406B093B5068091B2069091B30686
:102CC000A091B406B091B5062B2F2F932A2F2F93E6
:102CD000292F2F938F938FEA94E0892F8F938FEA78
:102CE00094E08F9384E996E0892F8F9384E996E0AE
:102CF0008F930E9452388DB79EB708960FB6F894FE
:102D0000DEBF0FBECDBF44E956E063EB74E083E065
:102D10000E943F058DC48A859B85FC01808181309E
:102D200009F096C08A859B85FC018381882371F117
:102D30008A859B85039644E150E0BC0184E996E0D6
:102D40000E94263860E084E996E00E944D2880E0E9
:102D500090E00E945F26DC01CB018093B606909341
:102D6000B706A093B806B093B9068091B6069091C5
:102D7000B706A091B806B091B906BC01CD010E947A
:102D8000E33660E070E0CB0181D452C480E090E093
:102D90000E94EF36DC01CB018093B2069093B3061C
:102DA000A093B406B093B5062091B2063091B30655
:102DB0004091B4065091B5068091B6069091B70641
:102DC000A091B806B091B906281739074A075B07E2
:102DD00081F08091B6069091B706A091B806B091A7
:102DE000B9068093B2069093B306A093B406B0934D
:102DF000B5068091B6069091B706A091B806B0913D
:102E0000B9062B2F2F932A2F2F93292F2F938F9390
:102E10008FEA94E0892F8F938FEA94E08F9384E96F
:102E200096E0892F8F9384E996E08F930E94523821
:102E30008DB79EB708960FB6F894DEBF0FBECDBF14
:102E400044E956E063EB74E083E00E943F05F0C381
:102E50008A859B85FC018081823009F0E9C380E08E
:102E600090E00E94EF36DC01CB018093B206909394
:102E7000B306A093B406B093B5062091B206309184
:102E8000B3064091B4065091B5068091B606909174
:102E9000B706A091B806B091B906281739074A07B6
:102EA0005B0781F08091B6069091B706A091B806B5
:102EB000B091B9068093B2069093B306A093B4067E
:102EC000B093B5068091B2069091B306A091B40676
:102ED000B091B506209134073091350740913607FF
:102EE0005091370782179307A407B50709F4A0C3C9
:102EF0008091B2069091B306A091B406B091B50648
:102F00002B2F2F932A2F2F93292F2F938F938FEAD5
:102F100094E0892F8F938FEA94E08F9384E996E071
:102F2000892F8F9384E996E08F930E9452388DB752
:102F30009EB708960FB6F894DEBF0FBECDBF44E92A
:102F400056E063EB74E083E00E943F058091B20697
:102F50009091B306A091B406B091B5068093340762
:102F600090933507A0933607B093370761C38A85DE
:102F70009B85FC018381882371F18A859B8503965B
:102F800044E150E0BC018FEC96E00E942638D4D595
:102F90008091CF068823F9F080910C01882F90E072
:102FA000BC018FEC96E0CCD78C509E4F96958795C0
:102FB00096958795969587959C01A5ECB0E20E9421
:102FC000AB37929582958F7089279F708927909350
:102FD000E4068093E3068091BA06882309F42AC3A5
:102FE0008FEC96E00E94C70381EF94E00E94C70334
:102FF00021C380910D018E838A859B85FC0183818D
:10300000893409F059C08A859B85FC01808D88230D
:1030100009F44EC08A859B8548960E94E137DC0101
:10302000CB018E838E81888F85E090E09A8F898F87
:1030300084E190E09C8F8B8F888D282F30E08B8DE2
:103040009C8D8217930754F0888D882F90E0298DEE
:103050003A8D8217930724F4C90102C08B8D9C8D91
:1030600080930C0169D58091CF06882309F473C041
:1030700080910C01882F90E0BC018FEC96E060D726
:103080008C509E4F969587959695879596958795A2
:103090009C01A5ECB0E20E94AB37929582958F70AF
:1030A00089279F7089279093E4068093E30653C095
:1030B00080910C018E834FC08A859B85FC018381A2
:1030C000803509F048C08A859B85FC01808D882366
:1030D00009F43EC08A859B8548960E94E137DC0151
:1030E000CB018E838E818D8F85E090E09F8F8E8FB8
:1030F00084E190E099A388A38D8D282F30E088A1EA
:1031000099A18217930754F08D8D882F90E02E8D12
:103110003F8D8217930724F4C90102C088A199A1A9
:1031200080930D0109D580910D01282F30E082E8B0
:103130009BE1B9010E945437CB012AE030E0B9018C
:103140000E945437CB01909315018093140103C062
:1031500080910D018E838091BA06882309F46CC298
:103160008E81882F90E06AEE74E00E94EE0364C2C4
:1031700080910E0190910F0198878F838A859B859E
:10318000FC018381803321F5809110019091110120
:1031900098878F838A859B85FC01808D882389F0A1
:1031A0008A859B8548960E94E137DC01CB01988790
:1031B0008F838F8198859093110180931001BCD4E7
:1031C00072C0809110019091110198878F836BC01C
:1031D0008A859B85FC0183818133F1F48A859B85F7
:1031E000FC01808D882389F08A859B8548960E9402
:1031F000E137DC01CB0198878F838F81988590938D
:103200000F0180930E0198D44EC080910E019091D1
:103210000F0198878F8347C08A859B85FC01838136
:103220008934F1F48A859B85FC01808D882389F09F
:103230008A859B8548960E94E137DC01CB019887FF
:103240008F838F819885909313018093120174D49A
:103250002AC0809112019091130198878F8323C017
:103260008A859B85FC0183818434E9F48A859B856A
:10327000FC01808D882389F08A859B8548960E9471
:10328000E137DC01CB0198878F838F8198859093FC
:10329000E6068093E50650D406C08091E50690913D
:1032A000E60698878F838091BA06882309F4C6C101
:1032B0008F8198856EEE74E00E94EE03BFC18A850F
:1032C0009B85FC018381882359F08A859B85039621
:1032D00044E150E0BC018BEB96E00E9426382CD4F0
:1032E0008091BA06882309F4ABC18BEB96E00E946B
:1032F000C70381EF94E00E94C703A2C11AA28A8586
:103300009B85FC018381882331F18A859B85039607
:103310000E94E137DC01CB018BA39CA3ADA3BEA32C
:103320008BA19CA1ADA1BEA18FA798ABA9ABBAAB55
:10333000CE018F960E94AB218823C9F08FA598A952
:10334000A9A9BAA98093F7069093F806A093F90665
:10335000B093FA060CC00E944022DC01CB0180939E
:10336000F7069093F806A093F906B093FA068091B9
:10337000F7069091F806A091F906B091FA06892B0C
:103380008A2B8B2B09F45EC18091F7069091F80689
:10339000A091F906B091FA062AA1AC01BD0183E023
:1033A0000E942A044FC18A859B85FC018381882362
:1033B000E9F08A859B8503960E94C43798A78FA35E
:1033C0008FA198A58035910529F461E081E00E94E4
:1033D0008A2208C08FA198A5029721F461E080E0BD
:1033E0000E948A220E946224809307070E94DE22A4
:1033F00089A78A859B85FC018081823009F024C1E0
:1034000069A583E00E94C2051FC181E08093BA06CE
:103410008091BA060E949F02F8940E9470027894EC
:1034200081E00E94952980E00E94B62980EF94E017
:103430000E94960360E875E280E090E00E94290215
:1034400006C18091FD069091FE0663EF74E00E9434
:103450008A06FDC0CE01C3960E940B28882309F07E
:10346000F5C08BA99CA968EF74E00E948A06EEC0A3
:10347000F894A895789481EF94E00E9496030E94B6
:10348000DE22682F83E00E94C205FAD7DC01CB015F
:1034900020E0AC01BD0183E00E942A04F894A895C5
:1034A00078948091FD069091FE069C0140E050E0EA
:1034B00088E690E1DC010E94BA37DC01CB012FEFF6
:1034C00033E040E050E0BC01CD010E946737DA01F3
:1034D000C90184579F4FAF4FBF4F8AA79BA7ACA787
:1034E000BDA78AA59BA564EF74E00E948A0620917F
:1034F000010730910207409103075091040784E1CE
:1035000097E3DC010E94BA37DC01CB012FEF33E0F7
:1035100040E050E0BC01CD010E946737DA01C901EB
:103520008AA79BA7ACA7BDA78AA59BA56DEF74E052
:103530000E948A0680EF94E00E949603F894A89572
:10354000789480E090E00E94EF36DC01CB0180931C
:10355000B2069093B306A093B406B093B50620913B
:10356000B2063091B3064091B4065091B5068091F1
:10357000B6069091B706A091B806B091B906281783
:1035800039074A075B0781F08091B6069091B7062C
:10359000A091B806B091B9068093B2069093B30695
:1035A000A093B406B093B5068091B2069091B3068D
:1035B000A091B406B091B5062B2F2F932A2F2F93ED
:1035C000292F2F938F938FEA94E0892F8F938FEA7F
:1035D00094E08F9384E996E0892F8F9384E996E0B5
:1035E0008F930E9452388DB79EB708960FB6F89405
:1035F000DEBF0FBECDBF44E956E063EB74E083E06D
:103600000E943F05F894A895789421C08091BA064D
:10361000882319F00E9407031AC00E94FD0117C0F9
:10362000000015C0000013C0000011C000000FC052
:1036300000000DC000000BC0000009C0000007C062
:10364000000005C0000003C0000001C00000809120
:10365000BA06882311F00E9478038A859B85FC01B5
:10366000128211820E9479019B878A878A859B85B5
:10367000892B11F00C9497128091AA06882311F4DB
:103680000C9475121092AA060C947512CF93DF93C6
:10369000CDB7DEB760970FB6F894DEBF0FBECDBFD3
:1036A0006D877E878F87988B8D859E85AF85B8893E
:1036B000892B8A2B8B2B79F08D859E85AF85B889D8
:1036C0008093E7069093E806A093E906B093EA0694
:1036D00081E08093EF068091E7069091E806A09143
:1036E000E906B091EA06892B8A2B8B2B09F42CC1B1
:1036F00080910E0190910F01892B09F427C18091CF
:10370000BB06882309F424C180910D01882309F4A4
:1037100021C180911201909113019093F60680933C
:10372000F5068D859E85AF85B889892B8A2B8B2BD5
:10373000E1F0F89480E090E00E945F26DC01CB018C
:103740008093B6069093B706A093B806B093B906D7
:103750008091B6069091B706A091B806B091B906CF
:10376000BC01CD010E94E336789480E090E00E9495
:10377000EF36DC01CB018093B2069093B306A093A1
:10378000B406B093B5062091B2063091B3064091CD
:10379000B4065091B5068091B6069091B706A091F7
:1037A000B806B091B906281739074A075B0781F0B8
:1037B0008091B6069091B706A091B806B091B9066F
:1037C0008093B2069093B306A093B406B093B50667
:1037D0002091E7063091E8064091E9065091EA060B
:1037E0008091B2069091B306A091B406B091B5064F
:1037F000BC01CD010E94D236DC01CB018A839B83C0
:10380000AC83BD838A819B81AC81BD81BB230CF4D9
:1038100098C0198220910E0130910F018091100102
:1038200090911101820F931F9F838E838E819F81C0
:103830009C01990F440B550B8A819B81AC81BD8102
:10384000BC01CD010E948937DC01CB0199878887B3
:103850002091E5063091E60688859985A901481BE7
:10386000590BCA019B878A878A859B85181619067A
:10387000D4F18A859B8522273327281B390B809119
:103880000E0190910F0128173907B4F02E813F8166
:103890008A859B85820F931F919581959109092EA9
:1038A000000CAA0BBB0B8093F1069093F206A09339
:1038B000F306B093F40628C020910E0130910F0159
:1038C0008A859B85820F931F092E000CAA0BBB0BC8
:1038D0008093F1069093F206A093F306B093F4065A
:1038E00081E0898311C08A859B8591958195910995
:1038F000092E000CAA0BBB0B8093F1069093F206E5
:10390000A093F306B093F40689818823A1F0F8947C
:1039100081E08C87CE010C9640E050E0BC018BEB3F
:1039200096E0D6D180910D01A9D190931501809395
:103930001401789402C080E08BD681E08093F00679
:103940000AC080E085D607C0000005C0000003C0A3
:10395000000001C0000060960FB6F894DEBF0FBEF5
:10396000CDBFDF91CF9108950F931F93CF93DF9336
:103970001F92CDB7DEB780E090E00E94F33A8A3A1A
:1039800009F08EC083E390E00E94FB3ADC01CB019A
:103990008093E7069093E806A093E906B093EA06C1
:1039A00087E390E00E94FB3ADC01CB018093EB06B9
:1039B0009093EC06A093ED06B093EE0689E290E0BA
:1039C0000E94F33A80930D018AE290E00E94F33A5C
:1039D00080930C018BE290E00E94003B90930F01DA
:1039E00080930E018DE290E00E94003B90931101C4
:1039F000809310018FE290E00E94003B9093E606D6
:103A00008093E50681E390E00E94003B90931301D0
:103A10008093120119821CC08981082F10E08981CE
:103A2000882F90E08F5F9F4F0E94F33A282FC801A4
:103A30008153994FFC0120838981882F90E0815325
:103A4000994FFC018081882339F089818F5F8983B8
:103A50008981843108F301C0000019821DC0898169
:103A6000082F10E08981882F90E08B5E9F4F0E9485
:103A7000F33A282FC8018554994FFC01208389818E
:103A8000882F90E08554994FFC018081882309F4A8
:103A90004BC089818F5F89838981843100F345C060
:103AA0001092E7061092E8061092E9061092EA06D4
:103AB0001092EB061092EC061092ED061092EE06B4
:103AC00084E180930C0188E080930D018CE390E009
:103AD00090930F0180930E0180EF90E0909311017D
:103AE000809310011092E6061092E5068CE291E0B8
:103AF000909313018093120144E150E061E075E07E
:103B00008FEC96E00E94263844E150E068E075E0D2
:103B10008BEB96E00E9426380FD06AEA80E090E0B6
:103B20000E94053BA89501C0000000000F90DF91A6
:103B3000CF911F910F910895CF93DF9300D0CDB710
:103B4000DEB7A8958091E7069091E806A091E90676
:103B5000B091EA06AC01BD0183E390E00E941C260F
:103B60008091EB069091EC06A091ED06B091EE06E7
:103B7000AC01BD0187E390E00E941C2680910C01FE
:103B8000682F8AE290E00E94DC2580910D01682F69
:103B900089E290E00E94DC2580910E0190910F0156
:103BA000BC018BE290E00E94F92580911001909178
:103BB0001101BC018DE290E00E94F9258091E5069B
:103BC0009091E606BC018FE290E00E94F925809179
:103BD000120190911301BC0181E390E00E94F9254C
:103BE0001A82198211C089819A818153994FFC01EF
:103BF000208189819A818F5F9F4F622FDDD78981D4
:103C00009A8101969A8389838FEC96E00E941D38F1
:103C10009C0189819A818217930728F389819A816F
:103C20008F5F9F4F60E0C8D71A82198211C08981C7
:103C30009A818554994FFC01208189819A818B5EFC
:103C40009F4F622FB9D789819A8101969A83898380
:103C50008BEB96E00E941D389C0189819A81821726
:103C6000930728F389819A818B5E9F4F60E0A4D7E8
:103C700000000F900F90DF91CF910895CF93DF93C5
:103C800000D01F92CDB7DEB78B838B81282F30E019
:103C900040E050E082E89BE1A0E0B0E0BC01CD0153
:103CA0000E948937DA01C9012AE030E040E050E0A3
:103CB000BC01CD010E948937DA01C9019A83898349
:103CC00089819A810F900F900F90DF91CF91089585
:103CD000CF93DF93CDB7DEB728970FB6F894DEBF4A
:103CE0000FBECDBF9C838B837E836D8358874F83AC
:103CF0008B819C81892B09F444C08D819E81892B05
:103D000031F08D819E81FC018081809321018B8126
:103D10009C81FC018081882301F18B819C8190939F
:103D20003907809338078091380790913907FC0153
:103D300080815CD1A82FCB0180933A0790933B07F9
:103D4000A0933C0710923D0710923E0710923F0748
:103D5000109240071092410710C01092390710923C
:103D6000380781E0809341078F819885892B29F05E
:103D70008F81988521E0FC0120831092420780E02A
:103D8000D6C08091380790913907892B09F4C3C0B8
:103D90008091380790913907FC0180818C3321F4A0
:103DA00081E080934207B7C08D819E81892B31F0DD
:103DB000209121018D819E81FC012083809141070A
:103DC000882359F08F819885892B29F08F819885D8
:103DD00021E0FC01208380E0AAC080913F07882376
:103DE00031F080913F07815080933F0794C08091CC
:103DF0004207882371F01092420780914007882380
:103E000009F489C08091400780933F0710924007D2
:103E100082C090913B0780913E07891708F443C008
:103E2000209138073091390780913D078F5F80934B
:103E30003D0780913D07882F90E0820F931FFC0182
:103E4000808189838981882311F5809121018823CC
:103E500051F08091380790913907FC018081898366
:103E600010923D0714C01092390710923807109233
:103E7000420781E0809341078F819885892B29F043
:103E80008F81988521E0FC01208380E050C08981EA
:103E9000ADD0A82FCB0180933A0790933B07A09316
:103EA0003C0710923E0780913A078D3F50F5809174
:103EB0003A07482F80913E0791E0980F90933E0774
:103EC000282F30E081E090E002C0880F991F2A95EA
:103ED000E2F784238A838A81882321F082E0809319
:103EE0003F0702C010923F0781E080934207909104
:103EF0003B0780913E07891770F082E0809340076E
:103F00000AC08FEF80933E071092420780913B07D3
:103F1000845080933F078F819885892B31F02091C1
:103F200041078F819885FC01208380914207289664
:103F30000FB6F894DEBF0FBECDBFDF91CF910895CD
:103F4000CF93DF93CDB7DEB72B970FB6F894DEBFD4
:103F50000FBECDBF998788877B876A8719821B82AE
:103F60001A8222C08A819B8128853985820F931FFE
:103F7000FC0180818C838C818823D9F08C8136D0A0
:103F8000A82FCB018D839E83AF838D818D3F18F445
:103F900089818D5F89838F819981890F89838A8146
:103FA0009B8101969B838A838A819B814497D4F26B
:103FB00001C000008981282F30E080EB94E04A8521
:103FC0005B85BA010E944037CB01AC01249FC00140
:103FD000259F900D349F900D11242B960FB6F894C9
:103FE000DEBF0FBECDBFDF91CF910895CF93DF939A
:103FF00000D000D0CDB7DEB78C838C81882F90E0C5
:10400000092E000CAA0BBB0B40E250E02CE530E07F
:10401000841B950B2817390708F48DC18C5C9F4FC2
:10402000FC010C94A53782E0898382E08A8385E0D5
:104030008B8385C181E0898384E08A8389E08B83D7
:104040007EC185E0898384E08A838BE08B8377C19E
:1040500081E0898383E08A8387E08B8370C1198242
:1040600081E08A8381E08B836AC184E0898384E074
:104070008A8389E08B8363C183E0898383E08A83B9
:1040800089E08B835CC1198284E08A8387E08B831B
:1040900056C1198282E08A8383E08B8350C18EE00F
:1040A000898384E08A838DE08B8349C185E089839D
:1040B00083E08A8389E08B8342C182E0898384E044
:1040C0008A8389E08B833BC183E0898382E08A8392
:1040D00087E08B8334C181E0898382E08A8385E035
:1040E0008B832DC187E0898383E08A838BE08B8378
:1040F00026C186E0898384E08A838BE08B831FC19D
:104100008BE0898384E08A838DE08B8318C182E011
:10411000898383E08A8387E08B8311C1198283E0DE
:104120008A8385E08B830BC181E0898381E08A8368
:1041300083E08B8304C184E0898383E08A8387E002
:104140008B83FDC088E0898384E08A8389E08B8348
:10415000F6C086E0898383E08A8389E08B83EFC0A1
:1041600089E0898384E08A838BE08B83E8C08DE0DB
:10417000898384E08A838DE08B83E1C083E0898337
:1041800084E08A838BE08B83DAC08FE1898385E0CA
:104190008A8383E18B83D3C08EE1898385E08A8320
:1041A00081E18B83CCC08CE1898385E08A838FE0B9
:1041B0008B83C5C088E1898385E08A838DE08B830A
:1041C000BEC080E1898385E08A838BE08B83B7C0A2
:1041D000198285E08A8389E08B83B1C081E089837D
:1041E00085E08A838BE08B83AAC083E0898385E0A6
:1041F0008A838DE08B83A3C087E0898385E08A83EF
:104200008FE08B839CC08FE0898385E08A8381E186
:104210008B8395C08AE2898386E08A8381E18B83E0
:104220008EC083E3898386E08A8383E18B8387C0A2
:104230008CE0898386E08A838FE08B8380C08EE167
:10424000898386E08A8383E18B8379C085E38983D0
:1042500086E08A8383E18B8372C089E0898385E06D
:104260008A838DE08B836BC08DE0898385E08A83B0
:104270008FE08B8364C08DE2898386E08A8383E14B
:104280008B835DC082E0898385E08A838BE08B83AA
:1042900056C087E0898386E08A8381E18B834FC0A3
:1042A00085E1898386E08A838CE08B8348C081E145
:1042B000898385E08A838DE08B8341C08AE089838E
:1042C00085E08A838DE08B833AC081E2898386E032
:1042D0008A838FE08B8333C08CE2898386E08A8374
:1042E00081E18B832CC082E1898386E08A838FE021
:1042F0008B8325C088E4898387E08A8381E18B836F
:104300001EC086E1898386E08A8381E18B8317C0A2
:104310008FEF898387E08A8384E08B8310C08EEFE0
:10432000898387E08A8387E08B8309C08DEF898347
:104330001A821B8204C019821A821B8200008981A2
:104340009A81AB81BC018A2F0F900F900F900F9034
:10435000DF91CF910895CF93DF9300D000D0CDB7F8
:10436000DEB79C838B83198282E08A838B819C8158
:10437000FC0180819181A281B38181159241AA477C
:10438000B105F0F48B819C81FC0180819181A28137
:10439000B381813E9746A543B10590F08B819C8106
:1043A000FC0180819181A281B38180932601909349
:1043B0002701A0932801B093290181E08A8328C0B6
:1043C0008B819C81FC0180819181A281B3818115C7
:1043D0009D44A24DB840E0F48B819C81FC0180811A
:1043E0009181A281B38181309444A549B84080F085
:1043F0008B819C81FC0180819181A281B38180931A
:10440000220190932301A0932401B09325011A82E5
:104410008A81823041F48B819C81FC01108211825F
:104420001282138225C0909130018A81981701F57C
:104430008A81882371F48B819C81FC018081918128
:10444000A281B38121E040E0BC01CD010E94722D28
:104450000DC08B819C81FC0180819181A281B381FF
:1044600021E041E0BC01CD010E94722D81E08983F1
:1044700089810F900F900F900F90DF91CF91089549
:10448000CF93DF93CDB7DEB7809143078823D1F078
:1044900080913001882349F4809122019091230179
:1044A000A0912401B091250110C08091300181308C
:1044B00049F48091260190912701A0912801B091A3
:1044C000290103C080E090E0DC01BC01CD01DF9157
:1044D000CF910895CF93DF9300D000D0CDB7DEB752
:1044E0009A8389837C836B832091320189819A81AD
:1044F000FC01208380913201282F26958B819C819D
:10450000FC01208300000F900F900F900F90DF911F
:10451000CF910895CF93DF93CDB7DEB72A970FB62B
:10452000F894DEBF0FBECDBF89876A8780E090D048
:1045300080E04DD089858130D1F489858093300128
:104540008091260190912701A0912801B091290125
:1045500089839A83AB83BC83CE010196FCDE809174
:104560002B010CD180E078D18A8531D01DC089859E
:104570008823D1F489858093300180912201909124
:104580002301A0912401B09125018D839E83AF83E7
:10459000B887CE010596DFDE809131015DD1809133
:1045A0002A01ECD08A8513D000002A960FB6F89421
:1045B000DEBF0FBECDBFDF91CF910895CF93DF93C4
:1045C000CDB7DEB780913001DF91CF910895CF93C1
:1045D000DF931F92CDB7DEB789838981882351F19C
:1045E00080913001813099F485E290E025E230E05D
:1045F000F90120812E7FFC01208385E290E025E2F5
:1046000030E0F90120812260FC0120831CC085E29A
:1046100090E025E230E0F90120812D7FFC0120832C
:1046200085E290E025E230E0F90120812160FC0183
:10463000208309C085E290E025E230E0F901208185
:104640002C7FFC01208300000F90DF91CF91089513
:10465000CF93DF931F92CDB7DEB7898389818823FB
:1046600019F180914507882309F03EC080913001FF
:10467000813091F461E081E00E94DE2E61E082E011
:104680000E94DE2E8BE290E02BE230E0F9012081E7
:104690002061FC01208304C061E080E00E94DE2EE6
:1046A00081E08093450720C0809145078823E1F091
:1046B00080913001813091F48BE290E02BE230E088
:1046C000F90120812F7EFC01208360E081E00E94BF
:1046D000DE2E60E082E00E94DE2E04C060E080E01A
:1046E0000E94DE2E1092450700000F90DF91CF91BF
:1046F0000895CF93DF93CDB7DEB727970FB6F89421
:10470000DEBF0FBECDBF8F8380913001882361F55E
:10471000809131018130A1F48F81898383EC90E015
:104720009B838A838981882F90E02A813B81281787
:1047300039070CF4C9018F838F818093320115C032
:104740008F818C8383EC90E09E838D838C81882F76
:1047500090E02D813E81281739070CF4C9018F8321
:104760008F818093330101C0000027960FB6F89423
:10477000DEBF0FBECDBFDF91CF910895CF93DF9302
:10478000CDB7DEB727970FB6F894DEBF0FBECDBF0B
:104790008F83809130018823A9F48F81898388E7F2
:1047A00090E09B838A838981882F90E02A813B81D6
:1047B000281739070CF4C90180932A0180912A0136
:1047C0008F8314C08F818C838FEF90E09E838D83C5
:1047D0008C81882F90E02D813E81281739070CF4B9
:1047E000C90180932B0180912B018F8368E18F8118
:1047F0000E94082C8F81882351F485E290E025E205
:1048000030E0F90120812F7BFC01208309C085E283
:1048100090E025E230E0F90120812064FC01208352
:10482000000027960FB6F894DEBF0FBECDBFDF9114
:10483000CF910895CF93DF931F92CDB7DEB70000DD
:1048400068E1CE0101960E94372C8823C9F789813F
:104850000F90DF91CF910895CF93DF931F92CDB743
:10486000DEB7898380913001882369F489818130A2
:1048700051F481E080933101809132013ADF81E08F
:10488000809344070BC01092440780913001882325
:1048900011F410923101809133012BDF00000F9051
:1048A000DF91CF910895CF93DF93CDB7DEB780919D
:1048B0003001882319F48091310101C082E0DF9139
:1048C000CF910895CF93DF93CDB7DEB780914407A2
:1048D000DF91CF910895CF93DF93CDB7DEB740E05E
:1048E00050E0BA0180E40E94D62C882311F081E0C8
:1048F00023C02ED08091300160E00CDE80E03EDFEE
:1049000063E081E00E94192F60E081E00E94DE2ECA
:1049100063E082E00E94192F60E082E00E94DE2EB8
:1049200063E080E00E94192F60E080E00E94DE2EAC
:1049300081E08093430780E0DF91CF910895CF938A
:10494000DF93CDB7DEB79ED00000DF91CF91089501
:10495000CF93DF93CDB7DEB78BE390E00E94F33ABD
:104960008A3A09F04FC080E490E00E94F33A8093C5
:10497000300181E490E00E94FB3ADC01CB0180939E
:10498000220190932301A0932401B093250185E493
:1049900090E00E94F33A80932A0186E490E00E941E
:1049A000FB3ADC01CB018093260190932701A09371
:1049B0002801B09329018AE490E00E94F33A8093A1
:1049C0002B018BE490E00E94FB3ADC01CB01809349
:1049D0002C0190932D01A0932E01B0932F018FE411
:1049E00090E00E94F33A8093320180E590E00E94CB
:1049F000F33A8093330181E590E00E94F33A80938B
:104A000031013CC06AEA8BE390E00E94053B81E003
:104A10008093300180E399E2ADEAB8E0809322010F
:104A200090932301A0932401B093250188E48093FF
:104A30002A0180E39BE2A6E3B0E0809326019093F5
:104A40002701A0932801B093290182E380932B01D1
:104A50008AEA90E0A0E0B0E080932C0190932D01D1
:104A6000A0932E01B0932F0183EC8093320183EC4D
:104A70008093330181E08093310104D00000DF9105
:104A8000CF910895CF93DF93CDB7DEB780913001FA
:104A9000682F80E490E090D08091220190912301D2
:104AA000A0912401B0912501AC01BD0181E490E009
:104AB000C3D080912A01682F85E490E07DD0809159
:104AC000260190912701A0912801B0912901AC0104
:104AD000BD0186E490E0B0D080912B01682F8AE47C
:104AE00090E06AD080912C0190912D01A0912E012F
:104AF000B0912F01AC01BD018BE490E09DD00E94EC
:104B00007C30DC01CB01AC01BD018CE390E094D0A2
:104B100080913201682F8FE490E04ED08091330174
:104B2000682F80E590E048D080913101682F81E5C1
:104B300090E042D00000DF91CF910895CF93DF93B2
:104B400000D000D01F92CDB7DEB76A837B838C8301
:104B50009D8382E089838A819B81AC81BD8181159F
:104B60009444A549B84058F08A819B81AC81BD81AD
:104B700081309D44A24DB84010F4198214C08A813E
:104B80009B81AC81BD81803E9746A543B10558F01D
:104B90008A819B81AC81BD8181309241AA47B10558
:104BA00010F481E0898389810F900F900F900F900E
:104BB0000F90DF91CF910895CF93DF9300D01F9294
:104BC000CDB7DEB79A8389836B8389819A810E94EE
:104BD000F33A982F8B81981729F089819A816B81FC
:104BE0000E94053B00000F900F900F90DF91CF9136
:104BF0000895CF93DF9300D000D0CDB7DEB79A836E
:104C000089837C836B8389819A810E94003B9C010C
:104C10008B819C812817390739F02B813C81898150
:104C20009A81B9010E94183B00000F900F900F90DD
:104C30000F90DF91CF910895CF93DF9300D000D0F4
:104C400000D0CDB7DEB79A8389834B835C836D83B5
:104C50007E8389819A810E94FB3A9B01AC018B8102
:104C60009C81AD81BE81281739074A075B0759F03F
:104C70008B819C81AD81BE8129813A81AC01BD01CE
:104C8000C9010E94133B000026960FB6F894DEBFC0
:104C90000FBECDBFDF91CF910895CF93DF931F92C9
:104CA000CDB7DEB7898321E0CE010196AC0160E08B
:104CB00088E582D400000F90DF91CF910895EF92A4
:104CC000FF920F931F93CF93DF93CDB7DEB7A497D7
:104CD0000FB6F894DEBF0FBECDBF9CA38BA3198285
:104CE0001A821B821C8227E0CE014096FC01322FE3
:104CF00011923A95E9F7CE01409627E0AC0160E0C9
:104D000080EDD8D48F838F81882309F068C12CE08F
:104D1000CE014796FC01322F11923A95E9F784E6CD
:104D200090E0998788878E89882F90E08F709927E7
:104D300028853985820F931F998788878E89829568
:104D40008F70882F90E0880F991F9C01220F331FCE
:104D5000220F331F820F931F28853985820F931FDF
:104D600099878887888599859E8F8D8F8885998575
:104D70008459984F998788878D898F708A878D8904
:104D800082958F70880F982F990F990F890F9A85A8
:104D9000890F8A878A8581508C8F8C898F708B8749
:104DA0008C8982958F70880F982F990F990F890F92
:104DB0009B85890F8B878B858A8F18A21F8E81E038
:104DC0008E8310C0888599856E810E94D7362F8D7D
:104DD00038A1882F90E0820F931F98A38F8F8E8128
:104DE0008F5F8E839E818A85981760F32F8D38A1FF
:104DF0008A8D082E000C990B0197820F931F98A3A0
:104E00008F8F888982958F70880F982F990F990FAF
:104E1000890F8C8788898F709C85890F8C878989F9
:104E200082958F70880F982F990F990F890F8D8712
:104E300089898F709D85890F8D878A89829586954E
:104E4000877081708E878A8982958F708170880FB4
:104E5000982F990F990F890F8D838A898F709D8163
:104E6000890F8D838A898295869586958370817056
:104E70008F878F85882331F48E85882319F08D8163
:104E8000865F8D838D81898F8D85888F8C858F8BB3
:104E90008F89282F880F330B888D482F880F550B4B
:104EA0006CE3649FC001659F900D1124820F931FD6
:104EB0007C01990F000B110B898D282F880F330B64
:104EC000440B550B80E19EE0DC010E94BA37DC0107
:104ED000CB01E80EF91E0A1F1B1F8F8D98A1092E0A
:104EE000000CAA0BBB0B9C01AD0160E871E581E0F1
:104EF00090E00E943137DC01CB01E80EF91E0A1F59
:104F00001B1F8D8D9E8D86549109092E000CAA0BB6
:104F1000BB0B9C01AD0160E873E381EE91E00E9460
:104F20003137DC01CB01E80EF91E0A1F1B1F8D8DE6
:104F30009E8D8554910999230CF403969595879538
:104F400095958795092E000CAA0BBB0B9C01AD0112
:104F500060E871E581E090E00E943137DC01CB012F
:104F6000E80EF91E0A1F1B1F8D8D9E8D019724E6EA
:104F700030E0B9010E945437CB01092E000CAA0B76
:104F8000BB0B9C01AD0160E87EEA8EEF9FEF0E94B3
:104F90003137DC01CB01E80EF91E0A1F1B1F8D8D76
:104FA0009E8D855D9E4F20E931E0B9010E94543706
:104FB000CB01092E000CAA0BBB0B9C01AD0160E8D4
:104FC00071E581E090E00E943137DC01CB018E0D6C
:104FD0009F1DA01FB11F89839A83AB83BC838BA1C4
:104FE0009CA1892B29F08BA19CA12F81FC012083FE
:104FF00089819A81AB81BC81BC01CD01A4960FB699
:10500000F894DEBF0FBECDBFDF91CF911F910F91FE
:10501000FF90EF900895CF93DF9300D000D01F92C0
:10502000CDB7DEB79D838C831A821B82CE01029698
:1050300022E0AC0161E180ED3DD389838981882341
:1050400019F58A81282F30E08C819D81FC01318304
:1050500020838C819D81FC0180819181382F2227C2
:105060008C819D81FC01318320838C819D81FC0199
:10507000208131818B81882F90E0282B392B8C81E6
:105080009D81FC013183208389810F900F900F90C7
:105090000F900F90DF91CF910895CF93DF93CDB70D
:1050A000DEB762970FB6F894DEBF0FBECDBF998B07
:1050B000888B6A8B19861A861B8681E08C871D86F1
:1050C0001E861F8680ED97E09A8389838889998957
:1050D0004296FC018081805389878985282F8889A1
:1050E00099894196FC018081882F90E0C097829534
:1050F0009295907F9827807F9827822B898788892F
:1051000099890F96FC01808180538A878A85282F90
:10511000888999890E96FC018081882F90E0C0973C
:1051200082959295907F9827807F9827822B8A87F7
:10513000888999890C96FC01808180538B878B85A7
:10514000282F888999890B96FC018081882F90E00F
:10515000C09782959295907F9827807F9827822B81
:105160008B87888999890996FC01808180538D8776
:105170008D85882F90E09C838B83888999890896F8
:10518000FC018081882F90E0C0979E838D838D8164
:105190009E81880F991F9C01220F331F220F331FFE
:1051A000820F931F2B813C81820F931F9C838B83E3
:1051B0008D85282F8D819E8182959295907F98274D
:1051C000807F9827822B8D87888999890696FC0194
:1051D000808180538E878E85882F90E098878F837B
:1051E000888999890596FC018081882F90E0C09775
:1051F0009E838D838D819E81880F991F9C01220F34
:10520000331F220F331F820F931F2F813885820F88
:10521000931F98878F838E85282F8D819E818295FD
:105220009295907F9827807F9827822B8E878889F8
:1052300099890396FC01808180538F878F85882F01
:1052400090E029813A81820F931F9A83898388890C
:1052500099890296FC018081882F90E0C0979E83F7
:105260008D838D819E81880F991F9C01220F331F92
:10527000220F331F820F931F29813A81820F931FC0
:105280009A8389838F85282F8D819E81829592951F
:10529000907F9827807F9827822B8F879A89892FE4
:1052A000880F880F880F382F391BCE01099627E009
:1052B000AC01632F80ED80D1000062960FB6F894A8
:1052C000DEBF0FBECDBFDF91CF910895CF93DF93A7
:1052D00000D01F92CDB7DEB78B838B81882349F036
:1052E000198221E0CE010196AC016EE080ED64D11F
:1052F00009C084E08A83CE01029621E0AC016EE011
:1053000080ED5AD100000F900F900F90DF91CF9158
:105310000895CF93DF93CDB7DEB78BE290E0FC0129
:1053200080818074DF91CF910895CF93DF931F9296
:10533000CDB7DEB789838981882351F08BE290E075
:105340002BE230E0F90120812F7BFC01208309C092
:105350008BE290E02BE230E0F90120812064FC0137
:10536000208300000F90DF91CF910895CF93DF93BA
:105370001F92CDB7DEB789838981882351F08BE2F4
:1053800090E02BE230E0F90120812068FC012083CD
:1053900009C08BE290E02BE230E0F90120812F7709
:1053A000FC01208300000F90DF91CF910895CF93EF
:1053B000DF93CDB7DEB7F89481E0DF91CF91089508
:1053C000CF93DF9300D0CDB7DEB79A8389838FE583
:1053D00090E029813A81F9012081FC0120830000BD
:1053E0000F900F90DF91CF910895CF93DF93CDB7BA
:1053F000DEB784E690E024E630E0F90120812F77E3
:10540000FC01208389EB90E0FC01108288EB90E0A6
:1054100025E2FC0120838CEB90E024E0FC0120835A
:1054200081E08093350181E0809334010000DF91B9
:10543000CF910895CF93DF93CDB7DEB78CEB90E09B
:1054400024EAFC01208300008CEB90E0FC018081C9
:10545000882324F0809134018823B1F780913401AE
:10546000882351F48CEB90E020E9FC01208381E05B
:105470008093340181E001C080E0DF91CF910895F5
:10548000CF93DF93CDB7DEB78CEB90E024E9FC013E
:1054900020830000DF91CF910895CF93DF9300D058
:1054A0001F92CDB7DEB78A836B838BEB90E02A81A6
:1054B000FC0120838CEB90E024E8FC0120830000B9
:1054C0008CEB90E0FC018081882324F080913401F2
:1054D0008823B1F789EB90E0FC018081887F898384
:1054E00099818B81981751F08CEB90E024E9FC01B5
:1054F000208381E08093340181E001C080E00F903F
:105500000F900F90DF91CF910895CF93DF93CDB798
:10551000DEB78CEB90E024ECFC01208300008CEBE8
:1055200090E0FC018081882324F08091340188235D
:10553000B1F78BEB90E0FC018081DF91CF91089572
:10554000CF93DF93CDB7DEB78CEB90E024E8FC017E
:10555000208300008CEB90E0FC018081882324F004
:10556000809134018823B1F78BEB90E0FC018081BE
:10557000DF91CF910895CF93DF931F92CDB7DEB720
:10558000898389EB90E0FC018081882F90E09C0169
:10559000287F33278981882F90E02817390739F031
:1055A0008CEB90E024E9FC01208381E001C080E0E5
:1055B0000F90DF91CF910895EF92FF921F93CF93B9
:1055C000DF93CDB7DEB728970FB6F894DEBF0FBED6
:1055D000CDBF8C836D835F834E8328878FE590E0FA
:1055E000FC0180818B83E3DE89830BC080913501D0
:1055F000882321F411E0E12CF12C09C0109235012F
:1056000019828981882391F7EE24E394F12CCE014D
:105610000396D6DEEA94EF2809F03FC01A820ADF2B
:1056200088E0A9DF882329F081E08093350111E02B
:1056300034C068E18C8131DF882329F081E08093D8
:10564000350111E02AC068E28D8127DF8823D1F07F
:1056500081E08093350111E020C08A8191E0980FAC
:105660009A83882F90E02E813F81820F931FFC0147
:10567000808168E212DF882329F081E08093350180
:1056800011E00BC088859FEF980F9887882329F732
:10569000F7DE81E08093350110E0812F28960FB668
:1056A000F894DEBF0FBECDBFDF91CF911F91FF9069
:1056B000EF900895EF92FF920F931F93CF93DF9394
:1056C000CDB7DEB728970FB6F894DEBF0FBECDBFBB
:1056D0008C836D835F834E8328878FE590E0FC0188
:1056E00080818B8364DE89830BC0809135018823A0
:1056F00021F411E0E12CF12C09C01092350119823E
:105700008981882391F7EE24E394F12CCE0103964E
:1057100057DEEA94EF2809F06DC01A828BDE88E02C
:105720002ADF882329F081E08093350111E062C0EF
:1057300068E18C81B2DE882329F081E08093350115
:1057400011E058C068E28D81A8DE882329F081E04D
:105750008093350111E04EC06DDE80E10CDF8823BF
:1057600029F081E08093350111E044C08C81816093
:1057700060E493DE882399F181E08093350111E0A4
:1057800039C088858823B9F08A8191E0980F9A837F
:10579000882F90E02E813F818901080F191FB5DE07
:1057A000F801808380E5E7DE8823C9F081E08093FB
:1057B000350111E01FC08A81882F90E02E813F8142
:1057C0008901080F191FBCDEF801808388E5D3DE4C
:1057D000882329F081E08093350111E00BC0888592
:1057E0009FEF980F9887882361F64ADE81E08093C7
:1057F000350110E0812F28960FB6F894DEBF0FBE5A
:10580000CDBFDF91CF911F910F91FF90EF90089541
:10581000CF93DF9300D000D01F92CDB7DEB78C833B
:105820006D8319821B828C8182958F709981892B5F
:1058300089838C81882F90E082959295907F98271C
:10584000807F9827982F8B81892B8B83CE0103969D
:1058500021E0AC0169818D81AFDE8A838A810F905E
:105860000F900F900F900F90DF91CF910895EF92CE
:10587000FF920F931F93CF93DF93CDB7DEB7299796
:105880000FB6F894DEBF0FBECDBF98878F836987B0
:1058900082E089831A828FE590E0FC0180818E830B
:1058A00086DD8B830BC080913501882321F411E0C4
:1058B000E12CF12C09C0109235011B828B818823C9
:1058C00091F7EE24E394F12CCE01069679DDEA946B
:1058D000EF2809F05DC0AEDD88E04DDE882329F0B9
:1058E00081E08093350111E053C08985816060E4D7
:1058F000D4DD882399F181E08093350111E048C01F
:1059000089818823B9F08A8191E0980F9A83082FC2
:1059100010E0FBDD282FCE010496800F911FFC01C3
:10592000208380E528DE8823C9F081E0809335015B
:1059300011E02EC08A81082F10E002DE282FCE0150
:105940000496800F911FFC01208388E514DE8823D4
:1059500029F081E08093350111E01AC089819FEF21
:10596000980F9983882361F68BDD8C818295807FE7
:105970008C839C818D8182958F70892B8C8381E0B3
:10598000809335012C818F819885FC01208310E064
:10599000812F29960FB6F894DEBF0FBECDBFDF91E1
:1059A000CF911F910F91FF90EF900895CF93DF93C8
:1059B000CDB7DEB727970FB6F894DEBF0FBECDBFC9
:1059C0008B834C835D836E837F8319820EDD1092FF
:1059D0004A0710924B0710924C0710924D0780E433
:1059E00098E7ADE7B1E08093360190933701A0933B
:1059F0003801B093390110924E076FEF83E00E9497
:105A0000003589836CEC80E1FBD7982F8981892B45
:105A100089836CEC81E1F4D7982F8981892B898364
:105A20006CEC82E1EDD7982F8981892B898382E103
:105A30008A839A818B81892B8A838A81682F87EB5D
:105A4000DFD7982F8981892B89838C819D81AE81B5
:105A5000BF81892B8A2B8B2B41F480E498E7ADE73B
:105A6000B1E08C839D83AE83BF838091360190919A
:105A70003701A0913801B09139012C813D814E81CF
:105A80005F81281739074A075B0711F1CE0102969B
:105A9000BC018FE0C9D7882311F081E01AC08A8148
:105AA0008F738A838C819D81AE81BF818093360103
:105AB00090933701A0933801B09339018A818A838A
:105AC0008A81682F8FE09CD7982F8981892B8983C1
:105AD000898127960FB6F894DEBF0FBECDBFDF9148
