S00B00005244502E7372656333
S113000033C000004EC000004CC0000024C70000F4
S11300104BC700000C943D0A0C94870A42C00000B0
S11300200C94D6113EC000003CC000003AC0000051
S113003038C0000036C0000034C0000032C00000E8
S113004030C000002EC0000051C700000C94F0091D
S113005028C0000026C0000024C0000022C0000008
S113006020C000001EC0000011241FBECFEFD8E046
S1130070DEBFCDBF15E0A0E0B1E0E8EDF0E502C0E1
S113008005900D92AA33B107D9F727E0AAE3B5E0AA
S113009001C01D92AE3AB207E1F70E94FF0A0C9428
S11300A06A28AECF80913D0594E05BE406C0915090
S11300B089F08F5F843008F080E0282F30E0529F71
S11300C0F001539FF00D1124EE53FA4F4081442365
S11300D071F305C080933D0580E090E0089580931E
S11300E03D054BE4429FC001439F900D11248E5364
S11300F09A4F089580913C0594E05BE406C09150CA
S113010089F08F5F843008F080E0282F30E0529F20
S1130110F001539FF00D1124EE53FA4F4081411129
S1130120EECF05C080933C0580E090E00895809375
S11301303C054BE4429FC001439F900D11248E5314
S11301409A4F089580913B05282F30E092E4899FCF
S1130150F0011124E25CFA4F41815281452BA9F050
S11301608F5F823008F080E0282F30E092E4899F8E
S1130170F0011124E25CFA4F41815281452B29F0B0
S113018080933B0580E090E0089580933B0542E432
S1130190429FC001439F900D1124825C9A4F0895A1
S11301A080913A05282F30E092E4899FF0011124D0
S11301B0E25CFA4F41815281452BA9F48F5F823072
S11301C008F080E0282F30E092E4899FF0011124A8
S11301D0E25CFA4F41815281452B29F480933A0520
S11301E080E090E0089580933A0542E4429FC00184
S11301F0439F900D1124825C9A4F08958091EE06DE
S113020008959091EE0681E0911180E0911108C06B
S113021091E09093EE06E1ECF0E09081906290839F
S113022008958091EE06882339F0E1ECF0E08081B6
S11302308F7D80831092EE060895CF93DF93809193
S1130240C10084FF0FC0E1ECF0E080818F7E8083E9
S113025084E8AEE3B5E0ED0119928A95E9F780816F
S113026080618083DF91CF91089584E8EEE3F5E027
S1130270DF011D928A95E9F71092C50083E380930C
S1130280C40088E98093C1008EE08093C200089581
S1130290CF93DF93009761F0EC012CDF009751F4CA
S11302A09091EE069111FCCF25DF0097C9F302C0AF
S11302B081E00CC0DF93CF939F938F930E945F25BF
S11302C0A0DF0F900F900F900F9080E0DF91CF91FF
S11302D008958EE493E0DCCF089582E693E0D8CFCE
S11302E0089588E693E0D4CF08950F931F93CF9396
S11302F0DF9389E793E09F938F9380E893E09F9344
S11303008F938BE993E09F938F938FEE96E09F9367
S11303108F930E945F258DB79EB708960FB6F89409
S11303209EBF0FBE8DBF8FEE96E0B2DF8111FBCF73
S11303308091EE068111FCCFC6E4D1E00EE413E017
S1130340CE01A6DF8111FCCF8091EE068111FCCF96
S1130350A8960C171D07A1F7C4DFDF91CF911F9159
S11303600F9108959F938F9380E091E09F938F93D3
S11303700E945F250F900F900F900F900895809327
S1130380080180910801882339F089EE94E0EADFBE
S113039080E091E07DCF089588E693E079CF0895D9
S11303A0EFEEF6E080831182CF0172CF08950097BB
S11303B0A1F0FC0101900020E9F73197E81BF90B4B
S11303C0EC34F10560F4BC018FEE96E00E943B250D
S11303D08FEE96E05DDF80E0089581E0089581E08E
S11303E008951F928F938FEA93E09F938F938FEEDC
S11303F096E09F938F930E945F258FEE96E048DFEF
S11304000F900F900F900F900F900F90089520E091
S113041031E03F932F939F938F937F936F9384EC5B
S113042093E09F938F938FEE96E09F938F930E9418
S11304305F258FEE96E02CDF8DB79EB70A960FB638
S1130440F8949EBF0FBE8DBF08950F931F93CF9353
S1130450DF93CDB7DEB72A970FB6F894DEBF0FBE91
S1130460CDBF182F022F80913601909137019A83C6
S11304708983FE01339688E0DF011D928A95E9F7AE
S1130480411551056105710559F146305105610564
S1130490710598F45F934F938EEC93E09F938F9341
S11304A0CE0101969F938F930E945F250F900F902A
S11304B00F900F900F900F9013C07F936F935F93E3
S11304C04F9382ED93E09F938F93CE0101969F9378
S11304D08F930E945F250FB6F894DEBF0FBECDBF89
S11304E0133009F463C0123009F463C0113009F009
S11304F063C08BE324E290910801992391F10023D6
S1130500C1F080E091E09F938F93CE0101969F9379
S11305108F9386ED93E09F938F938FEE96E09F9356
S11305208F930E945F250FB6F894DEBF0FBECDBF38
S113053039C080E091E09F938F93CE0101969F9301
S11305408F9383EE93E09F938F938FEE96E09F9328
S11305508F930E945F250FB6F894DEBF0FBECDBF08
S113056021C090E0011103C040E050E002C048E027
S113057055E09F938F935F934F93CE0101969F9382
S11305808F931F922F938AEE93E09F938F938FEE16
S113059096E09F938F930E945F250FB6F894DEBF79
S11305A00FBECDBF8FEE96E073DE06C08BE321E273
S11305B0A2CF8FE324E29FCF2A960FB6F894DEBF32
S11305C00FBECDBFDF91CF911F910F9108951F935F
S11305D0CF93DF93CDB7DEB72A970FB6F894DEBF7B
S11305E00FBECDBF182F80913601909137019A83A9
S11305F08983FE01339688E0DF011D928A95E9F72D
S11306004F3FBFEF5B076B077B07E9F08091080161
S1130610882331F021E0CE0101960E94B61713C061
S11306207F936F935F934F9382ED93E09F938F93A8
S1130630CE0101969F938F930E945F250FB6F89485
S1130640DEBF0FBECDBF133009F440C0123009F431
S113065040C0113009F040C02BE394E280910801BE
S11306608823C1F080E091E09F938F93CE0101969F
S11306709F938F9388EF93E09F938F938FEE96E0F1
S11306809F938F930E945F250FB6F894DEBF0FBE31
S1130690CDBF18C01F922F939E012F5F3F4F3F93F2
S11306A02F931F929F9384E094E09F938F938FEEF8
S11306B096E09F938F930E945F250FB6F894DEBF58
S11306C00FBECDBF8FEE96E0E3DD06C02BE391E2D3
S11306D0C5CF2FE394E2C2CF2A960FB6F894DEBFBB
S11306E00FBECDBFDF91CF911F9108950F931F933C
S11306F0CF93DF9300D000D000D0CDB7DEB72091E8
S11307004001309141013A832983009142011091C3
S1130710430120914401309145010B831C832D83B7
S11307203E83611103C094E5998336C0613009F0BA
S11307305CC09DE4998330C0242F30E0A901440FAC
S1130740551F220F331F220F331F220F331F420F57
S1130750531F5F934F938FEC93E09F938F93CE013E
S113076003969F938F930E945F250F900F900F9095
S11307700F900F900F9009C04D3038F44C3019F49D
S11307808BE28B8302C08DE28B83133049F01230ED
S113079051F0113051F50AC0182F4B3068F7CCCF07
S11307A08BE321E205C08FE324E202C08BE324E261
S11307B01F928F93CE0103969F938F9302979F93DB
S11307C08F931F922F938FE094E09F938F938FEEDC
S11307D096E09F938F930E945F258FEE96E058DDFD
S11307E00FB6F894DEBF0FBECDBF26960FB6F894B1
S11307F0DEBF0FBECDBFDF91CF911F910F91089542
S1130800FF920F931F93CF93DF9300D000D0CDB707
S1130810DEB7833061F0823089F011E0813009F075
S113082010E00F2EFBE3FF2EF02D04E20DC00F2E7F
S1130830FBE3FF2EF02D01E211E006C00F2EFFE3D3
S1130840FF2EF02D04E211E080910801882361F06D
S1130850662319F060E274E002C06DE174E0CE0139
S113086001960E943B2512C01F926F938FEC93E078
S11308709F938F93CE0101969F938F930E945F2540
S11308800F900F900F900F900F900F901123B1F1D4
S1130890809108018823C1F080E091E09F938F93B9
S11308A0CE0101969F938F9384E294E09F938F935C
S11308B08FEE96E09F938F930E945F250FB6F89476
S11308C0DEBF0FBECDBF17C01F92FF92CE010196AF
S11308D09F938F931F920F938FE294E09F938F9334
S11308E08FEE96E09F938F930E945F250FB6F89446
S11308F0DEBF0FBECDBF8FEE96E0CADC0F900F9027
S11309000F900F90DF91CF911F910F91FF90089559
S11309101F93CF93DF9300D000D0CDB7DEB7162F4F
S1130920409142015091430160914401709145010D
S113093049835A836B837C831F928F938FEC93E05C
S11309409F938F93CE0101969F938F930E945F256F
S11309500F900F900F900F900F900F90112311F0A4
S11309608FE301C08BE31F928F93CE0101969F9377
S11309708F931F9284E28F938AE394E09F938F93E3
S11309808FEE96E09F938F930E945F258FEE96E003
S11309907FDC0FB6F894DEBF0FBECDBF0F900F9073
S11309A00F900F90DF91CF911F9108950F931F9394
S11309B0CF93DF93CDB7DEB728970FB6F894DEBF99
S11309C00FBECDBF962F142F409142015091430189
S11309D0609144017091450149835A836B837C8300
S11309E04D835E836F837887833011F401E201C005
S11309F004E2992391F01F929F938FEC93E09F93CD
S1130A008F93CE0101969F938F930E945F250F9041
S1130A100F900F900F900F900F90112391F01F9251
S1130A201F938FEC93E09F938F93CE0105969F9332
S1130A308F930E945F250F900F900F900F900F904F
S1130A400F90CE0105969F938F9304979F938F9356
S1130A501F920F9385E494E09F938F938FEE96E01B
S1130A609F938F930E945F258FEE96E011DC0FB663
S1130A70F894DEBF0FBECDBF28960FB6F894DEBF44
S1130A800FBECDBFDF91CF911F910F91089586E0E6
S1130A90E1E5F4E0AFEEB6E001900D928A95E1F75E
S1130AA08FEE96E0F5CB0895CF93DF9300D000D07E
S1130AB000D0CDB7DEB720913601309137013A83AB
S1130AC02983FE01339624E0DF011D922A95E9F77C
S1130AD09F938F938FEC93E09F938F93CE01019616
S1130AE09F938F930E945F25809108010F900F9030
S1130AF00F900F900F900F908823C1F080E091E049
S1130B009F938F93CE0101969F938F9387E594E0F3
S1130B109F938F938FEE96E09F938F930E945F2510
S1130B200FB6F894DEBF0FBECDBF14C0CE01019640
S1130B309F938F9382E694E09F938F938FEE96E03A
S1130B409F938F930E945F250F900F900F900F90AB
S1130B500F900F908FEE96E09BDB26960FB6F894DD
S1130B60DEBF0FBECDBFDF91CF910895CF93DF934A
S1130B7000D000D000D0CDB7DEB72091360130913F
S1130B8037013A832983FE01339624E0DF011D9265
S1130B902A95E9F79F938F938FEC93E09F938F931C
S1130BA0CE0101969F938F930E945F258091080147
S1130BB00F900F900F900F900F900F908823C1F01B
S1130BC080E091E09F938F93CE0101969F938F9342
S1130BD089E694E09F938F938FEE96E09F938F9393
S1130BE00E945F250FB6F894DEBF0FBECDBF14C0C0
S1130BF0CE0101969F938F9385E794E09F938F9303
S1130C008FEE96E09F938F930E945F250F900F9035
S1130C100F900F900F900F908FEE96E039DB269691
S1130C200FB6F894DEBF0FBECDBFDF91CF9108950C
S1130C30CF93DF9300D000D000D0CDB7DEB72091A2
S1130C403601309137013A832983FE01339624E03B
S1130C50DF011D922A95E9F79F938F938FEC93E020
S1130C609F938F93CE0101969F938F930E945F254C
S1130C70809108010F900F900F900F900F900F909C
S1130C808823C1F080E091E09F938F93CE01019679
S1130C909F938F938CE794E09F938F938FEE96E0CE
S1130CA09F938F930E945F250FB6F894DEBF0FBE0B
S1130CB0CDBF14C0CE0101969F938F9386E894E034
S1130CC09F938F938FEE96E09F938F930E945F255F
S1130CD00F900F900F900F900F900F908FEE96E063
S1130CE0D7DA26960FB6F894DEBF0FBECDBFDF91DC
S1130CF0CF9108950F931F93CF93DF9300D000D02B
S1130D0000D0CDB7DEB78B01209136013091370189
S1130D103A832983FE01339624E0DF011D922A954C
S1130D20E9F79F938F938DE894E09F938F93CE017F
S1130D3001969F938F930E945F25809108010F90E5
S1130D400F900F900F900F900F908823A9F1011529
S1130D501105D1F080E091E09F938F93CE0101962D
S1130D609F938F931F930F9380E994E09F938F93A6
S1130D708FEE96E09F938F930E945F250FB6F894B1
S1130D80DEBF0FBECDBF30C080E091E09F938F9354
S1130D90CE0101969F938F9383EE93E09F938F935D
S1130DA08FEE96E09F938F930E945F250FB6F89481
S1130DB0DEBF0FBECDBF18C001151105A9F0CE01CD
S1130DC001969F938F931F930F938AE994E09F93C7
S1130DD08F938FEE96E09F938F930E945F250FB6BB
S1130DE0F894DEBF0FBECDBF8FEE96E051DA2696A3
S1130DF00FB6F894DEBF0FBECDBFDF91CF911F9128
S1130E000F910895A89504B603FE03C094B7987093
S1130E1094BF813041F4E0E6F0E0908198619083E2
S1130E2098E6908311C0811108C0E0E6F0E090815B
S1130E309861908396E4908307C0E0E6F0E09081A7
S1130E409861908398E4908391E0811101C090E0CF
S1130E509093660708951F920F920FB60F92112474
S1130E602F933F934F935F936F937F938F939F93AE
S1130E70AF93BF93EF93FF9380911C01882319F0E4
S1130E8082EA94E094DAFF91EF91BF91AF919F9140
S1130E908F917F916F915F914F913F912F910F901F
S1130EA00FBE0F901F9018951F920F920FB60F92BE
S1130EB011248F939F9380918807882381F096B1A2
S1130EC080910B01892796B190930B01882339F007
S1130ED082FF05C0329903C081E0809393079F91FC
S1130EE08F910F900FBE0F901F9018951F920F9225
S1130EF00FB60F921124CF92DF92EF92FF921F93BD
S1130F002F933F934F935F936F937F938F939F930D
S1130F10AF93BF93CF93DF93EF93FF931091C600EA
S1130F20C0916007D0916107209749F40BD9EC0177
S1130F309093610780936007892B09F439C28091EB
S1130F401C01882309F435C1812F90E00E943325C8
S1130F5090915F07992321F0915090935F0728C2E5
S1130F60182F8B3169F4E0915E07E53128F4F0E045
S1130F70E75BF84F108101C010E082E080935F07C7
S1130F801D3009F048C088E893E1909313018093E1
S1130F90120180914807882329F1E0915E07EE232E
S1130FA0F9F082E0888380914407909145079A8301
S1130FB0898380914307882379F090E001974091D9
S1130FC0420755E1589F9001599F300D1124C20FDB
S1130FD0D31FC40FD11D1B82F0E0E75BF84F1082D2
S1130FE080D904C08FEF9FEF9A83898310925E07A4
S1130FF01092420710924407109245071092460738
S113100010924707109243071092610710926007ED
S113101010924807CDC1112309F4CAC180915E071B
S1131020282F30E0F901E75BF84F1083882309F497
S1131030A1C01F37D9F5815080935E079091430773
S1131040911122C0E82FF0E0E75BF84F20818091F6
S1131050440790914507A0914607B0914707BC010A
S1131060CD01621B7109810991092AE030E040E059
S113107050E00E944C24209344073093450740934A
S113108046075093470792C080914207882321F076
S11310908150809342078AC085E1989FC00DD11D7D
S11310A011241B8291509093430780C0103211F594
S11310B0F901E85BF84F9081903209F46BC190918B
S11310C04307992389F0492F50E041505109609119
S11310D0420775E1749F9001759F300D1124C20F72
S11310E0D31FC60FD11D1B829F5F9093430710929D
S11310F0420754C120914307211127C0409144075E
S1131100509145076091460770914707440F551F5A
S1131110661F771F6A017B01CC0CDD1CEE1CFF1CD3
S1131120CC0CDD1CEE1CFF1C4C0D5D1D6E1D7F1DCB
S1131130410F511D611D711D409344075093450794
S1131140609346077093470729C19091420731E0A5
S1131150390F3093420730E02150310965E1629F35
S1131160A001639F500D1124C40FD51FC90FD11DB9
S11311701B8314C11F3709F41BC1103209F418C1B1
S113118010924307812F90E0A0E0B0E080934407E1
S113119090934507A0934607B09347071B82188E88
S11311A01DA681E08093480780935E07812FF8D8BD
S11311B0FFC0143209F4CBC01132D1F4CCC08883FF
S11311C01092420710924407109245071092460766
S11311D01092470781E0809348071B82188E1DA652
S11311E01092430780915E078F5F80935E07E0C093
S11311F080914807882309F483C01C3231F01B33E3
S113120009F4BEC01F33E9F5B0C0809143078823B9
S113121009F4C8C0282F30E02150310990914207C9
S113122045E1429FF001439FF00D1124EC0FFD1F97
S1131230E90FF11D13828F5F8093430710924207D9
S11312401B3369F480915E07843030F08091440749
S1131250909145079A8389831092480796C01F335B
S113126009F069C082E0888380915E07843030F0A1
S113127080914407909145079A8389831092480787
S113128084C080914307811127C0809144079091C5
S11312904507A0914607B0914707880F991FAA1FD9
S11312A0BB1FAC01BD01440F551F661F771F440FC0
S11312B0551F661F771F840F951FA61FB71F810F29
S11312C0911DA11DB11D8093440790934507A093E0
S11312D04607B09347072FC04091420791E0940F0F
S11312E09093420790E0019755E1589F9001599FD0
S11312F0300D1124C20FD31FC40FD11D1B831BC07B
S11313001D30C9F480918307811115C081E794E2EF
S11313109A838983109242071092440710924507DA
S113132010924607109247071092430710926107E4
S11313301092600707C080915E078F5F80935E07FD
S11313408B34B0F11092480710925E0731C01092AE
S11313505E0781E034CF10925E0783E030CF81E0F6
S113136080934307109242077DCF809143078823DF
S1131370B1F350CF81E0809343071092420762CFCC
S113138080914307811146CFF5CF109261071092E7
S11313906007D1CF8F5F80935E070AC08F5F809311
S11313A05E0704CF81E08093430710924207C3CFC6
S11313B0FF91EF91DF91CF91BF91AF919F918F9169
S11313C07F916F915F914F913F912F911F91FF906A
S11313D0EF90DF90CF900F900FBE0F901F90189555
S11313E01F920F920FB60F9211242F933F934F9396
S11313F05F936F937F938F939F93AF93BF93EF9379
S1131400FF938091400790914107892B31F40E940A
S113141052009093410780934007E0914007F09178
S1131420410780913F07DF01A80FB11D9C919923CB
S113143031F08F5F80933F079093C6000DC01092E8
S11314403F0710820E945200909341078093400707
S1131450892B11F40E941101FF91EF91BF91AF917B
S11314609F918F917F916F915F914F913F912F91B8
S11314700F900FBE0F901F9018951F920F920FB6EA
S11314800F9211242F933F934F935F936F937F9306
S11314908F939F93AF93BF93EF93FF9380911C011E
S11314A0882321F08CEB94E00E94D701FF91EF9107
S11314B0BF91AF919F918F917F916F915F914F9168
S11314C03F912F910F900FBE0F901F901895A895E4
S11314D06091780784E090E00E9489176091790711
S11314E083E090E00E9489176091770782E090E0A2
S11314F00E9489176091760781E090E00E94891725
S11315006091750780E090E00C94891708951F920C
S11315100F920FB60F9211242F933F934F935F9323
S11315206F937F938F939F93AF93BF93EF93FF93A7
S113153010923101CCDF80916607811109C080913E
S11315400A01882389F0E0E6F0E0808180648083EA
S113155080910A01882341F0815080930A0180918F
S11315601C0181110E946901FF91EF91BF91AF911C
S11315709F918F917F916F915F914F913F912F91A7
S11315800F900FBE0F901F90189585E090E00E9479
S11315900028883AF9F484E090E00E9400288093BF
S11315A0780783E090E00E9400288093790782E026
S11315B090E00E9400288093770781E090E00E94E9
S11315C000288093760780E090E00E9400288093B2
S11315D07507089585E0809378078BE080937907F9
S11315E0109277071092760784E0809375076FDF77
S11315F068EA85E090E00E940D28A8950895CF93AD
S1131600DF93CDB7DEB760970FB6F894DEBF0FBE99
S1131610CDBFBBDF84B1856C84B92F9A82E08AB9CF
S11316208CEF8BB983E087B984E388B90E943501D4
S11316309CE097BD84B5826084BD85B5856085BD19
S11316409093B300E0EBF0E0808182608083E1EB73
S1131650F0E0808187608083E0E7F0E0808184604F
S11316608083ECE7F0E0808180648083EAE7F0E047
S1131670808187688083E8E6F0E0808187608083EA
S1131680EDE6F0E0808188688083789484E893E0D4
S113169090930F0180930E0180E0B4DB0E947515D6
S11316A080917707882319F084B5806184BDA8955B
S11316B00E94541DA89580911C01882339F00E9432
S11316C071010E9475010E946D010AC0E0D90E9457
S11316D0FE008111FCCFA89540E062E081E066D96C
S11316E0A89544E060E070E084E897E00E94041A62
S11316F00E94FE008111FCCF10928A071092890784
S113170081E080DB81E080938807812C912CCC24BC
S1131710C3940F2EFCE6AF2EF7E0BF2EF02D442429
S11317204A94542C32010F2EF3E22F2EF0E03F2E78
S1131730F02D01C0480180919007882379F08091B1
S1131740900781508093900780919007811106C083
S113175084E690E09093920780939107F894A8957B
S1131760789480918D07882309F4CDC4F501828192
S113177093818D33914008F070C08091670788236E
S113178009F46BC08091100190911101892B09F02B
S1131790BAC480919407811109C081E080939407B1
S11317A088E893E190931301809312018FEF9FEFE8
S11317B090930D0180930C0180911C01882371F199
S11317C080911201909113019C01220F331F880F05
S11317D0991F880F991F880F991F280F391F369555
S11317E027953695279536952795A7E3BAE10E9464
S11317F08A248C010024000F111F001C000F111FEC
S1131800001C012F102D80913E07801739F0802F86
S11318100E94F1010E946D0100933E078091120124
S113182090911301892B09F06EC451DE299888E840
S113183093E190931301809312018091120190918E
S11318401301892B31F0F50182819381843C91400D
S1131850A0F3A8951092940756C4F5018281938150
S1131860843C9140B8F081E08093670784E690E07F
S1131870909311018093100188E293E290930F01F9
S113188080930E0188E893E19093130180931201F1
S1131890299A39C480910E0190910F01892B09F086
S11318A032C480919407811109C081E08093940728
S11318B088E893E1909313018093120180911201BF
S11318C090911301892B09F01EC42998F501828196
S11318D09381843C9140D0F3A89515C4F80181818B
S11318E092818139F3E09F0709F4C6C050F5803531
S11318F0910509F4DCC090F48134910509F4A1C088
S113190020F4CF9709F48DC3EDC38234910509F413
S11319107CC38F34910509F4B7C0E4C383359105C2
S113192009F479C328F48235910509F4E4C3DAC3D0
S11319308435910509F4DFC38E31934009F43FC225
S1131940D1C38A3953E2950709F493C0A8F48831C6
S1131950FDE19F0709F464C228F4883B9C4109F423
S113196032C3C0C3813D5EE1950709F4EEC0893BF3
S1131970924209F454C0B6C38433F4E29F0781F061
S113198028F4873F934209F496C0ACC3813754E2EC
S1131990950709F4FBC28A3F944209F45EC2A2C3CC
S11319A0F80183818823E1F0C80103960E94F024A2
S11319B0181644F41092760791E090937707809379
S11319C0750715C088234CF491E0909376079093A3
S11319D077078195809375070AC01092770707C02F
S11319E09091770781E0911180E08093770780914F
S11319F07707882321F084B5806184BD09C0809174
S1131A00910790919207892B19F484B58F7E84BD38
S1131A108091770760E070E090E06CD96CC30E941D
S1131A205D17F8019381992339F0C80103960E9448
S1131A300D25862F0E94671760E070E090E05AD968
S1131A405AC3F8018381882369F0C80103960E9470
S1131A50F0248536910510F084E690E00E94F31698
S1131A6090E003C00E94131790E060E070E042D958
S1131A7042C382E0C7D9FFCF81E0909180079111E2
S1131A8080E08093800737C3F8018381882331F095
S1131A90C80103960E940D250E94B4160E94CB161D
S1131AA0AB01BC0120E083E00E94250224C30E9414
S1131AB0AE150DDD20C3F8018381882391F14D8695
S1131AC05E866F86788A80911C018823B1F08581B7
S1131AD08A3319F480858A3339F0F80184818A3392
S1131AE0A1F487818A3389F4C80103960E941219EC
S1131AF06D877E878F87988B08C0C80103960E94E4
S1131B000D256D877E878F87988B8D859E85AF8504
S1131B10B889BB2334F06D857E858F8598890E94B2
S1131B201C1BF8018081823009F0E5C244E060E0CA
S1131B3070E0CE0101960E94041A49815A816B819A
S1131B407C8183E00E94E702D6C2F8018381882366
S1131B5009F412C18D3409F0F4C0C80104960E943E
S1131B60F0247C0119861A861B861C86BBD7FF24A9
S1131B70F3E0EF16F10429F14CF441E0E416F1042A
S1131B8071F052E0E516F10499F036C094E0E916DC
S1131B90F10401F1E5E0EE16F10429F12DC08823EA
S1131BA071F10F2EFFE2EF2EF0E0FF2EF02D44C076
S1131BB0882361F10F2EF3E3EF2EF0E0FF2EF02DDA
S1131BC03BC0882351F10F2EF7E3EF2EF0E0FF2EF8
S1131BD0F02D32C0882319F10F2EFBE3EF2EF0E035
S1131BE0FF2EF02D29C0882309F10F2EFFE3EF2EDD
S1131BF0F0E0FF2EF02D20C0E12CF12C1DC00F2EA3
S1131C00FBE1EF2EF0E0FF2EF02D16C00F2EFFE1CA
S1131C10EF2EF0E0FF2EF02D0FC071010DC00F2E3E
S1131C20F7E2EF2EF0E0FF2EF02D06C00F2EFBE2C0
S1131C30EF2EF0E0FF2EF02DE114F10409F477C04B
S1131C401D821E821F82188680911C01882381F0C8
S1131C50F801908D992361F0C80148960E940D25E2
S1131C606D837E838F83988781E0F801808329C008
S1131C70F8019081923001F5C7010E940828698714
S1131C807A878B879C87672B682B692B09F451C053
S1131C90CE01099622D6882309F44DC089859A85F8
S1131CA0AB85BC8580937A0790937B07A0937C07D0
S1131CB0B0937D0721E06AC0913009F03EC08823CB
S1131CC019F18D819E81AF81B88589839A83AB8315
S1131CD0BC83CE01019601D6882389F089819A813B
S1131CE0AB81BC8180937A0790937B07A0937C0798
S1131CF0B0937D0789879A87AB87BC870AC019860A
S1131D001A861B861C8605C084D669877A878B87CA
S1131D109C8749855A856B857C85411551056105EC
S1131D20710569F0C7010E949A1721E02FC020E0D5
S1131D302DC021E02BC021E029C021E027C021E0F3
S1131D4025C0C80103960E940D2569837A838B837D
S1131D509C83CE010196C1D5882361F089819A8143
S1131D60AB81BC8180937A0790937B07A0937C0717
S1131D70B0937D0720E00AC04CD660937A07709335
S1131D807B0780937C0790937D0720E080917A07FE
S1131D9090917B07A0917C07B0917D07892B8A2BBA
S1131DA08B2B09F4A8C140917A0750917B0760916D
S1131DB07C0770917D0783E00E9425029CC1F80195
S1131DC08381882309F497C1C80103960E94F024F3
S1131DD0F82E80938307F801808D882331F0C801A1
S1131DE048960E94F024823069F04F2D62E083E02F
S1131DF00E94D60484E090E190938A078093890737
S1131E00C12C79C1C11005C04F2D62E083E00E944E
S1131E10D60410928A0710928907CC24C3946BC10C
S1131E20F8018381882371F0C80103960E94F0248D
S1131E308035910519F481E015D604C0029711F498
S1131E4080E010D64FD6F8019081923009F053C14A
S1131E50682F83E00E9400044EC1F8018381843519
S1131E6009F439C28D3409F046C137C28B3209F402
S1131E703BC28D3209F43CC2C80148960E94F0244A
S1131E80D11050C09923B4F422E005C021E003C06E
S1131E902FEF01C020E08091780790E0213029F4F1
S1131EA08F3091053CF4019605C02F3F19F400973B
S1131EB009F00197992314F480E090E07C014097A5
S1131EC02CF00F2EFFE0EF2EF02DF12C80917807EF
S1131ED090E0E816F90649F08FEE8E9D802D1124CE
S1131EE081500E948019E092780784E180939007E2
S1131EF0EEDA80911C01811136C03DC080917907D2
S1131F008F30F0F4809179078F5F8093790718C040
S1131F10809179078823A1F080917907815080937B
S1131F2079070EC08031910524F08FE08093790702
S1131F3007C099231CF41092790702C08093790793
S1131F4084E180939007C3DA80911C01882399F07F
S1131F5021E0D21208C08091790766ED74E090E028
S1131F600E940702C8C0809178076FED74E090E08A
S1131F700E940702C0C0F8018081823009F0C0C00D
S1131F804DE06D2D83E00E947603B5C081E0909111
S1131F901C01911180E080931C010E94BF0180917B
S1131FA01C01882309F4ACC01092820710928107A7
S1131FB010928A071092890788EE94E00E94B20179
S1131FC0CC24C39498C0C80103960E94F024F8015D
S1131FD02081223061F42091810730918207A90188
S1131FE0482BCA01909382078093810784C0992764
S1131FF080959095209181073091820782239323C5
S1132000909382078093810776C0F5018281938142
S11320100E94540570C0F501848195810E94B60523
S11320206AC0F894A895789489EE94E00E94B2016D
S113203059D5682F83E00E940004EBD4AB01BC01A6
S113204020E083E00E942502809177076BEE74E024
S113205090E00E9407029FD6AB01BC0120E083E020
S11320600E942502E0D66FEE74E090E00E94070221
S113207024D763EF74E090E00E940702809179070F
S113208066ED74E090E00E940702809178076FED9E
S113209074E090E00E940702F894A8957894F50102
S11320A0828193810E945405F501848195810E9467
S11320B0B60588EE94E00E94B201F894A89578944D
S11320C044E060E070E0CE0101960E94041A498168
S11320D05A816B817C8183E00E94E702F894A89581
S11320E0789409C080911C01882319F00E9475011D
S11320F002C00E941D0180911C0181110E946D018A
S1132100F801128211820E94D0008C01892B09F0FF
S1132110E5CB8091930781111092930700918E076C
S113212010918F078016910609F404CB00918E0755
S113213010918F0780918007882309F452C0809101
S11321407E0790917F07892B09F04BC04091680767
S11321505091690760916A0770916B0780913C0701
S113216090913D07A0E0B0E084179507A607B70754
S1132170C1F1609168077091690780916A07909135
S11321806B072AE030E040E050E00E944C2480914C
S11321903A0790913B0782179307B9F030933B07B6
S11321A020933A0784E690E090937F0780937E071C
S11321B0C901880F991F220F331F220F331F220FCB
S11321C0331F820F931F0E94B60580916807909178
S11321D06907A0916A07B0916B0790933D078093BC
S11321E03C0780911B01811158C080918107909117
S11321F08207009709F451C080FF1BC080917307C8
S11322008823B9F0F5012281338126523F4FA8EE8D
S1132210B3E00E948A242FED30E040E050E00E94B9
S11322204C24C9010E9454051092730784E68093DC
S11322301B018091810781FF0EC080917407882360
S113224051F0F501848195810E94B60510927407BE
S113225084E680931B018091810782FF1EC08091D8
S113226072078823D1F010927207F50160817181A1
S1132270CB01A0E0B0E0BC01CD01675F7F4F8F4F81
S11322809F4F24E630E040E050E00E944C24C90116
S11322900E94180684E680931B018091890790911F
S11322A08A07892B09F046CAC11044CA80910901E2
S11322B0882309F43FCA81508093090184E090E1A6
S11322C090938A07809389074091830762E081E0B5
S11322D00E94D6042FCAD12C02C0DD24D394F80165
S11322E0808D8111C3CD08C0DD2009F4CFCD06CE89
S11322F0DD2009F4CDCD0CCEDD2009F4CBCD20CEEC
S113230090917607913009F480959DE0899F900122
S11323101124215F3F4F032E000C440B550B85B550
S1132320887F85BD2C3331054105510530F485B5D1
S1132330856085BDA0E0B4E01CC0203F31054105A7
S1132340510530F485B5846085BDA0E0B1E011C0CD
S11323502C3687E038074105510530F485B5836094
S113236085BDA0E4B0E005C085B5826085BDA8E068
S1132370B0E0AA0FBB1F0E9499249B01AC0160E04E
S113238072E18AE790E00E944C24DA01C9010197C6
S1132390A109B1098F3F9105A105B10529F020F0EC
S11323A08FEF90E0A0E0B0E087BD08951F920F92F8
S11323B00FB60F9211244F925F926F927F928F9279
S11323C09F92AF92BF92CF92DF92EF92FF920F93C0
S11323D02F933F934F935F936F937F938F939F9329
S11323E0AF93BF93EF93FF93CF93DF93CDB7DEB754
S11323F02597DEBFCDBF80918E0790918F07019600
S113240090938F0780938E0780911201909113010E
S1132410892B49F0809112019091130101979093B7
S113242013018093120180910E0190910F01892B69
S113243049F080910E0190910F01019790930F0143
S113244080930E018091890790918A07892B49F026
S11324508091890790918A07019790938A078093C6
S113246089078091100190911101892B49F0809185
S11324701001909111010197909311018093100123
S113248080918007882359F080917E0790917F077F
S1132490009729F0019790937F0780937E0780919E
S11324A01B01882319F0815080931B0180919107AF
S11324B090919207892BF9F080916507811107C0EB
S11324C084B5806184BD81E08093650714C08091E8
S11324D091079091920701979093920780939107A7
S11324E08091910790919207892B29F484B58F7E6E
S11324F084BD1092650780916407882341F0409B56
S113250002C0409826C0409A1092640722C090915D
S11325101A01809179079817E1F080916707882361
S1132520C1F0409B409A90911A01809179078917D4
S113253038F4419880911A01815080931A0106C0A1
S1132540419A80911A018F5F80931A0181E08093F0
S113255064078091630781115FC08FEF80936207E6
S11325601D828D81833008F093C120E09FEF31E01C
S1132570ED81F0E0EE0FFF1FEC5EFE4F40815181D4
S1132580452B61F0ED81F0E0EE0FFF1FEC5EFE4F96
S1132590408151814150510951834083ED81F0E0E4
S11325A0EE0FFF1FEC5EFE4F40815181452B11F46D
S11325B09D81232F8D818F5F8D838D818330C0F228
S11325C0222309F465C19093620799230CF460C136
S11325D0892F990F990B9C01220F331FF901E059A0
S11325E0FC4F40815181F901EC5EFE4F51834083E1
S11325F0ECE7F0E02081207FDC01AA58BC4F9C91DD
S1132600822F892B8083EAE7F0E0808180648083D5
S113261081E0809363073CC180917A0086FD38C1D4
S11326202091780030917900A4EEBCE00E948A24C5
S11326306B017C010B2EBAE0F694E794D794C7940F
S1132640BA95D1F7B02DB60140916207242F042E1C
S1132650000C330BF901EE0FFF1FE459F84F808192
S113266091818C159D0520F4D601A81BB90B03C0DC
S1132670DC01AC19BD0951E0F901EE58F84F508363
S1132680413081F5F901EE0FFF1FE659FC4F4081FF
S113269051814A175B0758F4220F331FF901EC5E8E
S11326A0FE4F84E690E091838083C601E7C08617DD
S11326B0970710F4019603C0AB2B09F0019721E0B2
S11326C020938D07823823E0920718F010921D01A1
S11326D0D5C0843C21E0920708F4D0C021E02093C7
S11326E01D01CCC0423009F0C9C080917507833008
S11326F071F028F48130B9F0823031F011C08430A7
S113270049F0853051F00CC088EE93E00EC084EFA0
S113271091E00BC088EC90E008C082E390E005C033
S113272085E090E002C084EC99E08A179B0768F486
S1132730D701C601AA27BB2780936807909369072E
S1132740A0936A07B0936B0757C080916807909174
S11327506907A0916A07B0916B07880F991FAA1F98
S1132760BB1F880F991FAA1FBB1F880F991FAA1F81
S1132770BB1F8093680790936907A0936A07B0937F
S11327806B078091680790916907A0916A07B091DF
S11327906B07B701A60166277727840F951FA61F2D
S11327A0B71F8093680790936907A0936A07B09353
S11327B06B07609168077091690780916A0790912F
S11327C06B0729E33EE843EE58E30E94A32400E2AA
S11327D00E94CC24422E532E642E752ED301C201A6
S11327E0B695A79597958795809368079093690701
S11327F0A0936A07B0936B07809177078823E9F168
S11328008091680790916907A0916A07B0916B075E
S113281089839A83AB83BC8389819A81AB81BC8190
S113282084369105A105B10528F089819A81AB818F
S1132830BC8104C084E690E0A0E0B0E08093680727
S113284090936907A0936A07B0936B078091680718
S113285090916907A0916A07B0916B07845691091A
S1132860A109B109689412F8B695A795979587952B
S11328701694D1F745DDC60101C0C601E091620797
S1132880EE0FFF0BE459F84F918380831092630796
S11328900F900F900F900F900F90DF91CF91FF91B9
S11328A0EF91BF91AF919F918F917F916F915F91C4
S11328B04F913F912F910F91FF90EF90DF90CF9028
S11328C0BF90AF909F908F907F906F905F904F904C
S11328D00F900FBE0F901F9018950F931F93FC013C
S11328E040815181628173818A019B01015E174697
S11328F0254331090F31114A2740310568F54093CA
S11329002201509323016093240170932501809147
S1132910300181FF06C040525B4B6C457F4F91E014
S113292070C0413E04E4500703EA6007710530F0CB
S1132930405E5444634A710991E063C080EE94E4BC
S1132940A3EAB0E08C019D01041B150B260B370B89
S1132950B901A80191E055C08A019B0101501444BA
S1132960254938400F3F18402D43310508F042C037
S113297040931E0150931F01609320017093210125
S11329808091300180FF06C040525B4B6C457F4F05
S113299090E037C0413EF4E45F07F3EA6F07710546
S11329A030F0405E5444634A710990E02AC080EEDE
S11329B094E4A3EAB0E08C019D01041B150B260BE3
S11329C0370BB901A80190E01CC0809126019091B9
S11329D02701A0912801B09129018A019B01081BBC
S11329E0190B2A0B3B0BC901B80140E00E941623C6
S11329F081E00CC0FC01108211821282138280E0FB
S1132A0005C080919707891701F380E01F910F910A
S1132A100895809195078823D1F0809197078111BB
S1132A2009C060911E0170911F0180912001909155
S1132A302101089580919707813069F46091220102
S1132A40709123018091240190912501089560E003
S1132A5070E0CB01089560E070E0CB0108958093AD
S1132A6030010895CF93DF93CDB7DEB729970FB622
S1132A70F894DEBF0FBECDBF89878985813099F474
S1132A808985809397078091220190912301A091D9
S1132A902401B091250189839A83AB83BC83CE0141
S1132AA001961BDF15C08985882391F4898580935D
S1132AB0970780911E0190911F01A0912001B09170
S1132AC021018D839E83AF83B887CE01059605DFF0
S1132AD0000029960FB6F894DEBF0FBECDBFDF917C
S1132AE0CF91089580919707089540E050E0BA018E
S1132AF080E40E944D2134D080EE94E4A3EAB0E057
S1132B0080932C0190932D01A0932E01B0932F015B
S1132B1080919707A7DF60912C0170912D0180911E
S1132B202E0190912F0142E00E94162360E082E082
S1132B300E94EC2161E082E00E94BB2160E080E021
S1132B400E94EC2161E080E00E94BB211092980772
S1132B508091970781E0809395070895C9C00895EF
S1132B6086E090E00E940028883AE9F58BE090E046
S1132B700E940028809397078CE090E00E94082828
S1132B8060931E0170931F01809320019093210193
S1132B9080E190E00E940828609322017093230151
S1132BA0809324019093250184E190E00E940828F9
S1132BB06093260170932701809328019093290143
S1132BC088E190E00E94002880932A0189E190E046
S1132BD00E94002880932B018AE190E00E94002843
S1132BE080939607089540E954E169E978E08BE120
S1132BF090E00E941B2840EE57ED69E978E08FE1F0
S1132C0090E00E941B2840E35BE96AE978E083E2F4
S1132C1090E00E941B2840E85EE56BE978E087E2DB
S1132C2090E00E941B2840ED51E26CE978E08BE2D1
S1132C3090E00E941B284CE65EE966E370E08FE2B8
S1132C4090E00E941B2840E452E566E370E083E3D1
S1132C5090E00E941B2848EC55E666E370E087E3A9
S1132C6090E00E941B2840E559E766E370E08BE39F
S1132C7090E00E941B2848ED5CE866E370E08FE377
S1132C8090E00E941B2868EA86E090E00E940D28EC
S1132C901092970780E399E2ADEAB8E080931E01B1
S1132CA090931F01A0932001B093210180E39BE244
S1132CB0A6E3B0E08093220190932301A093240122
S1132CC0B093250184EF91E0A0E0B0E08093260169
S1132CD090932701A0932801B09329018FEF80934B
S1132CE02A0181E080932B011092960701C0089578
S1132CF0609197078BE090E00CD140911E015091B8
S1132D001F0160912001709121018CE090E012D1AB
S1132D104091220150912301609124017091250179
S1132D2080E190E007D14091260150912701609104
S1132D3028017091290184E190E0FCD036D7AB01E1
S1132D40BC0187E090E0F6D060912A0188E190E030
S1132D50E0D060912B0189E190E0DBD0609196078F
S1132D608AE190E0D6C00895613D27E072078105AD
S1132D70910578F4DC01CB0180932601909327011F
S1132D80A0932801B0932901809197076BDE81E01D
S1132D90089580E008956091260170912701809143
S1132DA028019091290108950F931F938B019C0191
S1132DB0145425493840013019402D43310568F039
S1132DC0DC01CB01805E9746A543B1098132914A6B
S1132DD0A740B10520F481E003C080E001C082E097
S1132DE01F910F910895CF93DF93C82FD0E0C5367C
S1132DF0D10514F0C4E6D0E0CE0118D039D6C09382
S1132E009607CD2B31F080919807846080939807C2
S1132E1005C0809198078B7F8093980780919607CF
S1132E20DF91CF910895809196070895009709F452
S1132E3041C08731910590F440E05AE0849F9001AD
S1132E40859F300D949F300D112480E09FEFAC01DD
S1132E50421B530B9A018FEF90E029C089329105F0
S1132E6078F487599F4F9C01322F2227330F80E03B
S1132E7093E2AC01421B530B9A018FEF90E017C011
S1132E8041E0489F9001499F300D381B112424567E
S1132E903C49A9EDBAE80E948A24969587959295B3
S1132EA082958F7089279F70892720E030E0820FF8
S1132EB0931F089580E090E0089580919707811111
S1132EC003C080912B01089580912A010895909167
S1132ED0970791110DC0811106C0809198078F7DCD
S1132EE08093980705C08091980780628093980723
S1132EF08091970781110AC08091980785FB8827E4
S1132F0080F980932B0180912B01089580912A01EF
S1132F1008951F93CF93DF93EC01162F0E9400288E
S1132F20811721F0612FCE010E940D28DF91CF91EE
S1132F301F910895CF92DF92EF92FF92CF93DF9388
S1132F40EC016A017B010E9408286C157D058E0541
S1132F509F0529F0B701A601CE010E941B28DF912D
S1132F60CF91FF90EF90DF90CF9008954F925F92B2
S1132F706F927F928F929F92AF92BF92CF92DF9285
S1132F80EF92FF920F931F93CF93DF93EC016A01AB
S1132F907B01622E83E028137EC077233CF490E803
S1132FA0C90E91E5D91E91E0E91EF11CE0E7CE16A9
S1132FB0E7E1DE06E104F1042CF41D826894772431
S1132FC072F8CEC0F0E6CF16FAEEDF06E104F104A3
S1132FD0ECF4C701B6012CE330E040E050E00E947D
S1132FE06E245F934F933F932F9387EF94E09F93C7
S1132FF08F93DF93CF930E945F25EDB7FEB738968A
S11330000FB6F894FEBF0FBEEDBFFBC00F2EF0E16C
S11330108F2EFEE09F2EA12CB12CF02DC701B601FE
S1133020A50194010E946E24122F032FF42EE52E85
S1133030DC01CB01880F991FAA1FBB1F2C013D0186
S1133040440C551C661C771C440C551C661C771CD0
S1133050BC01CD01640D751D861D971DA50194014C
S11330600E946E245F934F933F932F93EF92FF92AE
S11330700F931F938DEF94E09F938F93DF93CF93E0
S11330800E945F25EDB7FEB73C960FB6F894FEBFDD
S11330900FBEEDBFB6C077237CF4F094E094D094D7
S11330A0C094C11CD11CE11CF11C19868DE28883DB
S11330B06894772473F854C018860F2EF7E07F2E97
S11330C0F02D4EC0C50DD11DCA01B9012AE030E072
S11330D040E050E00E946E24605D688392C08E01DF
S11330E0050D111DCA01B90126E030E040E050E0B1
S11330F00E946E24605DF80160838BEF870DFE01F2
S1133100E80FF11D8AE38083C701B60120E13EE0A8
S113311040E050E00E946E24CA01B90128E130E089
S113312040E050E00E946E248AEF870DFE01E80F14
S1133130F11D8DEC689F812D1124869586958695C9
S1133140282F220F922F990F990F920F691B605D00
S1133150608399EF970DC90FD11D805D888351C09D
S11331608E01070D111D0F2EFAE08F2E912CA12C2C
S1133170B12CF02DC701B601A50194010E946E2463
S1133180605DF80160838FEF870D8E01080F111DBC
S1133190CA01B90126E030E040E050E00E946E240C
S11331A0605DF80160838EEF870DFE01E80FF11D6D
S11331B08AE380830F2EFCEF5F2EF02D570C8DEFEA
S11331C0870D8E01080F111DC701B6012CE330E0F5
S11331D040E050E00E946E24CA01B901A5019401A7
S11331E00E946E24605DF8016083C701B60128E582
S11331F032E040E050E00E946E24F3E06F126FCFA3
S113320061CFDF91CF911F910F91FF90EF90DF90ED
S1133210CF90BF90AF909F908F907F906F905F9072
S11332204F9008958F929F92AF92BF92FF920F9307
S11332301F93CF93DF9300D01F92CDB7DEB78C01DD
S11332401B821A82FC018181908199838A3329F03F
S11332508A836894FF24F1F802C0FF24F394CE011A
S113326001960E940D259B01AC01A0E1BEE00E94E5
S113327099244B015C0181E08F0DF801E80FF11DE9
S11332808081898382E08F0DF801E80FF11D808130
S11332908A83CE0101960E940D259B01AC01ACE30B
S11332A0B0E00E949924860E971EA81EB91E84E0E1
S11332B08F0DF801E80FF11D8081898395E09F0D42
S11332C0F801E90FF11D80818A83CE0101960E94E5
S11332D0F024092E000CAA0BBB0BBC01CD01680D18
S11332E0791D8A1D9B1D0F900F900F90DF91CF9138
S11332F01F910F91FF90BF90AF909F908F90089572
S1133300CF93DF931F92CDB7DEB7898321E0AE015F
S11333104F5F5F4F60E088E5F8D20F90DF91CF9167
S11333200895CF93DF931F92CDB7DEB790E1899FC5
S1133330900111242983682F62956F7021E0AE01FA
S11333404F5F5F4F88E1E1D20F90DF91CF910895F5
S11333500F931F93CF93DF9300D000D0CDB7DEB788
S113336082E089831A826BD288E0C0D2882311F06C
S113337081E041C060E489E17FD2882351F181E09A
S11333803AC089818823A1F08A8191E0980F9A83B9
S1133390082F10E08DD2282FCE010396800F911FA5
S11333A0FC01208380E5A2D2882399F081E023C028
S11333B08A81082F10E08BD2282FCE010396800F2C
S11333C0911FFC01208388E591D2882311F081E0CC
S11333D012C089819FEF980F9983882391F648D270
S11333E08B818295807F8B839B818C8182958F706A
S11333F0892B8B838B810F900F900F900F90DF910F
S1133400CF911F910F9108957F928F929F92AF92C7
S1133410BF92CF92DF92EF92FF920F931F93CF93BD
S1133420DF93CDB7DEB727970FB6F894DEBF0FBE94
S1133430CDBF8C017B01D42EAE014F5F5F4F87E07F
S1133440FA0111928A95E9F727E060E080EDA2D2B3
S11334508111DEC08981C82EC694C694C694C694D0
S11334608F70782E2A81A22EA694A694A694A69450
S11334702F70B22E8B8185FB992790F984FB9924B8
S113348090F8F82FFF708F2E86FB222720F986FDF7
S113349005C0992319F06894992491F8E114F10472
S11334A009F470C0DD2021F081E0D816B9F055C0D0
S11334B01F927F921F92CF921F92BF921F92AF9240
S11334C08BE295E09F938F93FF92EF920E945F258A
S11334D00FB6F894DEBF0FBECDBF54C0222319F13E
S11334E0911103C08AE095E002C087E095E09F93C4
S11334F08F931F927F921F92CF921F92BF921F921F
S1133500AF921F928F921F929F928DE095E09F93AE
S11335108F93FF92EF920E945F250FB6F894DEBF5F
S11335200FBECDBF2FC01F927F921F92CF921F92CA
S1133530BF921F92AF921F928F921F929F9284E22A
S113354095E09F938F93FF92EF920E945F250FB6B1
S1133550F894DEBF0FBECDBF15C01F927F921F929D
S1133560CF921F92BF921F92AF928BE295E09F93EE
S11335708F93FF92EF920E945F250FB6F894DEBFFF
S11335800FBECDBF0115110509F442C08C2D90E08A
S11335906C01CC0CDD1C880F991F880F991F880FB4
S11335A0991FC80ED91EC70CD11C0D2C000CEE0897
S11335B0FF082B2D30E0ACE3B0E00E948A24C60E55
S11335C0D71EE81EF91E2A2D30E0A8E5B2E00E94BD
S11335D08A24C60ED71EE81EF91E282D30E0A0E16D
S11335E0BEE00E948A24C60ED71EE81EF91E292DAD
S11335F030E0A0EABCE80E948A24DC01CB018C0DF7
S11336009D1DAE1DBF1DF80180839183A283B383EA
S113361027960FB6F894DEBF0FBECDBFDF91CF91D2
S11336201F910F91FF90EF90DF90CF90BF90AF90DC
S11336309F908F907F9008953F924F925F926F92E8
S11336407F928F929F92AF92BF92CF92DF92EF922E
S1133650FF920F931F93CF93DF93CDB7DEB72B97D2
S11336600FB6F894DEBF0FBECDBF6B017C018E0197
S11336700B5F1F4F87E0F80111928A95E9F744E048
S113368060E070E0CE010196BFDE89819A81AB8152
S1133690BC81C80ED91EEA1EFB1EC982DA82EB82E7
S11336A0FC820F2EFAE04F2E512C612C712CF02D40
S11336B0C701B601A30192010E946E24362E0F2E7B
S11336C0F6E08F2E912CA12CB12CF02DCA01B9015A
S11336D0A50194010E946E24DC01CB01880F991F7F
S11336E0AA1FBB1F880F991FAA1FBB1F880F991FF2
S11336F0AA1FBB1F880F991FAA1FBB1F682F63290E
S11337006D83C701B60128E532E040E050E00E9435
S11337106E24CA01B901A50194010E946E244B01D3
S11337205C01880C991CAA1CBB1C880C991CAA1C43
S1133730BB1C880C991CAA1CBB1C880C991CAA1CB9
S1133740BB1CC701B6012CE330E040E050E00E940E
S11337506E24CA01B901A30192010E946E24862A33
S11337608E82C701B60120E13EE040E050E00E94B5
S11337706E24CA01B90128E130E040E050E00E9423
S11337806E248DEC689F812D1124869586958695EF
S1133790F0E18F9F90011124880F982F990F990FB2
S11337A0890F681B622B6F8323E0A80160E080ED22
S11337B0ACD02B960FB6F894DEBF0FBECDBFDF9111
S11337C0CF911F910F91FF90EF90DF90CF90BF901A
S11337D0AF909F908F907F906F905F904F903F90AD
S11337E00895CF93DF931F92CDB7DEB7882349F0B6
S11337F0198221E0AE014F5F5F4F6EE080ED85D00E
S113380009C084E0898321E0AE014F5F5F4F6EE021
S113381080ED7BD00F90DF91CF910895E4E6F0E046
S113382080818F7780831092B90085E28093B800FD
S113383084E08093BC0081E080933101089584EAA0
S11338408093BC00ECEBF0E08081882324F080912D
S113385031018111F9CF80913101811107C080E9D3
S11338608093BC0081E080933101089580E0089545
S113387084E98093BC0008958093BB0084E880931E
S1133880BC00ECEBF0E08081882324F080913101CE
S11338908111F9CF8091B900887F861739F084E9C6
S11338A08093BC0081E080933101089580E0089505
S11338B084EC8093BC00ECEBF0E08081882324F05E
S11338C0809131018111F9CF8091BB00089584E882
S11338D08093BC00ECEBF0E08081882324F080919D
S11338E031018111F9CF8091BB0008952091B90075
S11338F0287F30E090E02817390729F084E9809385
S1133900BC0081E0089580E00895CF93DF9300D058
S113391000D000D0CDB7DEB78A836B835D834C8340
S11339202E8319828CDF88E0E1DF882311F081E0A7
S113393028C068E18A81A0DF882311F081E021C0DA
S113394068E28B8199DF8823A1F081E01AC0898124
S113395091E0980F9983882F90E02C813D81820F0C
S1133960931FFC01808168E287DF882311F081E0E6
S113397008C08E819FEF980F9E83882341F778DFDC
S113398080E026960FB6F894DEBF0FBECDBFDF9160
S1133990CF9108950F931F93CF93DF9300D000D05E
S11339A000D0CDB7DEB78A836B835D834C832E83CF
S11339B0198245DF88E09ADF882311F081E04DC049
S11339C068E18A8159DF882311F081E046C068E20A
S11339D08B8152DF882311F081E03FC030DF80E12A
S11339E085DF882311F081E038C08A81816060E43A
S11339F043DF882351F181E030C08E818823A1F018
S1133A00898191E0980F9983882F90E02C813D81E2
S1133A108901080F191F4CDFF801808380E566DFF8
S1133A20882399F081E019C08981882F90E02C8146
S1133A303D818901080F191F4ADFF801808388E559
S1133A4055DF882311F081E008C08E819FEF980F25
S1133A509E83882391F60CDF80E026960FB6F894B7
S1133A60DEBF0FBECDBFDF91CF911F910F9108959F
S1133A701F93CF93DF931F92CDB7DEB7192F89839E
S1133A8021E0AE014F5F5F4F61E180E53EDF1983C6
S1133A9021E0AE014F5F5F4F62E180E536DF0F90BA
S1133AA0DF91CF911F910895CF93DF9300D0CDB7CD
S1133AB0DEB719821A8280E2898321E0CE01019661
S1133AC0AC016BE088E421DF882309F0198287E0E8
S1133AD0898321E0CE010196AC0160E088E415DF22
S1133AE0882309F0198288EA898321E0CE010196AE
S1133AF0AC0164E188E409DF882309F0198283E0DA
S1133B00898321E0CE010196AC0161E088E4FDDE09
S1133B1080E8898321E0CE010196AC0165E188E467
S1133B20F4DE00000F900F90DF91CF910895CF93B2
S1133B30DF931F92CDB7DEB78983611108C021E0FE
S1133B40AE014F5F5F4F62E188E4DFDE07C021E032
S1133B50AE014F5F5F4F63E188E4D7DE0F90DF91E2
S1133B60CF910895611106C021E0AC0162E188E4BF
S1133B7011CF089521E0AC0163E188E40BCF0895EF
S1133B8024E0829FC0011124FC01E756F84F6081B4
S1133B9071818281938108956093AA077093AB0722
S1133BA08093AC079093AD0708956091AA07709134
S1133BB0AB078091AC079091AD0708954F925F9247
S1133BC06F927F928F929F92AF92BF92CF92DF9229
S1133BD0EF92FF920F931F93CF93DF93EC018B012E
S1133BE0488059806A807B804114510461047104C7
S1133BF009F443C0FB0180809180A280B3808114CA
S1133C009104A104B104C9F1C301B201A501940155
S1133C1043D66B017C01672B682B692B19F40FC009
S1133C206B017C01C501B401A701960135D646019B
S1133C305701611571058105910591F702C0750160
S1133C406401F2E0CF16D104E104F104B0F0C30141
S1133C50B201A701960120D6288339834A835B8366
S1133C60F8016081718182819381A701960114D644
S1133C70F8012083318342835383DF91CF911F91D5
S1133C800F91FF90EF90DF90CF90BF90AF909F90F7
S1133C908F907F906F905F904F9008954F925F92B6
S1133CA06F927F928F929F92AF92BF92CF92DF9248
S1133CB0EF92FF920F931F93CF93DF93CDB7DEB7AD
S1133CC028970FB6F894DEBF0FBECDBF8A01C0900F
S1133CD03201D0903301E0903401F0903501A70116
S1133CE09601DAD549015A0169837A838B839C83CF
S1133CF0CD82DE82EF82F886BE016B5F7F4FCE01FC
S1133D0001965CDFC980DA80EB80FC80CC0CDD1C82
S1133D10EE1CFF1CCC0CDD1CEE1CFF1CCC0CDD1CB3
S1133D20EE1CFF1CCC0CDD1CEE1CFF1CCC0CDD1CA3
S1133D30EE1CFF1CCC0CDD1CEE1CFF1CCC0CDD1C93
S1133D40EE1CFF1C4D805E806F807884C701B60135
S1133D50A3019201A1D5CA01B901880C991CAA1C1E
S1133D60BB1C880C991CAA1CBB1C880C991CAA1C83
S1133D70BB1C880C991CAA1CBB1C880C991CAA1C73
S1133D80BB1C880C991CAA1CBB1C880C991CAA1C63
S1133D90BB1C325041095109820E931EA41EB51E4C
S1133DA0F80180829182A282B382A301920165D537
S1133DB0C61AD70AE80AF90AC482D582E682F782CB
S1133DC0408651866286738680E028960FB6F89402
S1133DD0DEBF0FBECDBFDF91CF911F910F91FF903A
S1133DE0EF90DF90CF90BF90AF909F908F907F9097
S1133DF06F905F904F9008953F924F925F926F92B1
S1133E007F928F929F92AF92BF92CF92DF92EF9266
S1133E10FF920F931F93CF93DF934B015C01EA0151
S1133E2081E0F9018083F0E88F16F1ED9F06F0EF51
S1133E30AF06F8E0BF0640F1C501B401660F771F75
S1133E40881F991F660F771F881F991FC12CD12CBB
S1133E5076016894C2F83BC0A32DB0E0A50194019B
S1133E6068D5A3019201261B370B480B590BCA01D5
S1133E70B90133943394611536E4730733EC830743
S1133E8033E29307F0F010C06894332431F860E013
S1133E9079EE84EA95E30F2E412CF9EE5F2EF4EAD5
S1133EA06F2EF5E37F2EF02DA5019401F5D4690161
S1133EB07A0144E0C416D104E104F10408F042C0DC
S1133EC0CBCF60E070E0CB01C12CD12C760121E096
S1133ED054E0C516D104E104F10409F020E0F8012E
S1133EE02083CC0CDD1CEE1CFF1CCC0CDD1CEE1C5A
S1133EF0FF1CCC0CDD1CEE1CFF1CCC0CDD1CEE1CD2
S1133F00FF1CCC0CDD1CEE1CFF1CCC0CDD1CEE1CC1
S1133F10FF1CCC0CDD1CEE1CFF1CF2E0DF1AE108D8
S1133F20F108C882D982EA82FB821C821D821E8229
S1133F301F8201E010E020E030E0088719872A871B
S1133F403B8706C0A5019401C701B60196D4BFCF33
S1133F50DF91CF911F910F91FF90EF90DF90CF9061
S1133F60BF90AF909F908F907F906F905F904F9095
S1133F703F9008952F923F924F925F926F927F925B
S1133F808F929F92AF92BF92CF92DF92EF92FF9265
S1133F900F931F93CF93DF93CDB7DEB762970FB61E
S1133FA0F894DEBF0FBECDBF6B017C011A013E87C2
S1133FB02D878091A6079091A707A091A807B0919B
S1133FC0A90789879A87AB87BC87BC01CD01A70164
S1133FD0960162D449015A012F87388B498B5A8B39
S1133FE069837A838B839C83CD82DE82EF82F88619
S1133FF0BE016B5F7F4FCE010196E0DD4D805E8098
S11340006F807884C980DA80EB80FC80A5019401FC
S1134010C301B20132D49B01AC012C0D3D1D4E1DD8
S11340205F1D69857A858B859C8536D4CA01B90163
S1134030A301920122D469877A878B879C87C11454
S1134040D104E104F10409F085C080FE75C082C08A
S113405081E0D8018C93F1011082118212821382C3
S1134060148215821682178281E090E0A0E0B0E00D
S113407080879187A287B38771C0D8011C92CC0C2A
S1134080DD1CEE1CFF1CCC0CDD1CEE1CFF1CCC0C40
S1134090DD1CEE1CFF1CCC0CDD1CEE1CFF1CCC0C30
S11340A0DD1CEE1CFF1CCC0CDD1CEE1CFF1CCC0C20
S11340B0DD1CEE1CFF1CC701B601A3019201ECD369
S11340C0CA01B901880C991CAA1CBB1C880C991C38
S11340D0AA1CBB1C880C991CAA1CBB1C880C991C10
S11340E0AA1CBB1C880C991CAA1CBB1C880C991C00
S11340F0AA1CBB1C880C991CAA1CBB1C89019A0114
S1134100125021093109800E911EA21EB31EF10125
S113411080829182A282B382A3019201AED3C61A95
S1134120D70AE80AF90AC482D582E682F782408671
S113413051866286738612C081E0AD85BE858C93FC
S11341408F859889A989BA890497A105B10509F0D1
S113415094CF7ECFAD85BE851C928FCF69857A853D
S11341608B859C8562960FB6F894DEBF0FBECDBFDB
S1134170DF91CF911F910F91FF90EF90DF90CF903F
S1134180BF90AF909F908F907F906F905F904F9073
S11341903F902F900895262F682F80ECB6CB08957A
S11341A0FF920F931F93CF93DF93CDB7DEB766973C
S11341B00FB6F894DEBF0FBECDBFF42E0091AA0750
S11341C01091AB072091AC073091AD07AE014F5F62
S11341D05F4F64DD8A858D8789858E878B818370A7
S11341E08F878A81888B8981898B9B858F818F704A
S11341F020E1929F800D11248A8B8E818B8B8D817F
S11342008C8B81E0F81207C0AE01435F5F4F68E01A
S11342108AE1C1DF06C0AE01435F5F4F68E082E21E
S1134220BADF66960FB6F894DEBF0FBECDBFDF913E
S1134230CF911F910F91FF9008956093A6077093FB
S1134240A7078093A8079093A90742E0A9CF0895F0
S1134250CF93DF931F92CDB7DEB7698321E0AE0120
S11342604F5F5F4F682F80EC50DB0F90DF91CF9151
S11342700895CF93C82F80FF03C060E281EBE8DF8D
S1134280C1FF03C060E881EBE3DFCF910895AB0188
S113429021E0682F80EC7ECB0895CF92DF92EF92DD
S11342A0FF921F93CF93DF931F92CDB7DEB7182FE2
S11342B06A017B01B3DA1092A6071092A707109245
S11342C0A8071092A90780E498E7ADE7B1E08093CE
S11342D0320190933301A0933401B09335011092CD
S11342E0A5076FEF83E0B4DF6CEC80E1B1DF6CEC29
S11342F081E1AEDF6CEC82E1ABDF612F6261698347
S113430087EBA6DFC114D104E104F10451F40F2EAC
S1134310F0E4CF2EF8E7DF2EFDE7EF2EFF24F39431
S1134320F02D8091320190913301A0913401B0912C
S11343303501C816D906EA06FB06A1F0BE016F5F77
S11343407F4F8FE0A4DF81110DC069816F73698392
S1134350C0923201D0923301E0923401F0923501DF
S11343608FE076DF0F90DF91CF911F91FF90EF9058
S1134370DF90CF9008950F931F93CF93DF931F92F5
S1134380CDB7DEB7182F062FBE016F5F7F4F83E0D6
S11343907EDF81111BC0002361F081E090E002C048
S11343A0880F991F1A95E2F780959981892389834B
S11343B00AC081E090E002C0880F991F1A95E2F7C5
S11343C09981892B8983698183E042DF0F90DF9192
S11343D0CF911F910F9108950F931F93CF93DF9364
S11343E01F92CDB7DEB7062F10E1180FBE016F5F25
S11343F07F4F812F4CDF81111CC0013051F028F018
S1134400023061F0033079F011C089818C7F898397
S11344100DC089818C7F8160898308C089818C7FEC
S11344208260898303C08981836089836981812F44
S11344300FDF0F90DF91CF911F910F9108950F938C
S11344401F93CF93DF931F92CDB7DEB7062F10E1F2
S1134450180FBE016F5F7F4F812F19DF81110EC0CE
S1134460013021F489818F7D898305C0023019F4DC
S11344708981806289836981812FEADE0F90DF91CF
S1134480CF911F910F9108950F931F93CF93DF93B3
S11344901F92CDB7DEB7062F10E1180FBE016F5F74
S11344A07F4F812FF4DE81110CC0002321F089811C
S11344B08064898303C089818F7B89836981812F8B
S11344C0C7DE0F90DF91CF911F910F910895FF9256
S11344D00F931F93CF93DF931F92CDB7DEB7813035
S11344E021F068F0823031F028C00F2EF4E3FF2E63
S11344F0F02D09C00F2EFCE3FF2EF02D04C00F2E6B
S1134500FCE2FF2EF02D042F162FBE016F5F7F4FAC
S11345108F2DBDDE811111C089818378011102C004
S1134520898302C08C60898380E1189FB0011124C3
S11345308981682B69838F2D8BDE0F90DF91CF915A
S11345401F910F91FF9008958F92AF92CF92DF92B7
S1134550EF92FF920F931F93CF93DF93CDB7DEB704
S113456067970FB6F894DEBF0FBECDBFF82ECC868A
S1134570DD86EE86088B198B2A8B6E8B59834A83D2
S1134580880F880F880FBE01655F7F4F845D7FDED3
S113459081113BC08B858C7F8B879E859370892B83
S11345A08B838D858C838C858D839E898A898F707E
S11345B020E1929F800D11248E8389898F838889BD
S11345C0888781E0F81669F0F81620F022E0F216E8
S11345D079F014C0AE014F5F5F4F68E08AE2DBDD23
S11345E00DC0AE014F5F5F4F68E082E3D4DD06C0CB
S11345F0AE014F5F5F4F68E08AE3CDDD6A2D8F2DFA
S113460043DF4CA1682D8F2D62DF67960FB6F894B7
S1134610DEBF0FBECDBFDF91CF911F910F91FF90F1
S1134620EF90DF90CF90AF908F9008953F924F928C
S11346305F926F927F928F929F92AF92BF92CF922E
S1134640DF92EF92FF920F931F93CF93DF93CDB737
S1134650DEB72E970FB6F894DEBF0FBECDBF6B0149
S11346607C01B42E1D861E8680E4C81682E4D8061A
S11346708FE0E806F10460F0C701B60124E630E0FB
S113468040E050E009D1A4E6B0E053D16B017C01D5
S113469081E0B816C9F0B81620F082E0B81651F1DE
S11346A0C1C08091A50781608093A507C092990736
S11346B0D0929A07E0929B07F0929C076894332467
S11346C034F8992493942FC06091A5076260609395
S11346D0A50760956A6F83E0BBDDC0929D07D09209
S11346E09E07E0929F07F092A0070F2EF1E13F2E64
S11346F0F02D9CC06091A50764606093A507609548
S11347006C6F83E0A5DDC092A107D092A207E0926E
S1134710A307F092A4070F2EF2E13F2EF02D86C0DE
S11347206894992491F88E01025F1F4F9E01235FC4
S11347303F4FAE014F5F5F4FC701B6015DDB2B01F9
S11347403C01692D8B2D7BDE8E858F93812CAD846E
S1134750C980DA80EB80FC800D811E812F81388531
S113476049855A856B857C858B2DEEDE0F9041142F
S113477051046104710481F12BC08E01025F1F4F4B
S11347809E01235F3F4FAE014F5F5F4FC701B601EC
S1134790F1DB62E08B2D53DE8E858F93812CAD840B
S11347A0C980DA80EB80FC800D811E812F813885E1
S11347B049855A856B857C858B2DC6DE6091A5075E
S11347C0609583E045DD0F90412C512C320111C0DE
S11347D0492DC301B201E4DC6091A507609583E033
S11347E037DD81E0981205C06CE4832D31DD80E073
S11347F02BC08D85882321F06CE6832D29DD03C031
S11348006CE2832D25DD411451046104710461F0CF
S11348104092A6075092A7076092A8077092A90732
S113482080E012C081E010C080E00EC08091A60735
S11348309091A707A091A807B091A907892B8A2B6B
S11348408B2B09F46DCF99CF2E960FB6F894DEBF5B
S11348500FBECDBFDF91CF911F910F91FF90EF90CD
S1134860DF90CF90BF90AF909F908F907F906F908C
S11348705F904F903F9008950895DB018F939F932D
S113488058D0BF91AF91A29F800D911DA39F900D11
S1134890B29F900D11240895A1E21A2EAA1BBB1BEE
S11348A0FD010DC0AA1FBB1FEE1FFF1FA217B307F8
S11348B0E407F50720F0A21BB30BE40BF50B661F0E
S11348C0771F881F991F1A9469F7609570958095D2
S11348D090959B01AC01BD01CF010895052E97FB76
S11348E016F400940FD057FD05D0D6DF07FC02D094
S11348F046F408C050954095309521953F4F4F4F51
S11349005F4F089590958095709561957F4F8F4F77
S11349109F4F0895A29FB001B39FC001A39F700D44
S1134920811D1124911DB29F700D811D1124911DB3
S11349300895F0DFA59F900DB49F900DA49F800D66
S1134940911D11240895E894DF93CF93FC01DB01BA
S1134950E1DF7F936F93E9019A01AC01BF93AF93B9
S11349603F932F93DF01D6DF26F46C1B7D0B820B64
S1134970930B9E01EB01FC012BD0AF91BF912F91C2
S11349803F9126D0BE01CF01F9012F913F91CF91E4
S1134990DF91089597FB10F8169400080F930830E0
S11349A098F00850232F342F452F562F672F782F38
S11349B0892F902DF4CF05949795879577956795D2
S11349C057954795379527950A95AAF70F91089516
S11349D0A1DF460F571FC81FD91F08F43196089549
S11349E0FC0188279927E89421912032E9F32930A2
S11349F010F02E30C8F32B3239F02D3231F4689494
S1134A0003C055D0820F911D219120532A30C8F341
S1134A101EF4909581959F4F08951F93FC0199274B
S1134A208827BC01E89411911032E9F3193010F091
S1134A301E30C8F31B3249F01D3241F4689405C09E
S1134A4021D0610F711D811D911D119110531A30D8
S1134A50B8F33EF490958095709561957F4F8F4F94
S1134A609F4F1F9108959111089581568A5108F41A
S1134A70805285580895FB01DC0101900D920020BD
S1134A80E1F70895592F482F372F262F660F771FE8
S1134A90881F991F660F771F881F991F620F731F46
S1134AA0841F951F660F771F881F991F08957AE04A
S1134AB0979F902D879F802D910D11240895AEE02E
S1134AC0B0E0E4E6F5E2DDC20D891E8986E08C8360
S1134AD01A8309838FEF9FE79E838D83AE01475E20
S1134AE05F4F6F89788DCE01019608D0EF81F885EC
S1134AF0E00FF11F10822E96E4E0DFC2ABE0B0E0DD
S1134B00E3E8F5E2B0C26C017B018A01FC01178283
S1134B101682838181FFBFC1CE0101963C01F6015B
S1134B209381F70193FD859193FF81917F01882300
S1134B3009F4ADC1853239F493FD859193FF8191D8
S1134B407F01853221F4B60190E0C0D1E8CF912CE9
S1134B50212C312CFFE1F315D8F08B3279F038F4A5
S1134B60803279F08332A1F4232D20611DC08D326F
S1134B7061F0803369F4232D216016C0832D826097
S1134B80382EE32DE4603E2E2AC0F32DF8601DC0BC
S1134B9037FC2DC020ED280F2A3040F08E32B9F4B6
S1134BA036FC75C1232D2064322E19C036FE06C092
S1134BB08AE0989E200D1124922E11C0EAE02E9EC8
S1134BC0200D1124222EF32DF0623F2E08C08C36C6
S1134BD021F4832D8068382E02C0883641F4F70111
S1134BE093FD859193FF81917F018111B3CF982F1C
S1134BF09F7D9554933028F40C5F1F4F9FE3998356
S1134C000DC0833631F0833771F0833509F055C018
S1134C1020C0F801808189830E5F1F4F882483940C
S1134C20912C530112C02801F2E04F0E511CF801DF
S1134C30A080B18036FE03C0692D70E002C06FEF22
S1134C407FEFC50138D14C018201F32DFF773F2E50
S1134C5015C0280122E0420E511CF801A080B18049
S1134C6036FE03C0692D70E002C06FEF7FEFC5010F
S1134C7017D14C01F32DF0683F2E820133FC19C08B
S1134C80822D90E088169906A0F4B60180E290E0A7
S1134C901DD12A94F5CFF50137FC859137FE81911A
S1134CA05F01B60190E012D121102A9421E0821A0A
S1134CB091088114910479F7E1C0843611F08936A2
S1134CC039F5F80137FE07C06081718182819381D3
S1134CD00C5F1F4F08C060817181072E000C880B88
S1134CE0990B0E5F1F4FF32DFF763F2E97FF09C0E0
S1134CF090958095709561957F4F8F4F9F4FF06889
S1134D003F2E2AE030E0A3011DD1882E861844C02E
S1134D10853731F4232D2F7EB22E2AE030E025C0D2
S1134D20932D997FB92E8F36C1F018F4883579F018
S1134D30AEC0803719F0883721F0A9C0E92FE061AF
S1134D40BE2EB4FE0DC0FB2DF460BF2E09C034FE90
S1134D500AC0292F2660B22E06C028E030E005C024
S1134D6020E130E002C020E132E0F801B7FE07C0E4
S1134D7060817181828193810C5F1F4F06C06081C5
S1134D80718180E090E00E5F1F4FA301DBD0882E7D
S1134D908618FB2DFF773F2E36FE0DC0232D2E7F68
S1134DA0A22E891458F434FE0BC032FC09C0832DA2
S1134DB08E7EA82E05C0B82CA32C03C0B82C01C02D
S1134DC0B92CA4FE0FC0FE01E80DF11D80818033D3
S1134DD021F49A2D997EA92E09C0A2FE06C0B3948F
S1134DE0B39404C08A2D867809F0B394A3FC10C050
S1134DF0A0FE06C0B21480F4280C922C9B180DC09F
S1134E00B21458F4B60180E290E060D0B394F8CFC5
S1134E10B21418F42B1802C0982C212CA4FE0FC035
S1134E20B60180E390E052D0A2FE16C0A1FC03C0FC
S1134E3088E790E002C088E590E0B6010CC08A2DB6
S1134E40867851F0A1FE02C08BE201C080E2A7FC8B
S1134E508DE2B60190E03AD0891430F4B60180E3D3
S1134E6090E034D09A94F8CF8A94F301E80DF11DC0
S1134E708081B60190E02AD08110F6CF222009F477
S1134E804ECEB60180E290E021D02A94F7CFF6010D
S1134E908681978102C08FEF9FEF2B96E2E1FFC0DE
S1134EA0FC010590615070400110D8F780959095F1
S1134EB08E0F9F1F0895FC016150704001900110F6
S1134EC0D8F7809590958E0F9F1F08950F931F9389
S1134ED0CF93DF93FB01238121FD03C08FEF9FEF6D
S1134EE02CC022FF16C04681578124813581421788
S1134EF0530744F4A081B1819D012F5F3F4F31835B
S1134F0020838C93268137812F5F3F4F37832683FD
S1134F1014C08B01EC01FB010084F185E02D09959F
S1134F20892BE1F6D80116968D919C9117970196DD
S1134F3017969C938E931697CE01DF91CF911F9174
S1134F400F910895FA01AA27283051F1203181F1F7
S1134F50E8946F936E7F6E5F7F4F8F4F9F4FAF4F7D
S1134F60B1E03ED0B4E03CD0670F781F891F9A1F90
S1134F70A11D680F791F8A1F911DA11D6A0F711D44
S1134F80811D911DA11D20D009F468943F912AE050
S1134F90269F11243019305D3193DEF6CF01089538
S1134FA0462F4770405D4193B3E00FD0C9F7F6CF69
S1134FB0462F4F70405D4A3318F0495D31FD405231
S1134FC0419302D0A9F7EACFB4E0A69597958795C7
S1134FD077956795BA95C9F70097610571050895A6
S1134FE09B01AC010A2E0694579547953795279552
S1134FF0BA95C9F7620F731F841F951FA01D0895EA
S1135000F999FECF92BD81BDF89A992780B508958C
S1135010A6E1B0E044E050E018C0262FF999FECF95
S11350201FBA92BD81BD20BD0FB6F894FA9AF99AC1
S11350300FBE01960895242FF1DF252FEFDF00C066
S1135040ECDF272FEBCFDC01CB01FC01F999FECF7C
S113505006C0F2BDE1BDF89A319600B40D924150FC
S11350605040B8F708952F923F924F925F926F92FB
S11350707F928F929F92AF92BF92CF92DF92EF92E4
S1135080FF920F931F93CF93DF93CDB7DEB7CA1B65
S1135090DB0B0FB6F894DEBF0FBECDBF09942A8890
S11350A0398848885F846E847D848C849B84AA8438
S11350B0B984C884DF80EE80FD800C811B81AA81C5
S11350C0B981CE0FD11D0FB6F894DEBF0FBECDBF90
S10B50D0ED010895F894FFCFEF
S11350D80A00000000000000010A0AFFFFFF28235D
S11350E864008813E803E8031D000B6401023029F7
S11350F8AD08302B3600F4010000FF01E044A300A2
S1135108020140787D01000000000000000000005A
S11351180000000000000A436F6D6D616E64733A0D
S11351280A00000000000000000000000000000069
S11351380000000000000000000000000000202023
S11351484220202020202020202020202020202031
S113515820202D20426174746572790A00000000D1
S11351680000000000002020424E44205B327C38BE
S1135178305D20202020202020202D20527820421D
S1135188616E640A00000000000000000000202096
S1135198465245205B4D3C313A353E5D205B487AAA
S11351A85D202D20527820467265710A00000000A7
S11351B80000000000002020505245205B302D32B2
S11351C835355D202020202020202D205072656157
S11351D86D700A000000000000000000000020209C
S11351E84F205B487A5D202020202020202020208A
S11351F820202D204357204F66667365740A0000EB
S1135208000000000000202041205B302D313030A8
S11352185D2020202020202020202D20417474652A
S11352286E756174696F6E0A00000000000020202A
S1135238535B535D20202020202020202020202084
S113524820202D20525353490A000000000000007A
S11352580000000000002020544F4E205B2D317CBC
S1135268307C315D2020202020202D20546F6E6555
S113527820525353490A0000000000000000202077
S1135288564F4C203C4D3A543E205B302D31355D11
S113529820202D204D61696E2F546F6E6520566F46
S11352A86C0A00000000202050202020202020200C
S11352B8202020202020202020202D205065726DC1
S11352C80A00000000000000000000000000202088
S11352D85253542020202020202020202020202029
S11352E820202D2052657365740A00000000000018
S11352F800000000000020203F2020202020202043
S1135308202020202020202020202D20496E666F78
S11353180A000000000000000000000000002A2A23
S11353282A2057445420526573657421202A2A2A56
S11353380A005244503E20000A00F401F40103001C
S1135348E803E8031D0003060758322E312E300007
S113535841524446204475616C2D42616E64205468
S113536872616E736D6974746572000A2A2A2A2040
S11353782573205665722E202573202A2A2A005068
S11353886F776572206F666620696E2025642073C6
S113539865630A003E2025733D25642573004D2569
S11353A86400256C64003E20257320284D454D2952
S11353B82573003E20257325730025634652452C2A
S11353C825732C25732563003E2054494D453D25FE
S11353D873257300256354494D2C257325630025D3
S11353E863564F4C2C25732C2573256300326D00AE
S11353F838306D003E20424E443D25732573002508
S113540863424E442C257325630025634243522C82
S11354182573256300256349442C25732C25733B88
S1135428002E2E2E2E2E003E204241543D2573255B
S1135438730021422C25733B003E20525353493DAF
S1135448257325730021532C25733B003E205246B7
S11354583D257325730021522C25733B00257500C7
S11354683E2025733D25732573002125732C257350
S11354783B000A4572726F723A205043494E5430C9
S1135488206F63637572726564210A000A4572723B
S11354986F723A205043494E5432206F63637572D9
S11354A8726564210A004D41494E20564F4C005400
S11354B84F4E4520564F4C000A0A00544F4E0041A7
S11354C8545400505245003E256C646D00256C64AC
S11354D82E25316C646800414D00504D002531641F
S11354E82531643A2531642531643A2531642531FE
S11354F8642573002531642531643A2531642531E6
S10D5508643A253164253164000083
S9030000FC
