:107800000C94343C0C94253D0C94253D0C94253D62
:107810000C94253D0C94253D0C94253D0C94253D60
:107820000C94253D0C94253D0C94253D0C94253D50
:107830000C94253D0C94253D0C94253D0C94253D40
:107840000C94253D0C94253D0C94253D0C94253D30
:107850000C94253D0C94253D0C94253D0C94253D20
:107860000C94253D0C94253D11241FBECFEFD8E08C
:10787000DEBFCDBF0E943E3C0C94513D112484B725
:1078800014BE982F9D7011F00E944A3D82E08093B3
:10789000C00088E18093C10086E08093C20087E643
:1078A0008093C40089E20E94443D00E010E0D3E0F0
:1078B000992493940F2EF5E0AF2EF02D0F2EF1E1C9
:1078C000BF2EF02D0E942F3D8134A9F40E942F3D40
:1078D000C82F0E943C3DC23821F482E00E94273D1F
:1078E000B0C0C13821F486E00E94273DAAC08D2F88
:1078F0000E94273DA6C0823441F4C4E10E942F3D7E
:10790000C150E1F70E943C3D9CC0853469F40E945F
:107910002F3D0E942F3D0E942F3D0E942F3D0E942F
:107920002F3D0E943C3D8DC0853571F40E942F3D56
:10793000C82F0E942F3D2C2F30E0382B8901000FDB
:10794000111F0E943C3D7DC0863571F40E942F3D81
:107950000E942F3D0E942F3D0E942F3D0E943C3DE2
:1079600080E00E94273D6DC0843609F041C00E942E
:107970002F3D0E942F3DC82F0E942F3D882ECC24E2
:10798000CA94CC0ED12C81E0C80ED81EE12CFF2465
:10799000F3940E942F3DF70181937F01EC15FD05C3
:1079A000C1F70E943C3DF5E48F1201C0FFCFF80102
:1079B000D7BFE89507B600FCFDCFF801A0E0B1E025
:1079C0008C9111962C91119790E0922B0C0197BEFF
:1079D000E89511243296C2501296C111F1CFF801E8
:1079E000A7BEE89507B600FCFDCFB7BEE89529C055
:1079F000843791F40E942F3D0E942F3DC82F0E9492
:107A00002F3D0E943C3D7801F70185917F010E9446
:107A1000273DC150C9F715C0853761F40E943C3D30
:107A20008EE10E94273D85E90E94273D8FE00E945C
:107A3000273D07C0813519F40E943C3D02C00E94D9
:107A40003C3D80E10E94273D3DCF0C94003CE0ECA2
:107A5000F0E0908195FFFDCF8093C6000895E0ECA3
:107A6000F0E080818823ECF78091C00084FD01C0A4
:107A7000A8958091C60008950E942F3D803219F488
:107A800084E10E94273D0895E0E6F0E098E19083CC
:107A900080830895282E80E00E94443DE0E0FF2787
:067AA0000994F894FFCFE9
:040000030000780081
:00000001FF
