:107800000C94343C0C94373D0C94373D0C94373D2C
:107810000C94373D0C94373D0C94373D0C94373D18
:107820000C94373D0C94373D0C94373D0C94373D08
:107830000C94373D0C94373D0C94373D0C94373DF8
:107840000C94373D0C94373D0C94373D0C94373DE8
:107850000C94373D0C94373D0C94373D0C94373DD8
:107860000C94373D0C94373D11241FBECFEFD8E068
:10787000DEBFCDBF0E943E3C0C946E3D88EC8093F1
:1078800000011124C4B714BE8C2F8C7019F08C2FFA
:107890000E94673D82E08093C00088E18093C10030
:1078A00086E08093C20087E68093C400C11111C0B6
:1078B00089E20E94553D00E010E0D3E099249394C2
:1078C0000F2EF5E0AF2EF02D0F2EF1E1BF2EF02D93
:1078D00004C08EE00E94553DEECFA8950E94413D28
:1078E0008134A9F40E94413DC82F0E945B3DC238FB
:1078F00021F482E00E94393DB6C0C13821F487E00E
:107900000E94393DB0C08D2F0E94393DACC08234F9
:1079100041F4C4E10E94413DC150E1F70E945B3D4A
:10792000A2C0853469F40E94413D0E94413D0E94FD
:10793000413D0E94413D0E94413D0E945B3D93C0FC
:10794000853571F40E94413DC82F0E94413D2C2F86
:1079500030E0382B8901000F111F0E945B3D83C06E
:10796000863571F40E94413D0E94413D0E94413D97
:107970000E94413D0E945B3D80E00E94393D73C002
:10798000843609F044C00E94413D0E94413DC82F09
:107990000E94413D882ECC24CA94CC0ED12C8DEF70
:1079A000C81A8EEFD80A6894EE24E1F8FF24F39405
:1079B0000E94413DF70181937F01EC15FD05C1F760
:1079C0000E945B3DF5E48F1201C0FFCFF801D7BFE5
:1079D000E89507B600FCFDCFF801A2E0B1E08C917C
:1079E00011962C91119790E0922B0C0197BEE8957F
:1079F00011243296C2501296C111F1CFF801A7BEE0
:107A0000E89507B600FCFDCFB7BEE8952CC08437DB
:107A100091F40E94413D0E94413DC82F0E94413D8A
:107A20000E945B3D7801F70185917F010E94393DFD
:107A3000C150C9F718C0853761F40E945B3D8EE1E3
:107A40000E94393D85E90E94393D8FE00E94393D11
:107A50000AC0813531F40E945B3D8BE00E94553DA8
:107A600002C00E945B3D80E10E94393D36CF0C94FC
:107A7000003CE0ECF0E0908195FFFDCF8093C600E4
:107A80000895E0ECF0E080818823ECF78091C0005D
:107A900084FD08C080910001811101C0A89581502A
:107AA000809300018091C6000895E0E6F0E098E13F
:107AB0009083808308950E94413D803221F088E0C8
:107AC0000E94553DFFCF84E10E94393D0895282E44
:107AD00080E00E94553DE0E0FF270994F894FFCF35
:040000030000780081
:00000001FF
